:060000000A128A11ED2F27
:10000C0083160313071587149B3092000C30831250
:10001C00031397000F309D046808F000F00E1708CA
:10002C007006CF397006970066089500620C031CA9
:10003C009D1203189D161D1660089B008C10033032
:10004C00920412158C1C2B282C2828288316031399
:10005C00871007110800F80078080319362837288C
:10006C004B28F31F3A283B284B287009FA007109DA
:10007C00FB007209FC007309FD00FA0A0319FB0A64
:10008C000319FC0A0319FD0A53287308FD007208B2
:10009C00FC007108FB007008FA007308720471040C
:1000AC007004031D5A285B2864280030F3000030CC
:1000BC00F2000030F1000030F000E8289630F90032
:1000CC0074280130F4007408F90701300310FD0C9A
:1000DC00FC0CFB0CFA0CFF3E031D6C28FE307D055E
:1000EC00031D79287A28672896280130F4007408B3
:1000FC00F9070130FA07003003180130FB07003014
:10010C0003180130FC07003003180130FD070130E3
:10011C000310FD0CFC0CFB0CFA0CFF3E031D8E288F
:10012C00FF307D05031D9B289C287B28A8280130C7
:10013C00F9020130F4000310FA0DFB0DFC0DFD0D5E
:10014C00F40BA128FC1BAB28AC28B2280230790296
:10015C000318B128B2289D287918B528B628BE28CE
:10016C00FF30FA05FF30FB057F30FC05FF30FD0545
:10017C000310F90C7908F400F501F601F7011830B9
:10018C000310F40DF50DF60DF70DFF3E031DC628FB
:10019C007408FA047508FB047608FC047708FD045F
:1001AC0078080319DA28DB28E028F31FDE28DF287B
:1001BC00E028FD177D08F3007C08F2007B08F100B5
:1001CC007A08F0000800C330831203139F05033034
:1001DC0083120313D800D80BF128831203139F1436
:1001EC009F18F928FA28F6280C13831603131E08F7
:1001FC0083120313D80006300310D80CFF3E031DE6
:10020C0002291E08D900DA010310D90DDA0D0310EA
:10021C00D90DDA0D58085907DB00003003180130EE
:10022C005A07DC005B08EE005C08EF006E08F0007B
:10023C006F08F100F201F30100300A128A1131202B
:10024C000A128A11730883120313A7007208A600FE
:10025C007108A5007008A4003D30A3000730A2006F
:10026C002B30A1000230A0000A128A11A8240A1215
:10027C008A11831203132308C1002208C00021082D
:10028C00BF002008BE004230BD000030BC00003072
:10029C00BB000030BA000A128A1150220A128A11CD
:1002AC00831203133D08D1003C08D0003B08CF005B
:1002BC003A08CE000A128A1588270A128A1183126C
:1002CC0003134F08ED004E08EC0003306C05E800FA
:1002DC0000306D05E9006D08D9006C08D8000310DA
:1002EC00D90CD80C0310D90CD80CFF305805E600EB
:1002FC0000305905E7006808D800D80E17085806D2
:10030C00CF395806970066089500283083120313DE
:10031C00D800D80B8F299229831203131F08C339D5
:10032C0004389F00033083120313D800D80B9C2988
:10033C00831203139F149F18A429A529A1290C1318
:10034C00831603131E0883120313D8000630031000
:10035C00D80CFF3E031DAD291E08D900DA0103108D
:10036C00D90DDA0D0310D90DDA0D58085907DB0039
:10037C000030031801305A07DC005B08EA005C0807
:10038C00EB006A08F0006B08F100F201F301003099
:10039C000A128A1131200A128A117308831203136C
:1003AC00A7007208A6007108A5007008A4003D30D3
:1003BC00A3000730A2002B30A1000230A0000A12CB
:1003CC008A11A8240A128A11831203132308C1006C
:1003DC002208C0002108BF002008BE004230BD002A
:1003EC000030BC000030BB000030BA000A128A1189
:1003FC0050220A128A11831203133D08D1003C08C3
:10040C00D0003B08CF003A08CE000A128A15882784
:10041C000A128A11831203134F08E5004E08E400F8
:10042C0003306405E20000306505E3006508D9007F
:10043C006408D8000310D90CD80C0310D90CD80CB4
:10044C00FF305805E00000305905E1006208013921
:10045C00D800D80E1D085806EF3958069D006308C1
:10046C00D9006208D8000310D90CD80C58080139EF
:10047C00DA00DA0EDA0D1D085A06DF395A069D002D
:10048C0060089B00283083120313D800D80B4C2A29
:10049C004F2A0800831203133D088039CA003D0817
:1004AC00C2004207CC00BC1F5C2A5D2A5E2A4C1499
:1004BC004C080319622A632A732A4C0A031D672A03
:1004CC00682A702A0030BD000030BC000030BB0030
:1004DC000030BA00BC17BD017B2A0030BD000030D3
:1004EC00BC000030BB000030BA0041088039CB00A2
:1004FC004B084A060319832A842A852A4A1741087D
:10050C00C2004207CB00C01F8C2A8D2A8E2A4B14A6
:10051C004B080319922A932AA32A4B0A031D972AE4
:10052C00982AA02A0030C1000030C0000030BF0063
:10053C000030BE00C017C101AB2A0030C100003032
:10054C00C0000030BF000030BE004C084B02031846
:10055C00B02AB12AD72A4A1FB42AB52AB92A803020
:10056C00C2004208CA064C08CD004B08CC004D080E
:10057C00CB003A08CD003E08BA004D08BE003B083F
:10058C00CD003F08BB004D08BF003C08CD00400823
:10059C00BC004D08C0003D08CD004108BD004D0811
:1005AC00C100CD014B08C200C3014308C5004C0873
:1005BC004202C400031CC5034508803AFF0080308A
:1005CC007F02031DEB2A1A304402031CEE2AEF2A89
:1005DC00262B831203133D083C043B043A04031DF1
:1005EC00F82AFA2A0130FB2A0030CD000030BD0079
:1005FC000030BC000030BB000030BA004B08CC000F
:10060C002E2B4D1C0A2B0B2B122B4D08C20003104A
:10061C00420C0138CD00142B0310CD0C3A1C172BB7
:10062C00182B192BCD170130C2003D0DBD0CBC0C85
:10063C00BB0CBA0CC20B1B2B0130C2004208CC07FE
:10064C00831203134B084C02031C2D2B2E2B072B50
:10065C004A1B312B322B7B2B4C08031D362B372B93
:10066C00402B0030BD000030BC000030BB0000301F
:10067C00BA00A72C3E08BA073F0803110318013E25
:10068C000319492BBB07400803110318013E03193A
:10069C00502BBC07410803110318013E0319572BBB
:1006AC00BD073D1C5A2B5B2B2F2C4D1C5E2B5F2B3F
:1006BC00662B4D08C2000310420C0138CD00682B8C
:1006CC000310CD0C3A1C6B2B6C2B6D2BCD17013002
:1006DC00C2003D0DBD0CBC0CBB0CBA0CC20B6F2B7D
:1006EC000130C2004208CC072F2C3D08803AFF0095
:1006FC004108803A7F02031D8D2B40083C02031DEC
:10070C008D2B3F083B02031D8D2B3E083A0203182C
:10071C00902B912BE92BFF30C200FF30C300FF3030
:10072C00C400FF30C5003E08C6003F08C7004008A3
:10073C00C8004108C9003A08C6023B08031C3B0F1D
:10074C00A82BA92BC7023C08031C3C0FAE2BAF2BCC
:10075C00C8023D08031C3D0FB42BB52BC90246083B
:10076C00C20747080318470FBC2BBD2BC30748080B
:10077C000318480FC22BC32BC40749080318490A96
:10078C00C5074508BD004408BC004308BB0042082F
:10079C00BA008030C2004208CA06CD09CD0A4D0805
:1007AC00031DD92BDA2BF72B0130BA0700300318B5
:1007BC000130BB07003003180130BC0700300318B0
:1007CC000130BD07F72B3E08BA023F08031C3F0F50
:1007DC00BB024008031C400FBC024108031C410F24
:1007EC00BD023D083C043B043A04031DFE2BFF2BC9
:1007FC002B2C4D08031D032C042C2B2C0030BD007E
:10080C000030BC000030BB000030BA00A72C013017
:10081C00C2000310BA0DBB0DBC0DBD0DC20B0F2CCD
:10082C00CD1F192C1A2C1B2C3A144D1C1E2C1F2CB2
:10083C00222C0314CD0D242C0310CD0D4C080319C0
:10084C00282C292C2B2C0130CC02BC1F2E2C2F2C0D
:10085C000D2CCB01CD1F332C342C422C4D087F3961
:10086C000319392C3A2C3D2CCB01CB0A422C3A1CC7
:10087C00402C412C422C3A2C4B080319462C472C6B
:10088C007B2C0130BA07003003180130BB07003055
:10089C0003180130BC07003003180130BD073D1CA4
:1008AC00582C592C7B2C3A08C2003B08C3003C083E
:1008BC00C4003D08C5000130C600450DC50CC40C74
:1008CC00C30CC20CC60B632C4508BD004408BC000D
:1008DC004308BB004208BA004C0A0319762C772C4B
:1008EC007B2C0130C2004208CC074C0A03197F2C28
:1008FC00802C852C4C08031D842C852C932C0030CB
:10090C00BD000030BC000030BB000030BA004C0809
:10091C00031D912C922C932CCA014C1C962C972CB9
:10092C00992CBC179D2C7F30C2004208BC054C088A
:10093C00C2000310420CBD00CA1FA52CA62CA72C6C
:10094C00BD1708008312031323088039AD00230858
:10095C00A8002807B300A21FB42CB52CB62C331456
:10096C0033080319BA2CBB2CCA2C330A031DBF2C19
:10097C00C02CC82C0030A3000030A2000030A10015
:10098C000030A000A217D22C0030A3000030A2002F
:10099C000030A1000030A00027088039A8002808EA
:1009AC00AD062708A8002807B200A61FDE2CDF2CF6
:1009BC00E02C321432080319E42CE52CF42C320A06
:1009CC00031DE92CEA2CF22C0030A7000030A60005
:1009DC000030A5000030A400A617FC2C0030A700A6
:1009EC000030A6000030A5000030A4003208031926
:1009FC00002D012D062D3308031D052D062D0F2D61
:100A0C000030A3000030A2000030A1000030A00094
:100A1C00EC2F2008F00026080A128A15E2260A128A
:100A2C008A11710883120313B9007008B8003808D2
:100A3C00A800A901AA01AB012B08B1002A08B0003B
:100A4C002908AF002808AE003908A800A901AA019E
:100A5C00AB012B08B7002A08B6002908B5002808F6
:100A6C00B4002108F00025080A128A15E2260A12A1
:100A7C008A11710883120313B9007008B800380882
:100A8C00A800A901AA01AB012808AE072908031187
:100A9C000318013E0319532DAF072A08031103183D
:100AAC00013E03195A2DB0072B0803110318013E00
:100ABC000319612DB1073908A800A901AA01AB01DE
:100ACC002808B407290803110318013E03196F2DD8
:100ADC00B5072A0803110318013E0319762DB60732
:100AEC002B0803110318013E03197D2DB7072208AB
:100AFC00F00024080A128A15E2260A128A117108DB
:100B0C0083120313B9007008B8003808A800A901B3
:100B1C00AA01AB012808AE07290803110318013EEE
:100B2C000319992DAF072A0803110318013E031965
:100B3C00A02DB0072B0803110318013E0319A72D94
:100B4C00B1073908A800A901AA01AB012808B4070C
:100B5C00290803110318013E0319B52DB5072A08FE
:100B6C0003110318013E0319BC2DB6072B08031102
:100B7C000318013E0319C32DB7070830A800031052
:100B8C00AE0DAF0DB00DB10DA80BC52D2108F000A9
:100B9C0024080A128A15E2260A128A117108831295
:100BAC000313B9007008B8003808A8003908A90068
:100BBC00AA01AB012808AE07290803110318013E4E
:100BCC000319E92DAF072A0803110318013E031975
:100BDC00F02DB0072B0803110318013E0319F72D54
:100BEC00B1072008F00025080A128A15E2260A121D
:100BFC008A11710883120313B9007008B800380801
:100C0C00A8003908A900AA01AB012808AE072908D9
:100C1C0003110318013E0319142EAF072A08031100
:100C2C000318013E03191B2EB0072B0803110318E0
:100C3C00013E0319222EB1070830A8000310AE0D97
:100C4C00AF0DB00DB10DA80B242E2008F000240818
:100C5C000A128A15E2260A128A11710883120313EA
:100C6C00B9007008B8003808A8003908A900AA0112
:100C7C00AB012808AE07290803110318013E03191C
:100C8C00482EAF072A0803110318013E03194F2EF3
:100C9C00B0072B0803110318013E0319562EB10798
:100CAC002108F00026080A128A15E2260A128A1177
:100CBC00710883120313B9007008B8003808A80033
:100CCC003908A900AA01AB012808B40729080311A7
:100CDC000318013E0319732EB5072A0803110318D4
:100CEC00013E03197A2EB6072B0803110318013E97
:100CFC000319812EB7072208F00025080A128A155D
:100D0C00E2260A128A11710883120313B9007008C3
:100D1C00B8003808A8003908A900AA01AB012808B6
:100D2C00B407290803110318013E03199E2EB507B9
:100D3C002A0803110318013E0319A52EB6072B0828
:100D4C0003110318013E0319AC2EB7072208F0005B
:100D5C0026080A128A15E2260A128A1171088312D1
:100D6C000313B9007008B8003808A8003908A900A6
:100D7C00AA01AB0108300310A80DA90DAA0DAB0DEB
:100D8C00FF3E031DC12E2808B407290803110318C0
:100D9C00013E0319D22EB5072A0803110318013E90
:100DAC000319D92EB6072B0803110318013E03199A
:100DBC00E02EB7072E08A8002F08A9003008AA00BB
:100DCC003108AB0018300310AB0CAA0CA90CA80C02
:100DDC00FF3E031DE92E2808B40729080311031848
:100DEC00013E0319FA2EB5072A0803110318013E18
:100DFC000319012FB6072B0803110318013E031921
:100E0C00082FB7070830A8000310AE0DAF0DB00DBA
:100E1C00B10DA80B0A2F33083207A800A901A90DA0
:100E2C002808823EB80029080318013EFF3EB9008D
:100E3C003C2F0130A8000310B40DB50DB60DB70D45
:100E4C00A80B212FB11F2B2F2C2F2D2F3414013039
:100E5C00A8000310AE0DAF0DB00DB10DA80B2F2FC8
:100E6C00FF30B8070318B90AFF30B907B61F3F2F78
:100E7C00402F1F2FB201B11F442F452F612FFF3080
:100E8C002E05A800FF302F05A900FF303005AA0061
:100E9C007F303105AB002B082A04290428040319E0
:100EAC00582F592F5C2FB201B20A612F341C5F2FBF
:100EBC00602F612F592F32080319652F662F972F3A
:100ECC000130B407003003180130B50700300318A7
:100EDC000130B607003003180130B707371C772FE5
:100EEC00782F972F3408A8003508A9003608AA00D7
:100EFC003708AB000130AC002B0DAB0CAA0CA90CC5
:100F0C00A80CAC0B822F2B08B7002A08B6002908B6
:100F1C00B5002808B4000130B8070318B90A00302E
:100F2C00B9073908803AFF0080307F02031DA02FDB
:100F3C00FF303802031CA32FA42FAF2F7F30831256
:100F4C000313B7008030B6000030B5000030B40099
:100F5C00E02F831203133908803AFF0080307F02A0
:100F6C00031DBA2F013038020318BD2FBE2FCA2F14
:100F7C00003083120313B7000030B6000030B50008
:100F8C000030B400AD01E02F831203133808B30016
:100F9C00FF30B405FF30B5057F30B6050030B7051E
:100FAC00331CD92FDA2FDB2FB6173308A800031008
:100FBC00280CB7002D08A8002808B7043708A30090
:100FCC003608A2003508A1003408A00008008313DD
:100FDC005E30840070300A128A15BC260A128A11FF
:100FEC0083160313A001A101A201A30183010A121C
:040FFC008A15572FCC
:101D780064008001840A0406031900340406BD2E99
:101D8800831603178901831203138801831603132B
:101D980008100C178B16831203130C1308008B17EB
:101DA8008B160B1183160313811281110108F83960
:101DB800033881008312031381010800F800F4013D
:101DC800F5017008F200F3017208F6007308F700D5
:101DD800781CEF2EF02EF62E7608F4070318F50A75
:101DE8007708F50701300310F60DF70DFF3E031DC8
:101DF800F72E0310F80C7808031D032F042FEC2E80
:101E08007508F1007408F0000800831603178901AB
:101E18008316031385148316031788148316031374
:101E280005158316031708158316031385158316DE
:101E380003178815831203139F131F1783160313A1
:101E48009F121F129F13831203131F140330F000F5
:101E5800F00B2C2F2F2F0800F00007307006031D01
:101E6800362F372F3B2F7030831603138F0406301D
:101E78007006031D402F412F472F831603130F08A9
:101E88008F3960388F0003307006031D4C2F4D2F9B
:101E9800532F831603130F088F3930388F0083169A
:101EA80003130F1408000A128A15C4260A128A1589
:101EB80003300A128A1530270A128A150A128A155F
:101EC80009270A128A150A128A1106200A128A1587
:101ED8000A128A15D3260A128A1583160313A20139
:101EE800A301FF30A0000030A1000A128A11E920E6
:101EF8000A128A15033083120313DD00DD0B822FCB
:101F0800792F0A128A110028031083120313500D27
:101F1800510DD7005708031D922F932F9C2F003087
:101F2800D1000030D0000030CF000030CE00FF2FAD
:101F38004E08D2004F08D3005008D4005108D500ED
:101F48001F300310D50CD40CD30CD20CFF3E031D4C
:101F5800A52F5208D600D017FF30CE05FF30CF0589
:101F6800FF30D0050030D1059630D702D71FBD2FDE
:101F7800BE2FD82F5708803A973E0318C42FC52F75
:101F8800C62F932F01300310D10CD00CCF0CCE0CE0
:101F9800FF3E031DC72F0130D2005208D707031D8B
:101FA800D62FD72FC62FEF2F20305702031CDD2F37
:101FB800DE2FEA2F932F0130D2000310CE0DCF0D64
:101FC800D00DD10DD20BE12F0130D7025708031DD8
:101FD800EE2FEF2FDF2F56080319F32FF42FFF2FC3
:101FE800CE09CF09D009D109CE0A0319CF0A03199E
:081FF800D00A0319D10A080008
:08400000FF3FFF3FFF3FFF3FC0
:04400E00D420FF3F7C
:00000001FF
