:060000000A128A110C280F
:10000800FE00030EF2000A08F3000A128A15272ED2
:100018000A128A110F28F601F701F801F901831273
:100028000313E901EA01EB01EC01ED01EE01831391
:10003800A0308400B0300A128A1594230A128A115B
:1000480083010A128A11C52D8312031331088039DE
:10005800BB003108B6003607C100B01F3428352868
:1000680036284114410803193A283B284A28410AEE
:10007800031D3F28402848280030B1000030B00058
:100088000030AF000030AE00B01752280030B10089
:100098000030B0000030AF000030AE0035088039C5
:1000A800B6003608BB063508B6003607BC00B41FD4
:1000B8005E285F2860283C143C08031964286528DA
:1000C80074283C0A031D69286A2872280030B50084
:1000D8000030B4000030B3000030B200B4177C2800
:1000E8000030B5000030B4000030B3000030B2007A
:1000F8003C0803198028812886284108031D852883
:1001080086288F280030B1000030B0000030AF00E2
:100118000030AE006C2B2E08F40034080A128A1541
:1001280075240A128A11750883120313C70074080C
:10013800C6004608B600B701B801B9013908C000C1
:100148003808BF003708BE003608BD004708B600AB
:10015800B701B801B9013908C5003808C400370823
:10016800C3003608C2002F08F40033080A128A15A3
:1001780075240A128A11750883120313C7007408BC
:10018800C6004608B600B701B801B9013608BD0770
:10019800370803110318013E0319D328BE0738088E
:1001A80003110318013E0319DA28BF0739080311A0
:1001B8000318013E0319E128C0074708B600B70134
:1001C800B801B9013608C207370803110318013E00
:1001D8000319EF28C307380803110318013E031950
:1001E800F628C407390803110318013E0319FD282E
:1001F800C5073008F40032080A128A1575240A1255
:100208008A11750883120313C7007408C6004608CC
:10021800B600B701B801B9013608BD0737080311A0
:100228000318013E03191929BE07380803110318DA
:10023800013E03192029BF07390803110318013E9D
:1002480003192729C0074708B600B701B801B90143
:100258003608C207370803110318013E0319352968
:10026800C307380803110318013E03193C29C407C2
:10027800390803110318013E03194329C50708303B
:10028800B6000310BD0DBE0DBF0DC00DB60B452940
:100298002F08F40032080A128A1575240A128A11E6
:1002A800750883120313C7007408C6004608B60011
:1002B8004708B700B801B9013608BD073708031168
:1002C8000318013E03196929BE07380803110318EA
:1002D800013E03197029BF07390803110318013EAD
:1002E80003197729C0072E08F40033080A128A1563
:1002F80075240A128A11750883120313C70074083B
:10030800C6004608B6004708B700B801B901360864
:10031800BD07370803110318013E03199429BE07C6
:10032800380803110318013E03199B29BF07390830
:1003380003110318013E0319A229C0070830B600AB
:100348000310BD0DBE0DBF0DC00DB60BA4292E08A0
:10035800F40032080A128A1575240A128A117508DF
:1003680083120313C7007408C6004608B60047087E
:10037800B700B801B9013608BD07370803110318DB
:10038800013E0319C829BE07380803110318013EA6
:100398000319CF29BF07390803110318013E0319B0
:1003A800D629C0072F08F40034080A128A157524C4
:1003B8000A128A11750883120313C7007408C6004D
:1003C8004608B6004708B700B801B9013608C207A1
:1003D800370803110318013E0319F329C307380826
:1003E80003110318013E0319FA29C4073908031138
:1003F8000318013E0319012AC5073008F400330821
:100408000A128A1575240A128A11750883120313B1
:10041800C7007408C6004608B6004708B700B80108
:10042800B9013608C207370803110318013E03193A
:100438001E2AC307380803110318013E0319252A89
:10044800C407390803110318013E03192C2AC507EC
:100458003008F40034080A128A1575240A128A1121
:10046800750883120313C7007408C6004608B6004F
:100478004708B700B801B90108300310B60DB70D29
:10048800B80DB90DFF3E031D412A3608C2073708CB
:1004980003110318013E0319522AC3073808031130
:1004A8000318013E0319592AC40739080311031810
:1004B800013E0319602AC5073D08B6003E08B7008B
:1004C8003F08B8004008B90018300310B90CB80C40
:1004D800B70CB60CFF3E031D692A3608C207370859
:1004E80003110318013E03197A2AC30738080311B8
:1004F8000318013E0319812AC40739080311031898
:10050800013E0319882AC5070830B6000310BD0D3F
:10051800BE0DBF0DC00DB60B8A2A41083C07B600B8
:10052800B701B70D3608823EC60037080318013EEA
:10053800FF3EC700BC2A0130B6000310C20DC30D30
:10054800C40DC50DB60BA12AC01FAB2AAC2AAD2A13
:1005580042140130B6000310BD0DBE0DBF0DC00D15
:10056800B60BAF2AFF30C6070318C70AFF30C70704
:10057800C41FBF2AC02A9F2ABC01C01FC42AC52A7B
:10058800E12AFF303D05B600FF303E05B700FF30D9
:100598003F05B8007F304005B900390838043704F2
:1005A80036040319D82AD92ADC2ABC01BC0AE12A54
:1005B800421CDF2AE02AE12AD92A3C080319E52A45
:1005C800E62A172B0130C207003003180130C30791
:1005D800003003180130C407003003180130C50784
:1005E800451CF72AF82A172B4208B6004308B7001B
:1005F8004408B8004508B9000130BA00390DB90CF3
:10060800B80CB70CB60CBA0B022B3908C500380861
:10061800C4003708C3003608C2000130C6070318F3
:10062800C70A0030C7074708803AFF0080307F02BA
:10063800031D202BFF304602031C232B242B2F2BBA
:100648007F3083120313C5008030C4000030C3001C
:100658000030C200602B831203134708803AFF0062
:1006680080307F02031D3A2B0130460203183D2BD0
:100678003E2B4A2B003083120313C5000030C40000
:100688000030C3000030C200BB01602B831203138B
:100698004608C100FF30C205FF30C3057F30C405DE
:1006A8000030C505411C592B5A2B5B2BC417410838
:1006B800B6000310360CC5003B08B6003608C50462
:1006C8004508B1004408B0004308AF004208AE0036
:1006D8000800831203134B088039D8004B08D00058
:1006E8005007DA00CA1F792B7A2B7B2B5A145A0829
:1006F80003197F2B802B902B5A0A031D842B852BE3
:100708008D2B0030CB000030CA000030C90000300B
:10071800C800CA17CB01982B0030CB000030CA00A4
:100728000030C9000030C8004F088039D900590886
:1007380058060319A02BA12BA22B58174F08D0003D
:100748005007D900CE1FA92BAA2BAB2B5914590837
:100758000319AF2BB02BC02B590A031DB42BB52B93
:10076800BD2B0030CF000030CE000030CD0000306F
:10077800CC00CE17CF01C82B0030CF000030CE0000
:100788000030CD000030CC005A0859020318CD2B98
:10079800CE2BF42B581FD12BD22BD62B8030D00048
:1007A8005008D8065A08DB005908DA005B08D90057
:1007B8004808DB004C08C8005B08CC004908DB008F
:1007C8004D08C9005B08CD004A08DB004E08CA0086
:1007D8005B08CE004B08DB004F08CB005B08CF005E
:1007E800DB015908D000D1015108D3005A08500242
:1007F800D200031CD3035308803AFF0080307F02E5
:10080800031D082C1A305202031C0B2C0C2C432CF1
:10081800831203134B084A0449044804031D152C8A
:10082800172C0130182C0030DB000030CB000030D2
:10083800CA000030C9000030C8005908DA004B2C43
:100848005B1C272C282C2F2C5B08D0000310500C85
:100858000138DB00312C0310DB0C481C342C352C00
:10086800362CDB170130D0004B0DCB0CCA0CC90C51
:10087800C80CD00B382C0130D0005008DA0783128E
:10088800031359085A02031C4A2C4B2C242C581BBE
:100898004E2C4F2C982C5A08031D532C542C5D2C8D
:1008A8000030CB000030CA000030C9000030C8005A
:1008B800C42D4C08C8074D0803110318013E03193D
:1008C800662CC9074E0803110318013E03196D2C45
:1008D800CA074F0803110318013E0319742CCB07EC
:1008E8004B1C772C782C4C2D5B1C7B2C7C2C832C64
:1008F8005B08D0000310500C0138DB00852C031076
:10090800DB0C481C882C892C8A2CDB170130D00082
:100918004B0DCB0CCA0CC90CC80CD00B8C2C01305D
:10092800D0005008DA074C2D4B08803AFF004F08DA
:10093800803A7F02031DAA2C4E084A02031DAA2CE6
:100948004D084902031DAA2C4C0848020318AD2C77
:10095800AE2C062DFF30D000FF30D100FF30D20082
:10096800FF30D3004C08D4004D08D5004E08D600FF
:100978004F08D7004808D4024908031C490FC52C62
:10098800C62CD5024A08031C4A0FCB2CCC2CD60205
:100998004B08031C4B0FD12CD22CD7025408D0077C
:1009A80055080318550FD92CDA2CD1075608031807
:1009B800560FDF2CE02CD20757080318570AD30725
:1009C8005308CB005208CA005108C9005008C80093
:1009D8008030D0005008D806DB09DB0A5B08031D0D
:1009E800F62CF72C142D0130C807003003180130FD
:1009F800C907003003180130CA0700300318013056
:100A0800CB07142D4C08C8024D08031C4D0FC90212
:100A18004E08031C4E0FCA024F08031C4F0FCB028F
:100A28004B084A0449044804031D1B2D1C2D482D5E
:100A38005B08031D202D212D482D0030CB000030F0
:100A4800CA000030C9000030C800C42D0130D000F1
:100A58000310C80DC90DCA0DCB0DD00B2C2DDB1FF3
:100A6800362D372D382D48145B1C3B2D3C2D3F2D42
:100A78000314DB0D412D0310DB0D5A080319452D16
:100A8800462D482D0130DA02CA1F4B2D4C2D2A2D38
:100A9800D901DB1F502D512D5F2D5B087F390319BC
:100AA800562D572D5A2DD901D90A5F2D481C5D2D79
:100AB8005E2D5F2D572D59080319632D642D982D30
:100AC8000130C807003003180130C9070030031887
:100AD8000130CA07003003180130CB074B1C752DB5
:100AE800762D982D4808D0004908D1004A08D20030
:100AF8004B08D3000130D400530DD30CD20CD10CC9
:100B0800D00CD40B802D5308CB005208CA005108D2
:100B1800C9005008C8005A0A0319932D942D982D1E
:100B28000130D0005008DA075A0A03199C2D9D2D70
:100B3800A22D5A08031DA12DA22DB02D0030CB00E7
:100B48000030CA000030C9000030C8005A08031D30
:100B5800AE2DAF2DB02DD8015A1CB32DB42DB62D06
:100B6800CA17BA2D7F30D0005008CA055A08D000DD
:100B78000310500CCB00D81FC22DC32DC42DCB178A
:100B880008000A128A15D4230A128A1103300A129D
:100B98008A154E240A128A110A128A15CA240A12C0
:100BA8008A110A128A1508240A128A110A128A1549
:100BB800EE230A128A110A128A159C230A128A1134
:100BC80083120313ED01EE01F801F90183120313F7
:100BD8006D086E04031DF12DF22D652E0A128A117F
:100BE800E4260A128A110A128A15F7240A128A11AF
:100BF8008316031320032104031D032E042E5E2EE7
:100C0800A001A10183120313871278087904031D38
:100C18000E2E0F2E122EF601F701352E78037904C9
:100C2800031D172E182E1D2E0430F6000030F70075
:100C3800352E023078067904031D232E242E292E02
:100C48000830F6000030F700352E033078067904B6
:100C5800031D2F2E302E352E0C30F6000030F700F5
:100C6800352E1508F40076080A128A159E240A12F1
:100C78008A11831203131B08F4007608013E0A1236
:100C88008A159E240A128A11831603132608F40073
:100C98007608023E0A128A159E240A128A118316C1
:100CA80003132408F4007608033E0A128A159E24CA
:100CB8000A128A11033083160313B500B50B622E8E
:100CC800DA2E6D036E04031D6A2E6B2EDA2E0A12BD
:100CD8008A15F7240A128A118316031320032104A4
:100CE800031D772E782EDA2EA001A101831203139B
:100CF800871278087904031D822E832E862EF6012A
:100D0800F701A92E78037904031D8B2E8C2E912EC2
:100D18000430F6000030F700A92E02307806790476
:100D2800031D972E982E9D2E0830F6000030F700F0
:100D3800A92E033078067904031DA32EA42EA92E0C
:100D48000C30F6000030F700A92E76080A128A1532
:100D5800BD230A128A118312031395007608013EF7
:100D68000A128A15BD230A128A11831203139B00E3
:100D78007608023E0A128A15BD230A128A118316C2
:100D88000313B500B6013508A6003608A700760893
:100D9800033E0A128A15BD230A128A118316031309
:100DA800B500B6013508A4003608A500033083163F
:100DB8000313B500B50BDE2EEA2D0A128A110C2892
:100DC800831203131F08C33904389F0003308312AA
:100DD8000313E600E60BEE2E831203139F149F18ED
:100DE800F62EF72EF32E0C130A128A15A3260A12D2
:100DF8008A11831203136B08E600E60E17086606CD
:100E0800CF396606970069089500283083120313C6
:100E1800E600E60B0D2F102F831203131F08C339AA
:100E280008389F00033083120313E600E60B1A2FDD
:100E3800831203139F149F18222F232F1F2F0C1385
:100E48000A128A15A3260A128A11831203136B0841
:100E58000139E600E60E1D086606EF3966069D00B4
:100E68006C08E7006B08E6000310E70CE60C660860
:100E78000139E800E80EE80D1D086806DF39680644
:100E88009D0069089B00283083120313E600E60BD7
:100E98004B2F4E2F831203131F08C3390C389F00A2
:100EA800033083120313E600E60B582F8312031353
:100EB8009F149F18602F612F5D2F0C130030AD0019
:100EC800AE00FF30AF000030B0000130B10000309C
:100ED800B2001130B3000030B4001E080A128A11A3
:100EE800C7270A128A11831203132E0883160313C5
:100EF800A700831203132D0883160313A6002830B6
:100F080083120313E600E60B872F8A2F831203133D
:100F18001F08C33910389F00033083120313E600FB
:100F2800E60B942F831203139F149F189C2F9D2F59
:100F3800992F0C130030AD00AE00FF30AF00003029
:100F4800B0000130B1000030B2001130B300003001
:100F5800B4001E080A128A11C7270A128A118312BE
:100F680003132E0883160313A500831203132D08F9
:100F780083160313A400283083120313E600E60B3C
:100F8800C32FC62F080083120313B6002D082F02A3
:100F9800A4002E08031C2E0A3002A5003608B5004E
:100FA8002D083502A0002E090318013EA1003108C2
:100FB8003302A2003208031C320A3402A3000A12C8
:100FC8008A1527240A128A11831203132108A700FD
:100FD8002008A6000A128A1546250A128A118312C9
:100FE800031331082407AD0032080318320A250715
:040FF800AE0008003F
:1017280064008001840A0406031900340406952B1A
:101738008B178B160B118316031381128111010865
:10174800F8390338810063308312031381000800DD
:10175800B62BAE2BAF2B00000130F0020030031C7B
:10176800F103F10270087104031DBB2BBC2BAD2BD8
:101778000800F400831603178C18C32BC42BBE2B48
:101788000C18C72BC82BBE2B7408831203178D00A7
:10179800831603178C130C14831203170C08080004
:1017A80083160317890183120313850187018801B2
:1017B80083160313880187010C17831203130C1374
:1017C8008B150B100730831603139600073095000E
:1017D800811308008316031387149B3092000F307F
:1017E800831203139D046B0C031C9D1203189D1692
:1017F8001D1669089B008C108C1C032C042C002CD3
:1018080083160313871008008316031307159B30EC
:1018180092000C308312031397006B08F400F40E47
:1018280017087406CF3974069700690895008C105C
:101838000330920412158C1C222C232C1F2C831687
:10184800031307110800F401F50183120313201C88
:101858002E2C2F2C352C2208F4070318F50A230800
:10186800F50701300310A20DA30DFF3E031D362C12
:1018780001300310A10CA00CFF3E031D3D2C2008D5
:101888002104031D482C492C292C7508A100740833
:10189800A0000800F40007307406031D542C552CD2
:1018A800592C7030831603138F0406307406031DF9
:1018B8005E2C5F2C652C831603130F088F39603854
:1018C8008F0003307406031D6A2C6B2C712C831651
:1018D80003130F088F3930388F00831603130F1442
:1018E800080083120313A600A201A3017408A00034
:1018F800A1012008A4002108A500261C842C852C01
:101908008B2C2408A2070318A30A2508A307013073
:101918000310A40DA50DFF3E031D8C2C0310A60C6F
:101928002608031D982C992C812C2308F5002208E1
:10193800F400080083120313A000831603178C1801
:10194800A62CA72CA12C831203132008831203179B
:101958008D0074088C00831603178C130C15003047
:101968008B1B013083120313A1008B135530831690
:1019780003178D00AA308D008C140C1183120313E9
:10198800210C031C8B1303188B17080083160317ED
:101998008901831603138516831603178816831681
:1019A8000313851483160317881483160313051568
:1019B8008316031708158316031385158316031753
:1019C8008815831203139F131F17831603139F127F
:1019D8001F129F13831203131F140330F400F40B18
:1019E800F32CF62C080078087904031DFC2CFD2C38
:1019F800022D8312031308118811252D7803790409
:101A0800031D072D082D0D2D8312031308158811AA
:101A1800252D023078067904031D132D142D192D58
:101A28008312031308118815252D033078067904CD
:101A3800031D1F2D202D252D83120313081588152E
:101A4800252D831203136D086E04031D2C2D2D2DD7
:101A5800312D081488100712452D6D036E04031DDF
:101A6800362D372D3B2D081088140712452D0230CE
:101A78006D066E04031D412D422D452D081088105A
:101A88000716080083120313AA01A51F4C2D4D2D1C
:101A9800542DA409A509A40A0319A50AAA01AA0A8A
:101AA800A71F572D582D612DA609A709A60A0319A6
:101AB800A70A0130A8002808AA06AB01AC0124082F
:101AC80025040319682D692DA02DA901A90A772DD0
:101AD80001300310A40DA50DFF3E031D6D2D01302F
:101AE800A8002808A907A51F7A2D7B2D6C2D013089
:101AF8000310AB0DAC0DFF3E031D7C2D25082702FE
:101B0800031D882D24082602031C8B2D8C2D932D54
:101B18002408A6022508031CA703A7022B140130DA
:101B28000310A50CA40CFF3E031D942D0130A9023F
:101B3800031D9F2DA02D7B2D2A080319A42DA52D4B
:101B4800AA2DAB09AC09AB0A0319AC0A2C08A500ED
:101B58002B08A40008000310831203135E0D5F0D09
:101B6800E5006508031DB92DBA2DC32D0030DF002F
:101B78000030DE000030DD000030DC00262E5C087E
:101B8800E0005D08E1005E08E2005F08E3001F3046
:101B98000310E30CE20CE10CE00CFF3E031DCC2D1E
:101BA8006008E400DE17FF30DC05FF30DD05FF309C
:101BB800DE050030DF059630E502E51FE42DE52D52
:101BC800FF2D6508803A973E0318EB2DEC2DED2D7F
:101BD800BA2D01300310DF0CDE0CDD0CDC0CFF3EEF
:101BE800031DEE2D0130E0006008E507031DFD2D03
:101BF800FE2DED2D162E20306502031C042E052E19
:101C0800112EBA2D0130E0000310DC0DDD0DDE0DC4
:101C1800DF0DE00B082E0130E5026508031D152EC7
:101C2800162E062E640803191A2E1B2E262EDC09E2
:101C3800DD09DE09DF09DC0A0319DD0A0319DE0AFA
:101C48000319DF0A08000B1D2A2E2B2E4F2E0B110D
:101C58006330831203138100871583160313270843
:101C6800F1002608F0000A128A15AC230A128A1518
:101C78008312031387110714831603132508F10031
:101C88002408F0000A128A15AC230A128A15831256
:101C9800031307100B110B1C522E532E9C2E83126C
:101CA80003130618582E592E702E061C5C2E5D2E16
:101CB800592E6D086E04031D622E632E6E2EF801D8
:101CC800F9016D08013EED006E080318013E003E63
:101CD800EE00702EED01EE018618732E742E8C2EF8
:101CE800861C772E782E742E003079020330031963
:101CF80078020318802E812E8A2E7808013EF8007B
:101D080079080318013E003EF9008C2EF801F9010C
:101D180006198F2E902E9B2E061D932E942E902EF4
:101D28008716013083160313A0000030A1000B10A2
:101D380073088A00720E8300FE0E7E0E0900831659
:101D480003131E08B00006300310B00CFF3E031D3D
:101D5800A82E831203131E0883160313B100B201C1
:101D68000310B10DB20D0310B10DB20D30083107DB
:101D7800B3000030031801303207B4003308AE0056
:101D88003408AF002E0883120313A0008316031330
:101D98002F0883120313A100A201A30100300A1225
:101DA8008A1546270A128A15831203132308B500D9
:101DB8002208B4002108B3002008B2003D30B10069
:101DC8000730B0002B30AF000230AE000A128A1183
:101DD80028200A128A15831203133108CF0030080D
:101DE800CE002F08CD002E08CC004230CB000030AA
:101DF800CA000030C9000030C8000A128A116D23D9
:101E08000A128A15831203134B08DF004A08DE0002
:101E18004908DD004808DC000A128A15AF250A12B5
:101E28008A15831203135D0883160313A90083120E
:101E380003135C0883160313A800033028058312D4
:101E48000313EB00003083160313290583120313D1
:101E5800EC00831603132908B1002808B00003100A
:101E6800B10CB00C0310B10CB00CFF30300583126C
:101E78000313E9000030831603133105831203139B
:101E8800EA00080083120313A800280803194D2F3D
:101E98004E2F622FA31F512F522F622F2009AA0005
:101EA8002109AB002209AC002309AD00AA0A0319D5
:101EB800AB0A0319AC0A0319AD0A6A2F2308AD004F
:101EC8002208AC002108AB002008AA00230822043D
:101ED80021042004031D712F722F7B2F0030A300D3
:101EE8000030A2000030A1000030A000FF2F963083
:101EF800A9008B2F0130A4002408A9070130031082
:101F0800AD0CAC0CAB0CAA0CFF3E031D832FFE30AE
:101F18002D05031D902F912F7E2FAD2F0130A4008A
:101F28002408A9070130AA07003003180130AB07BD
:101F3800003003180130AC07003003180130AD073A
:101F480001300310AD0CAC0CAB0CAA0CFF3E031D0A
:101F5800A52FFF302D05031DB22FB32F922FBF2FB2
:101F68000130A9020130A4000310AA0DAB0DAC0D7D
:101F7800AD0DA40BB82FAC1BC22FC32FC92F023035
:101F880029020318C82FC92FB42F2918CC2FCD2FF9
:101F9800D52FFF30AA05FF30AB057F30AC05FF30E9
:101FA800AD050310A90C2908A400A501A601A701E5
:101FB80018300310A40DA50DA60DA70DFF3E031D97
:101FC800DD2F2408AA042508AB042608AC0427083A
:101FD800AD0428080319F12FF22FF72FA31FF52FAF
:101FE800F62FF72FAD172D08A3002C08A2002B08F9
:081FF800A1002A08A000080066
:08400000FF3FFF3FFF3FFF3FC0
:04400E00D420FF3F7C
:00000001FF
