:060000000A128A110C280F
:10000800FE00030EF9000A08FA000A128A156C2F7E
:100018000A128A110F28FB01FC018313A030840007
:10002800B0300A128A11F8270A128A1183010A12BB
:100038008A15802D8312031331088039BB003108DB
:10004800B6003607C100B01F2A282B282C284114D7
:1000580041080319302831284028410A031D352852
:1000680036283E280030B1000030B0000030AF0024
:100078000030AE00B01748280030B1000030B000A2
:100088000030AF000030AE0035088039B6003608C1
:10009800BB063508B6003607C000B41F54285528DB
:1000A80056284014400803195A285B286A28400A31
:1000B800031D5F28602868280030B5000030B400B0
:1000C8000030B3000030B200B41772280030B50019
:1000D8000030B4000030B3000030B200400803190B
:1000E800762877287C284108031D7B287C288528CA
:1000F8000030B1000030B0000030AF000030AE007A
:10010800622B2E08A00034080A128A152C250A1220
:100118008A11831203132108C7002008C600460865
:10012800B600B701B801B9013908BF003808BE00E8
:100138003708BD003608BC004708B600B701B8014B
:10014800B9013908C5003808C4003708C3003608A3
:10015800C2002F08A00033080A128A152C250A129B
:100168008A11831203132108C7002008C600460815
:10017800B600B701B801B9013608BC073708031142
:100188000318013E0319C928BD07380803110318CD
:10019800013E0319D028BE07390803110318013E90
:1001A8000319D728BF074708B600B701B801B90136
:1001B8003608C207370803110318013E0319E5285A
:1001C800C307380803110318013E0319EC28C407B4
:1001D800390803110318013E0319F328C50730082D
:1001E800A00032080A128A152C250A128A118312D5
:1001F80003132108C7002008C6004608B600B70147
:10020800B801B9013608BC07370803110318013EC5
:1002180003190F29BD07380803110318013E0319F4
:100228001629BE07390803110318013E03191D29B1
:10023800BF074708B600B701B801B9013608C207B9
:10024800370803110318013E03192B29C30738087F
:1002580003110318013E03193229C4073908031191
:100268000318013E03193929C5070830B6000310E1
:10027800BC0DBD0DBE0DBF0DB60B3B292F08A00050
:1002880032080A128A152C250A128A1183120313BE
:100298002108C7002008C6004608B6004708B7006E
:1002A800B801B9013608BC07370803110318013E25
:1002B80003195F29BD07380803110318013E031904
:1002C8006629BE07390803110318013E03196D2971
:1002D800BF072E08A00033080A128A152C250A1217
:1002E8008A11831203132108C7002008C600460894
:1002F800B6004708B700B801B9013608BC07370887
:1003080003110318013E03198A29BD073808031190
:100318000318013E03199129BE0739080311031870
:10032800013E03199829BF070830B6000310BC0D19
:10033800BD0DBE0DBF0DB60B9A292E08A0003208C0
:100348000A128A152C250A128A118312031321080E
:10035800C7002008C6004608B6004708B700B8011D
:10036800B9013608BC07370803110318013E031901
:10037800BE29BD07380803110318013E0319C52912
:10038800BE07390803110318013E0319CC29BF071A
:100398002F08A00034080A128A152C250A128A117F
:1003A800831203132108C7002008C6004608B600B8
:1003B8004708B700B801B9013608C2073708031162
:1003C8000318013E0319E929C30738080311031864
:1003D800013E0319F029C407390803110318013E27
:1003E8000319F729C5073008A00033080A128A152F
:1003F8002C250A128A11831203132108C70020082A
:10040800C6004608B6004708B700B801B901360863
:10041800C207370803110318013E0319142AC3073A
:10042800380803110318013E03191B2AC4073908A9
:1004380003110318013E0319222AC5073008A0003A
:1004480034080A128A152C250A128A1183120313FA
:100458002108C7002008C6004608B6004708B700AC
:10046800B801B90108300310B60DB70DB80DB90DB4
:10047800FF3E031D372A3608C20737080311031841
:10048800013E0319482AC307380803110318013E1F
:1004980003194F2AC407390803110318013E031929
:1004A800562AC5073C08B6003D08B7003E08B80004
:1004B8003F08B90018300310B90CB80CB70CB60CCB
:1004C800FF3E031D5F2A3608C207370803110318C9
:1004D800013E0319702AC307380803110318013EA7
:1004E8000319772AC407390803110318013E0319B1
:1004F8007E2AC5070830B6000310BC0DBD0DBE0D21
:10050800BF0DB60B802A41084007B600B701B70DEA
:100518003608823EC60037080318013EFF3EC70072
:10052800B22A0130B6000310C20DC30DC40DC50DAB
:10053800B60B972ABF1FA12AA22AA32A4214013068
:10054800B6000310BC0DBD0DBE0DBF0DB60BA52A20
:10055800FF30C6070318C70AFF30C707C41FB52AEC
:10056800B62A952AC001BF1FBA2ABB2AD72AFF304C
:100578003C05B600FF303D05B700FF303E05B8002A
:100588007F303F05B90039083804370436040319A9
:10059800CE2ACF2AD22AC001C00AD72A421CD52A7D
:1005A800D62AD72ACF2A40080319DB2ADC2A0D2BA2
:1005B8000130C207003003180130C30700300318A8
:1005C8000130C407003003180130C507451CED2A67
:1005D800EE2A0D2B4208B6004308B7004408B800BD
:1005E8004508B9000130BA00390DB90CB80CB70C80
:1005F800B60CBA0BF82A3908C5003808C400370801
:10060800C3003608C2000130C6070318C70A003005
:10061800C7074708803AFF0080307F02031D162B6A
:10062800FF304602031C192B1A2B252B7F3083120F
:100638000313C5008030C4000030C3000030C2007E
:10064800562B831203134708803AFF0080307F023D
:10065800031D302B013046020318332B342B402B5B
:10066800003083120313C5000030C4000030C300FB
:100678000030C200BB01562B831203134608C10089
:10068800FF30C205FF30C3057F30C4050030C50503
:10069800411C4F2B502B512BC4174108B600031097
:1006A800360CC5003B08B6003608C5044508B1003D
:1006B8004408B0004308AF004208AE0008008312A7
:1006C80003134B088039D8004B08D0005007DA00D4
:1006D800CA1F6F2B702B712B5A145A080319752BCC
:1006E800762B862B5A0A031D7A2B7B2B832B003003
:1006F800CB000030CA000030C9000030C800CA175B
:10070800CB018E2B0030CB000030CA000030C9006E
:100718000030C8004F088039D90059085806031915
:10072800962B972B982B58174F08D0005007D900B5
:10073800CE1F9F2BA02BA12B591459080319A52BA9
:10074800A62BB62B590A031DAA2BAB2BB32B0030B3
:10075800CF000030CE000030CD000030CC00CE17E6
:10076800CF01BE2B0030CF000030CE000030CD00CE
:100778000030CC005A0859020318C32BC42BEA2BAB
:10078800581FC72BC82BCC2B8030D0005008D80658
:100798005A08DB005908DA005B08D9004808DB0072
:1007A8004C08C8005B08CC004908DB004D08C900AC
:1007B8005B08CD004A08DB004E08CA005B08CE0083
:1007C8004B08DB004F08CB005B08CF00DB01590862
:1007D800D000D1015108D3005A085002D200031C9E
:1007E800D3035308803AFF0080307F02031DFE2B9D
:1007F8001A305202031C012C022C392C83120313C9
:100808004B084A0449044804031D0B2C0D2C0130E5
:100818000E2C0030DB000030CB000030CA00003066
:10082800C9000030C8005908DA00412C5B1C1D2C97
:100838001E2C252C5B08D0000310500C0138DB005F
:10084800272C0310DB0C481C2A2C2B2C2C2CDB17F8
:100858000130D0004B0DCB0CCA0CC90CC80CD00B06
:100868002E2C0130D0005008DA07831203135908E0
:100878005A02031C402C412C1A2C581B442C452C82
:100888008E2C5A08031D492C4A2C532C0030CB00BF
:100898000030CA000030C9000030C800BA2D4C082A
:1008A800C8074D0803110318013E03195C2CC9073A
:1008B8004E0803110318013E0319632CCA074F0899
:1008C80003110318013E03196A2CCB074B1C6D2C2E
:1008D8006E2C422D5B1C712C722C792C5B08D0007D
:1008E8000310500C0138DB007B2C0310DB0C481C78
:1008F8007E2C7F2C802CDB170130D0004B0DCB0CCD
:10090800CA0CC90CC80CD00B822C0130D00050087E
:10091800DA07422D4B08803AFF004F08803A7F02E1
:10092800031DA02C4E084A02031DA02C4D084902A5
:10093800031DA02C4C0848020318A32CA42CFC2C43
:10094800FF30D000FF30D100FF30D200FF30D3009D
:100958004C08D4004D08D5004E08D6004F08D700E3
:100968004808D4024908031C490FBB2CBC2CD502EB
:100978004A08031C4A0FC12CC22CD6024B08031C80
:100988004B0FC72CC82CD7025408D007550803189A
:10099800550FCF2CD02CD10756080318560FD52C3D
:1009A800D62CD20757080318570AD3075308CB0089
:1009B8005208CA005108C9005008C8008030D00049
:1009C8005008D806DB09DB0A5B08031DEC2CED2C6C
:1009D8000A2D0130C807003003180130C90700305C
:1009E80003180130CA07003003180130CB070A2D5D
:1009F8004C08C8024D08031C4D0FC9024E08031CC1
:100A08004E0FCA024F08031C4F0FCB024B084A0473
:100A180049044804031D112D122D3E2D5B08031DAA
:100A2800162D172D3E2D0030CB000030CA000030A7
:100A3800C9000030C800BA2D0130D0000310C80D1D
:100A4800C90DCA0DCB0DD00B222DDB1F2C2D2D2D42
:100A58002E2D48145B1C312D322D352D0314DB0D42
:100A6800372D0310DB0D5A0803193B2D3C2D3E2D65
:100A78000130DA02CA1F412D422D202DD901DB1F7A
:100A8800462D472D552D5B087F3903194C2D4D2DCB
:100A9800502DD901D90A552D481C532D542D552DAB
:100AA8004D2D59080319592D5A2D8E2D0130C8077F
:100AB800003003180130C907003003180130CA0795
:100AC800003003180130CB074B1C6B2D6C2D8E2D7D
:100AD8004808D0004908D1004A08D2004B08D30082
:100AE8000130D400530DD30CD20CD10CD00CD40B44
:100AF800762D5308CB005208CA005108C900500887
:100B0800C8005A0A0319892D8A2D8E2D0130D0006C
:100B18005008DA075A0A0319922D932D982D5A086E
:100B2800031D972D982DA62D0030CB000030CA004C
:100B38000030C9000030C8005A08031DA42DA52D97
:100B4800A62DD8015A1CA92DAA2DAC2DCA17B02D37
:100B58007F30D0005008CA055A08D0000310500C46
:100B6800CB00D81FB82DB92DBA2DCB17080083128A
:100B78000313A80028080319C22DC32DD72DA31FBE
:100B8800C62DC72DD72D2009AA002109AB0022099F
:100B9800AC002309AD00AA0A0319AB0A0319AC0A71
:100BA8000319AD0ADF2D2308AD002208AC00210887
:100BB800AB002008AA002308220421042004031DF6
:100BC800E62DE72DF02D0030A3000030A200003004
:100BD800A1000030A000742E9630A900002E01302C
:100BE800A4002408A90701300310AD0CAC0CAB0C11
:100BF800AA0CFF3E031DF82DFE302D05031D052E02
:100C0800062EF32D222E0130A4002408A907013056
:100C1800AA07003003180130AB0700300318013071
:100C2800AC07003003180130AD0701300310AD0CDC
:100C3800AC0CAB0CAA0CFF3E031D1A2EFF302D0581
:100C4800031D272E282E072E342E0130A90201302D
:100C5800A4000310AA0DAB0DAC0DAD0DA40B2D2EE9
:100C6800AC1B372E382E3E2E0230290203183D2E9B
:100C78003E2E292E2918412E422E4A2EFF30AA0533
:100C8800FF30AB057F30AC05FF30AD050310A90C74
:100C98002908A400A501A601A70118300310A40D76
:100CA800A50DA60DA70DFF3E031D522E2408AA046C
:100CB8002508AB042608AC042708AD042808031946
:100CC800662E672E6C2EA31F6A2E6B2E6C2EAD1708
:100CD8002D08A3002C08A2002B08A1002A08A000B8
:100CE8000800C330831203139F05033083120313D4
:100CF800EB00EB0B7D2E831203139F149F18852E98
:100D0800862E822E0C130A128A1125270A128A119E
:100D18007B0883120313EB00EB0E17086B06CF3921
:100D28006B069700831603132A0883120313950092
:100D3800283083120313EB00EB0BA02EA32E831293
:100D480003131F08C33904389F00033083120313A9
:100D5800EB00EB0BAD2E831203139F149F18B52ED7
:100D6800B62EB22E0C130A128A1125270A128A11DE
:100D78007B08013983120313EB00EB0E1D086B0689
:100D8800EF396B069D007C08EC007B08EB00031034
:100D9800EC0CEB0C6B080139ED00ED0EED0D1D08A8
:100DA8006D06DF396D069D00831603132A0883122A
:100DB80003139B00283083120313EB00EB0BE22E86
:100DC800E52E831203131F08C33908389F00033028
:100DD80083120313EB00EB0BEF2E831203139F1404
:100DE8009F18F72EF82EF42E0C130A128A15662671
:100DF8000A128A11283083120313EB00EB0B022F1F
:100E0800052F831203131F08C3390C389F000330C2
:100E180083120313EB00EB0B0F2F831203139F14A2
:100E28009F18172F182F142F0A128A15E9260A124D
:100E38008A11283083120313EB00EB0B212F242F88
:100E48000800831603131E0883120313E6000630F6
:100E58000310E60CFF3E031D2C2F1E08E700E801D7
:100E68000310E70DE80D0310E70DE80D66086707A6
:100E7800E9000030031801306807EA0069088316A2
:100E88000313AE00831203136A0883160313AF001B
:100E98002E0883120313A000831603132F0883124E
:100EA8000313A100A201A30100300A128A11BB2575
:100EB8000A128A11831203132308B5002208B4000A
:100EC8002108B3002008B2003D30B1000730B0005F
:100ED8002B30AF000230AE000A128A111E200A120F
:100EE8008A11831203133108CF003008CE002F086F
:100EF800CD002E08CC004230CB000030CA000030B4
:100F0800C9000030C8000A128A1163230A128A1124
:100F1800831203134B08DF004A08DE004908DD008E
:100F28004808DC000A128A15EE250A128A11831273
:100F380003135D0883160313AD00831203135C08C3
:100F480083160313AC0003302C05FB0000302D057D
:100F5800FC002D0883120313E700831603132C08E3
:100F680083120313E6000310E70CE60C0310E70CEA
:100F7800E60CFF30660583160313AA0000308312BF
:100F88000313670583160313AB00080083160317C2
:100F9800890183160313051483160317081483168F
:100FA8000313851483160317881483160313051572
:100FB800831603170815831603138515831603175D
:100FC8008815831203139F131F17831603139F1289
:100FD8001F129F13831203131F140330831203136A
:100FE800A000A00BF52F080064008001840A040605
:080FF800031900340406F92F6F
:10196A008B178B160B118316031381128111010831
:10197A00F839033881008312031381010800CF303C
:10198A00831203139005901190101014F6308F00F3
:10199A003C308E000B17831603130C1483120313A7
:1019AA000C1008008316031789018312031385019B
:1019BA008701880183160313880187018B150B1091
:1019CA000730960007309500811308008316031329
:1019DA0087149B3092000F30831203139D047B0CF3
:1019EA00031C9D1203189D161D16831603132A083D
:1019FA00831203139B008C108C1C042D052D012DC2
:101A0A0083160313871008008316031307159B30E8
:101A1A0092000C308312031397007B08A000A00EDB
:101A2A0017082006CF3920069700831603132A08C1
:101A3A008312031395008C100330920412158C1C28
:101A4A00272D282D242D831603130711080083122E
:101A5A000313A800A401A5012008A200A3012208DB
:101A6A00A6002308A700281C3B2D3C2D422D260842
:101A7A00A4070318A50A2708A50701300310A60D15
:101A8A00A70DFF3E031D432D0310A80C2808031DB4
:101A9A004F2D502D382D2508A1002408A00008003C
:101AAA0083120313A00007302006031D5D2D5E2D4F
:101ABA00622D7030831603138F04063083122006BA
:101ACA00031D682D692D6F2D831603130F088F3997
:101ADA0060388F00033083122006031D752D762D82
:101AEA007C2D831603130F088F3930388F00831625
:101AFA0003130F1408000A128A15D7240A128A152A
:101B0A0003300A128A1555250A128A150A128A11F1
:101B1A00CA270A128A150A128A1509250A128A156B
:101B2A000A128A15EB240A128A150A128A15B52492
:101B3A000A128A150A128A15C4240A128A15FF3053
:101B4A0083160313A4000030A500C230A200FF30A0
:101B5A00A3008316031320082104031DB52DB62DF7
:101B6A00C12D831203130814881008110A128A114E
:101B7A0075260A128A15E42D20032104031DC62D99
:101B8A00C72DCD2D83120313081088140811E42DD4
:101B9A00023020062104031DD32DD42DDA2D831201
:101BAA000313081088100815E42D033020062104B9
:101BBA00031DE02DE12DE42DA001A101E42D033048
:101BCA0083120313EE00EE0BE82DAE2D0A128A11D2
:101BDA000C280310831203135E0D5F0DE5006508E0
:101BEA00031DF82DF92D022E0030DF000030DE0033
:101BFA000030DD000030DC00652E5C08E0005D0886
:101C0A00E1005E08E2005F08E3001F300310E30C06
:101C1A00E20CE10CE00CFF3E031D0B2E6008E40011
:101C2A00DE17FF30DC05FF30DD05FF30DE05003052
:101C3A00DF059630E502E51F232E242E3E2E650889
:101C4A00803A973E03182A2E2B2E2C2EF92D01307E
:101C5A000310DF0CDE0CDD0CDC0CFF3E031D2D2E09
:101C6A000130E0006008E507031D3C2E3D2E2C2EB6
:101C7A00552E20306502031C432E442E502EF92D7A
:101C8A000130E0000310DC0DDD0DDE0DDF0DE00B91
:101C9A00472E0130E5026508031D542E552E452EA8
:101CAA0064080319592E5A2E652EDC09DD09DE094E
:101CBA00DF09DC0A0319DD0A0319DE0A0319DF0A40
:101CCA000800831603131E0883120313E600063066
:101CDA000310E60CFF3E031D6D2E1E08E700E80107
:101CEA000310E70DE80D0310E70DE80D6608670716
:101CFA00E9000030031801306807EA006908831612
:101D0A000313AC00831203136A0883160313AD008E
:101D1A002C0883120313A000831603132D088312C1
:101D2A000313A100A201A30100300A128A11BB25E4
:101D3A000A128A15831203132308B5002208B40075
:101D4A002108B3002008B2003E30B1001C30B000B8
:101D5A000E30AF00BF30AE000A128A111E200A12DE
:101D6A008A15831203133108CF003008CE002F08DA
:101D7A00CD002E08CC004230CB00C630CA0000305D
:101D8A00C9000030C8000A128A1163230A128A1590
:101D9A00831203134B08DF004A08DE004908DD00FE
:101DAA004808DC000A128A15EE250A128A158312DF
:101DBA0003135D0883160313A500831203135C083B
:101DCA0083160313A4000800831603131E08831244
:101DDA000313E60006300310E60CFF3E031DF02E47
:101DEA001E08E700E8010310E70DE80D0310E70DF0
:101DFA00E80D66086707E900003003180130680734
:101E0A00EA00690883160313AC00831203136A08F5
:101E1A0083160313AD002C0883120313A000831644
:101E2A0003132D0883120313A100A201A30100309A
:101E3A000A128A11BB250A128A1583120313230870
:101E4A00B5002208B4002108B3002008B2004030CF
:101E5A00B1001B30B0009630AF00D130AE000A128C
:101E6A008A111E200A128A15831203133108CF0021
:101E7A003008CE002F08CD002E08CC004730CB000A
:101E8A007630CA003C30C9000030C8000A128A11F4
:101E9A0063230A128A15831203134B08DF004A08C8
:101EAA00DE004908DD004808DC000A128A15EE2522
:101EBA000A128A15831203135D0883160313A300FB
:101ECA00831203135C0883160313A20008000B1D78
:101EDA006F2F702F862F83120313871D752F762F6E
:101EEA007E2F83160313240983120313810087119B
:101EFA00852F831603132408831203138100871581
:101F0A000B11831203130C1C8B2F8C2FD82F071E37
:101F1A008F2F902FCA2F831603132208F00023084D
:101F2A00F100F201F3013B30F400F630F500013024
:101F3A00F6000030F7007008F4027108031C710FF4
:101F4A00A72FA82FF5027208031C720FAD2FAE2F10
:101F5A00F6027308031C730FB32FB42FF70208306D
:101F6A00F800770DF70CF60CF50CF40CF80BB62FFD
:101F7A007408831203138F008316031322083B3C51
:101F8A00831203138E000712D72F83160313230815
:101F9A00831203138F008316031322088312031379
:101FAA008E0007160C100B1CDB2FDC2FF92F0618DE
:101FBA00DF2FE02FF92F0330F1006E30F000F00B25
:101FCA00E42FF10BE42F83120313061CED2FEE2FDF
:101FDA00F92F831603132008013EA00021080318D5
:101FEA00013E003EA1000B107A088A00790E830098
:061FFA00FE0E7E0E090040
:08400000FF3FFF3FFF3FFF3FC0
:04400E00D420FF3F7C
:00000001FF
