:060000000A128A110C280F
:10000800FE00030EF9000A08FA000A128A15712F79
:100018000A128A110F28FB01FC0183160313A001A1
:10002800A101A201A301A401A501A601A701A8019C
:10003800A901AA01AB0183010A128A15C42D8312F2
:10004800031331088039BB003108B6003607C100F8
:10005800B01F2F28302831284114410803193528AA
:1000680036284528410A031D3A283B2843280030F2
:10007800B1000030B0000030AF000030AE00B01763
:100088004D280030B1000030B0000030AF00003023
:10009800AE0035088039B6003608BB063508B6000C
:1000A8003607C000B41F59285A285B284014400856
:1000B80003195F2860286F28400A031D64286528F3
:1000C8006D280030B5000030B4000030B3000030B7
:1000D800B200B41777280030B5000030B400003003
:1000E800B3000030B200400803197B287C2881281F
:1000F8004108031D802881288A280030B10000307B
:10010800B0000030AF000030AE00672B2E08A00012
:1001180034080A128A1570250A128A1183120313E9
:100128002108C7002008C6004608B600B701B80174
:10013800B9013908BF003808BE003708BD003608C5
:10014800BC004708B600B701B801B9013908C500B5
:100158003808C4003708C3003608C2002F08A000BA
:1001680033080A128A1570250A128A11831203139A
:100178002108C7002008C6004608B600B701B80124
:10018800B9013608BC07370803110318013E0319E3
:10019800CE28BD07380803110318013E0319D528D6
:1001A800BE07390803110318013E0319DC28BF07ED
:1001B8004708B600B701B801B9013608C2073708C1
:1001C80003110318013E0319EA28C307380803116D
:1001D8000318013E0319F128C4073908031103184D
:1001E800013E0319F828C5073008A00032080A1292
:1001F8008A1570250A128A11831203132108C70071
:100208002008C6004608B600B701B801B90136088B
:10021800BC07370803110318013E03191429BD0749
:10022800380803110318013E03191B29BE073908B2
:1002380003110318013E03192229BF074708B60016
:10024800B701B801B9013608C20737080311031806
:10025800013E03193029C307380803110318013E6A
:1002680003193729C407390803110318013E031974
:100278003E29C5070830B6000310BC0DBD0DBE0DE4
:10028800BF0DB60B40292F08A00032080A128A15A4
:1002980070250A128A11831203132108C700200847
:1002A800C6004608B6004708B700B801B9013608C5
:1002B800BC07370803110318013E03196429BD0759
:1002C800380803110318013E03196B29BE073908C2
:1002D80003110318013E03197229BF072E08A00055
:1002E80033080A128A1570250A128A118312031319
:1002F8002108C7002008C6004608B6004708B7000E
:10030800B801B9013608BC07370803110318013EC4
:1003180003198F29BD07380803110318013E031973
:100328009629BE07390803110318013E03199D29B0
:10033800BF070830B6000310BC0DBD0DBE0DBF0DC4
:10034800B60B9F292E08A00032080A128A157025BC
:100358000A128A11831203132108C7002008C60055
:100368004608B6004708B700B801B9013608BC0707
:10037800370803110318013E0319C329BD073808BC
:1003880003110318013E0319CA29BE0739080311CE
:100398000318013E0319D129BF072F08A00034080C
:1003A8000A128A1570250A128A118312031321086A
:1003B800C7002008C6004608B6004708B700B801BD
:1003C800B9013608C207370803110318013E03199B
:1003D800EE29C307380803110318013E0319F5294C
:1003E800C407390803110318013E0319FC29C5077E
:1003F8003008A00033080A128A1570250A128A11DB
:10040800831203132108C7002008C6004608B60057
:100418004708B700B801B9013608C2073708031101
:100428000318013E0319192AC307380803110318D2
:10043800013E0319202AC407390803110318013E95
:100448000319272AC5073008A00034080A128A159C
:1004580070250A128A11831203132108C700200885
:10046800C6004608B6004708B700B801B901083009
:100478000310B60DB70DB80DB90DFF3E031D3C2A8C
:100488003608C207370803110318013E03194D2A1D
:10049800C307380803110318013E0319542AC40777
:1004A800390803110318013E03195B2AC5073C08E4
:1004B800B6003D08B7003E08B8003F08B90018303C
:1004C8000310B90CB80CB70CB60CFF3E031D642A18
:1004D8003608C207370803110318013E0319752AA5
:1004E800C307380803110318013E03197C2AC407FF
:1004F800390803110318013E0319832AC507083078
:10050800B6000310BC0DBD0DBE0DBF0DB60B852A80
:1005180041084007B600B701B70D3608823EC6004D
:1005280037080318013EFF3EC700B72A0130B6005E
:100538000310C20DC30DC40DC50DB60B9C2ABF1FF9
:10054800A62AA72AA82A42140130B6000310BC0D17
:10055800BD0DBE0DBF0DB60BAA2AFF30C607031886
:10056800C70AFF30C707C41FBA2ABB2A9A2AC00184
:10057800BF1FBF2AC02ADC2AFF303C05B600FF3067
:100588003D05B700FF303E05B8007F303F05B90094
:1005980039083804370436040319D32AD42AD72A49
:1005A800C001C00ADC2A421CDA2ADB2ADC2AD42A47
:1005B80040080319E02AE12A122B0130C207003053
:1005C80003180130C307003003180130C407003096
:1005D80003180130C507451CF22AF32A122B4208DA
:1005E800B6004308B7004408B8004508B900013010
:1005F800BA00390DB90CB80CB70CB60CBA0BFD2AF9
:100608003908C5003808C4003708C3003608C200D6
:100618000130C6070318C70A0030C7074708803AE1
:10062800FF0080307F02031D1B2BFF304602031C96
:100638001E2B1F2B2A2B7F3083120313C5008030FB
:10064800C4000030C3000030C2005B2B83120313C8
:100658004708803AFF0080307F02031D352B0130A8
:1006680046020318382B392B452B0030831203130D
:10067800C5000030C4000030C3000030C200BB0118
:100688005B2B831203134608C100FF30C205FF30FD
:10069800C3057F30C4050030C505411C542B552BBC
:1006A800562BC4174108B6000310360CC5003B088A
:1006B800B6003608C5044508B1004408B000430830
:1006C800AF004208AE000800831203134B088039BC
:1006D800D8004B08D0005007DA00CA1F742B752BBE
:1006E800762B5A145A0803197A2B7B2B8B2B5A0A10
:1006F800031D7F2B802B882B0030CB000030CA00D5
:100708000030C9000030C800CA17CB01932B003055
:10071800CB000030CA000030C9000030C8004F08C4
:100728008039D9005908580603199B2B9C2B9D2BFF
:1007380058174F08D0005007D900CE1FA42BA52B5F
:10074800A62B591459080319AA2BAB2BBB2B590AF2
:10075800031DAF2BB02BB82B0030CF000030CE00DC
:100768000030CD000030CC00CE17CF01C32B0030B5
:10077800CF000030CE000030CD000030CC005A0849
:1007880059020318C82BC92BEF2B581FCC2BCD2B84
:10079800D12B8030D0005008D8065A08DB00590801
:1007A800DA005B08D9004808DB004C08C8005B0881
:1007B800CC004908DB004D08C9005B08CD004A0899
:1007C800DB004E08CA005B08CE004B08DB004F0870
:1007D800CB005B08CF00DB015908D000D1015108DC
:1007E800D3005A085002D200031CD3035308803A9E
:1007F800FF0080307F02031D032C1A305202031CB5
:10080800062C072C3E2C831203134B084A04490478
:100818004804031D102C122C0130132C0030DB006F
:100828000030CB000030CA000030C9000030C800DA
:100838005908DA00462C5B1C222C232C2A2C5B0836
:10084800D0000310500C0138DB002C2C0310DB0CFB
:10085800481C2F2C302C312CDB170130D0004B0DCD
:10086800CB0CCA0CC90CC80CD00B332C0130D000EF
:100878005008DA078312031359085A02031C452C3F
:10088800462C1F2C581B492C4A2C932C5A08031D04
:100898004E2C4F2C582C0030CB000030CA000030B2
:1008A800C9000030C800BF2D4C08C8074D08031107
:1008B8000318013E0319612CC9074E0803110318D8
:1008C800013E0319682CCA074F0803110318013E9B
:1008D80003196F2CCB074B1C722C732C472D5B1CF8
:1008E800762C772C7E2C5B08D0000310500C013836
:1008F800DB00802C0310DB0C481C832C842C852CFB
:10090800DB170130D0004B0DCB0CCA0CC90CC80C3E
:10091800D00B872C0130D0005008DA07472D4B0840
:10092800803AFF004F08803A7F02031DA52C4E082D
:100938004A02031DA52C4D084902031DA52C4C088D
:1009480048020318A82CA92C012DFF30D000FF3035
:10095800D100FF30D200FF30D3004C08D4004D083E
:10096800D5004E08D6004F08D7004808D4024908D9
:10097800031C490FC02CC12CD5024A08031C4A0F7E
:10098800C62CC72CD6024B08031C4B0FCC2CCD2CE5
:10099800D7025408D00755080318550FD42CD52C66
:1009A800D10756080318560FDA2CDB2CD207570844
:1009B8000318570AD3075308CB005208CA00510836
:1009C800C9005008C8008030D0005008D806DB099C
:1009D800DB0A5B08031DF12CF22C0F2D0130C80730
:1009E800003003180130C907003003180130CA0766
:1009F800003003180130CB070F2D4C08C8024D08F2
:100A0800031C4D0FC9024E08031C4E0FCA024F08A3
:100A1800031C4F0FCB024B084A0449044804031D2A
:100A2800162D172D432D5B08031D1B2D1C2D432D43
:100A38000030CB000030CA000030C9000030C800C8
:100A4800BF2D0130D0000310C80DC90DCA0DCB0D44
:100A5800D00B272DDB1F312D322D332D48145B1C75
:100A6800362D372D3A2D0314DB0D3C2D0310DB0DED
:100A78005A080319402D412D432D0130DA02CA1FAF
:100A8800462D472D252DD901DB1F4B2D4C2D5A2DD9
:100A98005B087F390319512D522D552DD901D90ADB
:100AA8005A2D481C582D592D5A2D522D59080319C5
:100AB8005E2D5F2D932D0130C807003003180130DB
:100AC800C907003003180130CA0700300318013085
:100AD800CB074B1C702D712D932D4808D000490869
:100AE800D1004A08D2004B08D3000130D400530D7E
:100AF800D30CD20CD10CD00CD40B7B2D5308CB00CB
:100B08005208CA005108C9005008C8005A0A0319F7
:100B18008E2D8F2D932D0130D0005008DA075A0AF8
:100B28000319972D982D9D2D5A08031D9C2D9D2D39
:100B3800AB2D0030CB000030CA000030C9000030B7
:100B4800C8005A08031DA92DAA2DAB2DD8015A1C7F
:100B5800AE2DAF2DB12DCA17B52D7F30D00050085E
:100B6800CA055A08D0000310500CCB00D81FBD2D61
:100B7800BE2DBF2DCB17080083120313A800280829
:100B88000319C72DC82DDC2DA31FCB2DCC2DDC2D93
:100B98002009AA002109AB002209AC002309AD00F5
:100BA800AA0A0319AB0A0319AC0A0319AD0AE42D02
:100BB8002308AD002208AC002108AB002008AA00D9
:100BC8002308220421042004031DEB2DEC2DF52D10
:100BD8000030A3000030A2000030A1000030A000C7
:100BE800792E9630A900052E0130A4002408A90703
:100BF80001300310AD0CAC0CAB0CAA0CFF3E031D6E
:100C0800FD2DFE302D05031D0A2E0B2EF82D272E47
:100C18000130A4002408A9070130AA0700300318EE
:100C28000130AB07003003180130AC07003003185F
:100C38000130AD0701300310AD0CAC0CAB0CAA0CA5
:100C4800FF3E031D1F2EFF302D05031D2C2E2D2EBC
:100C58000C2E392E0130A9020130A4000310AA0D70
:100C6800AB0DAC0DAD0DA40B322EAC1B3C2E3D2EA6
:100C7800432E023029020318422E432E2E2E291805
:100C8800462E472E4F2EFF30AA05FF30AB057F308A
:100C9800AC05FF30AD050310A90C2908A400A50177
:100CA800A601A70118300310A40DA50DA60DA70DC8
:100CB800FF3E031D572E2408AA042508AB04260866
:100CC800AC042708AD04280803196B2E6C2E712E6E
:100CD800A31F6F2E702E712EAD172D08A3002C08A0
:100CE800A2002B08A1002A08A0000800C330831224
:100CF80003139F05073083120313EB00EB0B822EBF
:100D08000000831203139F149F188B2E8C2E882E9D
:100D18000C130A128A1129270A128A11831603133F
:100D2800280883120313EB00EB0E17086B06CF3964
:100D38006B06970083160313260883120313950086
:100D48001F08C33904389F00073083120313EB00D0
:100D5800EB0BAC2E0000831203139F149F18B52EC3
:100D6800B62EB22E0C130A128A1129270A128A11DA
:100D7800831603132808013983120313EB00EB0EC3
:100D88001D086B06EF396B069D00831603132908AF
:100D980083120313EC00831603132808831203132A
:100DA800EB000310EC0CEB0C6B080139ED00ED0EB9
:100DB800ED0D1D086D06DF396D069D0083160313C2
:100DC8002608831203139B001F08C33908389F00A5
:100DD800073083120313EB00EB0BF02E0000831295
:100DE80003139F149F18F92EFA2EF62E0C130A12CD
:100DF8008A1507260A128A11073083120313EB009B
:100E0800EB0B042F0000831203131F08C3390C389F
:100E18009F00073083120313EB00EB0B112F000028
:100E2800831203139F149F181A2F1B2F172F0C13AD
:100E38000A128A15F6260A128A110730831203133A
:100E4800EB00EB0B252F00000800831603131E0888
:100E580083120313E60006300310E60CFF3E031D61
:100E6800302F1E08E700E8010310E70DE80D031016
:100E7800E70DE80D66086707E90000300318013040
:100E88006807EA006908FB006A08FC007B08A00004
:100E98007C08A100A201A30100300A128A11C02512
:100EA8000A128A11831203132308B5002208B4001A
:100EB8002108B3002008B2003D30B1007930B000FD
:100EC800DB30AF002330AE000A128A1123200A1249
:100ED8008A11831203133108CF003008CE002F087F
:100EE800CD002E08CC004230CB007C30CA00003048
:100EF800C9000030C8000A128A1168230A128A1130
:100F0800831203134B08DF004A08DE004908DD009E
:100F18004808DC000A128A157E260A128A118312F2
:100F280003135D0883160313AB00831203135C08D5
:100F380083160313AA0003302A05A80000302B05E6
:100F4800A9002B0883120313E700831603132A084A
:100F580083120313E6000310E70CE60C0310E70CFA
:100F6800E60CFF30660583160313A60000308312D3
:100F78000313670583160313A700080083120313DE
:100F88000510831603130514831603170814831218
:100F98000313851083160313851483160317881407
:100FA80083120313051183160313051583160317FC
:100FB80008158312031385118316031385158316E9
:100FC80003178815831203139F131F178316031320
:100FD8009F121F129F13831203131F1407308312CB
:0C0FE8000313A000A00BF62F000008006F
:101A20008B150B10C030831603139600C030950041
:101A30008113080083160317890183160313860197
:101A400087018801831203138701880108008B171F
:101A50008B160B1183160313811281110108F839BB
:101A600003388100831203138101080083160313D6
:101A70008714FF3092000C30831203139D008C10EA
:101A80008C1C432D442D402D831603138710080012
:101A9000CF30831203139005901190101014EF3083
:101AA0008F0082308E000B17831603130C148312E1
:101AB00003130C100800831603130715FF30920060
:101AC0000C308312031397008C100330920412150C
:101AD0008C1C6B2D6C2D682D8316031307110800C9
:101AE00083120313A800A401A5012008A200A301EA
:101AF0002208A6002308A700281C7F2D802D862DF4
:101B00002608A4070318A50A2708A5070130031013
:101B1000A60DA70DFF3E031D872D0310A80C280856
:101B2000031D932D942D7C2D2508A1002408A000D1
:101B3000080083120313A00007302006031DA12D07
:101B4000A22DA62D7030831603138F040630831246
:101B50002006031DAC2DAD2DB32D831603130F08E6
:101B60008F3960388F00033083122006031DB92D92
:101B7000BA2DC02D831603130F088F3930388F000C
:101B8000831603130F1408000A128A151A250A1265
:101B90008A1503300A128A1599250A128A150A1223
:101BA0008A11C2270A128A150A128A155B250A129F
:101BB0008A150A128A1536250A128A150A128A15FA
:101BC00027250A128A150A128A1548250A128A152B
:101BD0000A128A1510250A128A15F130831603138A
:101BE000A4000030A5008330A200FF30A3000A1239
:101BF0008A117A260A128A15523083120313EE00D4
:101C0000EE0B002E0000F72D0A128A110C28831605
:101C100003131E0883120313E60006300310E60CBC
:101C2000FF3E031D0E2E1E08E700E8010310E70D1E
:101C3000E80D0310E70DE80D66086707E9000030BE
:101C4000031801306807EA006908FB006A08FC0015
:101C50007B08A0007C08A100A201A30100300A12A9
:101C60008A11C0250A128A15831203132308B500AE
:101C70002208B4002108B3002008B2003C30B100B3
:101C80008B30B0004330AF009630AE000A128A119C
:101C900023200A128A15831203133108CF0030085B
:101CA000CE002F08CD002E08CC004330CB00623090
:101CB000CA000030C9000030C8000A128A11682327
:101CC0000A128A15831203134B08DF004A08DE004C
:101CD0004908DD004808DC000A128A157E260A122F
:101CE0008A15831203135D0883160313A50083125C
:101CF00003135C0883160313A40008000310831267
:101D000003135E0D5F0DE5006508031D882E892E07
:101D1000922E0030DF000030DE000030DD000030A9
:101D2000DC00F52E5C08E0005D08E1005E08E200E2
:101D30005F08E3001F300310E30CE20CE10CE00C41
:101D4000FF3E031D9B2E6008E400DE17FF30DC051C
:101D5000FF30DD05FF30DE050030DF059630E5029F
:101D6000E51FB32EB42ECE2E6508803A973E031899
:101D7000BA2EBB2EBC2E892E01300310DF0CDE0CD8
:101D8000DD0CDC0CFF3E031DBD2E0130E0006008C1
:101D9000E507031DCC2ECD2EBC2EE52E203065028E
:101DA000031CD32ED42EE02E892E0130E000031028
:101DB000DC0DDD0DDE0DDF0DE00BD72E0130E50271
:101DC0006508031DE42EE52ED52E64080319E92EBF
:101DD000EA2EF52EDC09DD09DE09DF09DC0A03192C
:101DE000DD0A0319DE0A0319DF0A0800831603134C
:101DF0001E0883120313E60006300310E60CFF3EB4
:101E0000031DFD2E1E08E700E8010310E70DE80D95
:101E10000310E70DE80D66086707E90000300318B6
:101E200001306807EA006908FB006A08FC007B08CB
:101E3000A0007C08A100A201A30100300A128A11AF
:101E4000C0250A128A15831203132308B50022083D
:101E5000B4002108B3002008B2003E30B100BD300C
:101E6000B0007030AF00A430AE000A128A112320F7
:101E70000A128A15831203133108CF003008CE00EE
:101E80002F08CD002E08CC004730CB007E30CA0092
:101E90000C30C9000030C8000A128A1168230A12E7
:101EA0008A15831203134B08DF004A08DE00490835
:101EB000DD004808DC000A128A157E260A128A15FF
:101EC000831203135D0883160313A3008312031305
:101ED0005C0883160313A2007B0883120313880097
:101EE00008000B1D742F752F8B2F83120313871D72
:101EF0007A2F7B2F832F8316031324098312031356
:101F0000810087118A2F8316031324088312031379
:101F1000810087150B11831203130C1C902F912F36
:101F2000DD2F071C942F952FCF2F83160313220824
:101F3000F0002308F100F201F3018130F400EF30EA
:101F4000F5000130F6000030F7007008F402710867
:101F5000031C710FAC2FAD2FF5027208031C720F1A
:101F6000B22FB32FF6027308031C730FB82FB92FCB
:101F7000F7020830F800770DF70CF60CF50CF40CAE
:101F8000F80BBB2F7408831203138F0083160313FF
:101F90002208813C831203138E000710DC2F831666
:101FA00003132308831203138F00831603132208DD
:101FB000831203138E0007140C100B1CE02FE12F6B
:101FC000F92F861BE42FE52FF82F1130F1003A305E
:101FD000F000F00BE92FF10BE92F0000831603133B
:101FE0002008013EA00021080318013E003EA10088
:101FF0000B107A088A00790E8300FE0E7E0E09000F
:08400000FF3FFF3FFF3FFF3FC0
:04400E00D420FF3F7C
:00000001FF
