:060000000A128A110C280F
:10000800FE00030EF0000A08F1000A128A15CD2D31
:100018000A128A110F28FA01FB0183120313E60161
:10002800E701E801E901EA01EB01EC01ED01EE016C
:10003800EF0183160313A001A101A201A30183010B
:100048000A128A11AD2F8312031329088039B300CD
:100058002908AE002E07B900A81F332834283528F0
:1000680039143908031939283A284928390A031D47
:100078003E283F2847280030A9000030A80000305B
:10008800A7000030A600A81751280030A9000030AA
:10009800A8000030A7000030A6002D088039AE0067
:1000A8002E08B3062D08AE002E07B400AC1F5D283D
:1000B8005E285F28341434080319632864287328D9
:1000C800340A031D6828692871280030AD00003003
:1000D800AC000030AB000030AA00AC177B28003021
:1000E800AD000030AC000030AB000030AA0034088E
:1000F80003197F28802885283908031D8428852826
:100108008E280030A9000030A8000030A700003079
:10011800A6006B2B2608F2002C080A128A15462620
:100128000A128A11730883120313BF007208BE00F3
:100138003E08AE00AF01B001B1013108B800300887
:10014800B7002F08B6002E08B5003F08AE00AF0173
:10015800B001B1013108BD003008BC002F08BB0058
:100168002E08BA002708F2002B080A128A1546261C
:100178000A128A11730883120313BF007208BE00A3
:100188003E08AE00AF01B001B1012E08B5072F0837
:1001980003110318013E0319D228B60730080311CA
:1001A8000318013E0319D928B707310803110318AA
:1001B800013E0319E028B8073F08AE00AF01B001BF
:1001C800B1012E08BA072F0803110318013E0319BD
:1001D800EE28BB07300803110318013E0319F52860
:1001E800BC07310803110318013E0319FC28BD0799
:1001F8002808F2002A080A128A1546260A128A11C5
:10020800730883120313BF007208BE003E08AE00D5
:10021800AF01B001B1012E08B5072F08031103186B
:10022800013E03191829B607300803110318013EC7
:1002380003191F29B707310803110318013E0319D1
:100248002629B8073F08AE00AF01B001B1012E085A
:10025800BA072F0803110318013E03193429BB07F5
:10026800300803110318013E03193B29BC07310864
:1002780003110318013E03194229BD070830AE00D7
:100288000310B50DB60DB70DB80DAE0B44292708F0
:10029800F2002A080A128A1546260A128A117308D9
:1002A80083120313BF007208BE003E08AE003F0869
:1002B800AF00B001B1012E08B5072F0803110318CC
:1002C800013E03196829B607300803110318013ED7
:1002D80003196F29B707310803110318013E0319E1
:1002E8007629B8072608F2002B080A128A1546262E
:1002F8000A128A11730883120313BF007208BE0022
:100308003E08AE003F08AF00B001B1012E08B507A6
:100318002F0803110318013E03199329B607300863
:1003280003110318013E03199A29B707310803116D
:100338000318013E0319A129B8070830AE000310BD
:10034800B50DB60DB70DB80DAE0BA3292608F200F2
:100358002A080A128A1546260A128A117308831275
:100368000313BF007208BE003E08AE003F08AF008E
:10037800B001B1012E08B5072F0803110318013E7B
:100388000319C729B607300803110318013E0319DA
:10039800CE29B707310803110318013E0319D529DF
:1003A800B8072708F2002C080A128A1546260A12EE
:1003B8008A11730883120313BF007208BE003E0837
:1003C800AE003F08AF00B001B1012E08BA072F08F0
:1003D80003110318013E0319F229BB073008031162
:1003E8000318013E0319F929BC0731080311031842
:1003F800013E0319002ABD072808F2002B080A123B
:100408008A1546260A128A11730883120313BF003D
:100418007208BE003E08AE003F08AF00B001B1014F
:100428002E08BA072F0803110318013E03191D2AC5
:10043800BB07300803110318013E0319242ABC071F
:10044800310803110318013E03192B2ABD07280898
:10045800F2002C080A128A1546260A128A11730815
:1004680083120313BF007208BE003E08AE003F08A7
:10047800AF00B001B10108300310AE0DAF0DB00DE3
:10048800B10DFF3E031D402A2E08BA072F0803119D
:100498000318013E0319512ABB073008031103183A
:1004A800013E0319582ABC07310803110318013EFD
:1004B80003195F2ABD073508AE003608AF003708B4
:1004C800B0003808B10018300310B10CB00CAF0CF4
:1004D800AE0CFF3E031D682A2E08BA072F08031129
:1004E8000318013E0319792ABB07300803110318C2
:1004F800013E0319802ABC07310803110318013E85
:100508000319872ABD070830AE000310B50DB60DD4
:10051800B70DB80DAE0B892A39083407AE00AF0104
:10052800AF0D2E08823EBE002F080318013EFF3E85
:10053800BF00BB2A0130AE000310BA0DBB0DBC0DC5
:10054800BD0DAE0BA02AB81FAA2AAB2AAC2A3A14B2
:100558000130AE000310B50DB60DB70DB80DAE0BDA
:10056800AE2AFF30BE070318BF0AFF30BF07BC1F03
:10057800BE2ABF2A9E2AB401B81FC32AC42AE02A69
:10058800FF303505AE00FF303605AF00FF303705C8
:10059800B0007F303805B100310830042F042E0434
:1005A8000319D72AD82ADB2AB401B40AE02A3A1C4C
:1005B800DE2ADF2AE02AD82A34080319E42AE52AA1
:1005C800162B0130BA07003003180130BB07003082
:1005D80003180130BC07003003180130BD073D1C6B
:1005E800F62AF72A162B3A08AE003B08AF003C085B
:1005F800B0003D08B1000130B200310DB10CB00CB3
:10060800AF0CAE0CB20B012B3108BD003008BC009A
:100618002F08BB002E08BA000130BE070318BF0A16
:100628000030BF073F08803AFF0080307F02031D7B
:100638001F2BFF303E02031C222B232B2E2B7F3037
:1006480083120313BD008030BC000030BB000030B3
:10065800BA005F2B831203133F08803AFF008030F3
:100668007F02031D392B01303E0203183C2B3D2B22
:10067800492B003083120313BD000030BC0000304A
:10068800BB000030BA00B3015F2B831203133E088E
:10069800B900FF30BA05FF30BB057F30BC0500301C
:1006A800BD05391C582B592B5A2BBC173908AE00DD
:1006B80003102E0CBD003308AE002E08BD043D0803
:1006C800A9003C08A8003B08A7003A08A6000800B3
:1006D8008312031343088039D0004308C800480731
:1006E800D200C21F782B792B7A2B52145208031987
:1006F8007E2B7F2B8F2B520A031D832B842B8C2B55
:100708000030C3000030C2000030C1000030C0001B
:10071800C217C301972B0030C3000030C20000305D
:10072800C1000030C00047088039D1005108500688
:1007380003199F2BA02BA12B50174708C800480767
:10074800D100C61FA82BA92BAA2B51145108031995
:10075800AE2BAF2BBF2B510A031DB32BB42BBC2BD5
:100768000030C7000030C6000030C5000030C400AB
:10077800C617C701C72B0030C7000030C6000030BD
:10078800C5000030C400520851020318CC2BCD2BF1
:10079800F32B501FD02BD12BD52B8030C800480805
:1007A800D0065208D3005108D2005308D10040089F
:1007B800D3004408C0005308C4004108D3004508CA
:1007C800C1005308C5004208D3004608C2005308B8
:1007D800C6004308D3004708C3005308C700D30125
:1007E8005108C800C9014908CB0052084802CA008C
:1007F800031CCB034B08803AFF0080307F02031DA7
:10080800072C1A304A02031C0A2C0B2C422C831288
:1008180003134308420441044004031D142C162CFE
:100828000130172C0030D3000030C3000030C20064
:100838000030C1000030C0005108D2004A2C531CBF
:10084800262C272C2E2C5308C8000310480C0138DE
:10085800D300302C0310D30C401C332C342C352CF3
:10086800D3170130C800430DC30CC20CC10CC00C17
:10087800C80B372C0130C8004808D207831203136D
:1008880051085202031C492C4A2C232C501B4D2C76
:100898004E2C972C5208031D522C532C5C2C0030E4
:1008A800C3000030C2000030C1000030C000C32DBA
:1008B8004408C007450803110318013E0319652CB5
:1008C800C107460803110318013E03196C2CC2071F
:1008D800470803110318013E0319732CC307431C6F
:1008E800762C772C4B2D531C7A2C7B2C822C53087E
:1008F800C8000310480C0138D300842C0310D30C13
:10090800401C872C882C892CD3170130C800430D34
:10091800C30CC20CC10CC00CC80B8B2C0130C80016
:100928004808D2074B2D4308803AFF004708803A11
:100938007F02031DA92C46084202031DA92C450865
:100948004102031DA92C440840020318AC2CAD2C0D
:10095800052DFF30C800FF30C900FF30CA00FF3046
:10096800CB004408CC004508CD004608CE00470817
:10097800CF004008CC024108031C410FC42CC52CF1
:10098800CD024208031C420FCA2CCB2CCE024308CE
:10099800031C430FD02CD12CCF024C08C8074D089C
:1009A80003184D0FD82CD92CC9074E0803184E0F21
:1009B800DE2CDF2CCA074F0803184F0ACB074B0859
:1009C800C3004A08C2004908C1004808C000803076
:1009D800C8004808D006D309D30A5308031DF52CCC
:1009E800F62C132D0130C007003003180130C10761
:1009F800003003180130C207003003180130C30764
:100A0800132D4408C0024508031C450FC1024608BF
:100A1800031C460FC2024708031C470FC3024308C2
:100A2800420441044004031D1A2D1B2D472D530871
:100A3800031D1F2D202D472D0030C3000030C2009C
:100A48000030C1000030C000C32D0130C8000310C1
:100A5800C00DC10DC20DC30DC80B2B2DD31F352DD5
:100A6800362D372D4014531C3A2D3B2D3E2D0314A3
:100A7800D30D402D0310D30D52080319442D452DD5
:100A8800472D0130D202C21F4A2D4B2D292DD101ED
:100A9800D31F4F2D502D5E2D53087F390319552D27
:100AA800562D592DD101D10A5E2D401C5C2D5D2D8E
:100AB8005E2D562D51080319622D632D972D013097
:100AC800C007003003180130C10700300318013097
:100AD800C207003003180130C307431C742D752D5D
:100AE800972D4008C8004108C9004208CA004308B9
:100AF800CB000130CC004B0DCB0CCA0CC90CC80C78
:100B0800CC0B7F2D4B08C3004A08C2004908C1001E
:100B18004808C000520A0319922D932D972D0130D1
:100B2800C8004808D207520A03199B2D9C2DA12DF5
:100B38005208031DA02DA12DAF2D0030C300003099
:100B4800C2000030C1000030C0005208031DAD2DA6
:100B5800AE2DAF2DD001521CB22DB32DB52DC2171D
:100B6800B92D7F30C8004808C2055208C8000310D4
:100B7800480CC300D01FC12DC22DC32DC3170800B8
:100B880083120313A00020080319CB2DCC2DE02DD0
:100B9800F51FCF2DD02DE02D7209A2007309A300F7
:100BA8007409A4007509A500A20A0319A30A031968
:100BB800A40A0319A50AE82D7508A5007408A4005D
:100BC8007308A3007208A200750874047304720401
:100BD800031DEF2DF02DF92D0030F5000030F40045
:100BE8000030F3000030F2007D2E9630A100092E6F
:100BF8000130F6007608A10701300310A50CA40CFB
:100C0800A30CA20CFF3E031D012EFE302505031D7B
:100C18000E2E0F2EFC2D2B2E0130F6007608A10784
:100C28000130A207003003180130A3070030031871
:100C38000130A407003003180130A5070130031064
:100C4800A50CA40CA30CA20CFF3E031D232EFF3001
:100C58002505031D302E312E102E3D2E0130A10208
:100C68000130F6000310A20DA30DA40DA50DF60B7F
:100C7800362EA41B402E412E472E02302102031887
:100C8800462E472E322E21184A2E4B2E532EFF3039
:100C9800A205FF30A3057F30A405FF30A50503108A
:100CA800A10C2108F600F701F801F901183003102A
:100CB800F60DF70DF80DF90DFF3E031D5B2E7608B6
:100CC800A2047708A3047808A4047908A5042008D6
:100CD80003196F2E702E752EF51F732E742E752E18
:100CE800A5172508F5002408F4002308F3002208B6
:100CF800F2000800C330831203139F0503308312E8
:100D08000313E300E30B862E831203139F149F182B
:100D18008E2E8F2E8B2E0C130A128A1126270A125A
:100D28008A11831203136C08E300E30E17086306A5
:100D3800CF39630697006A08950028308312031399
:100D4800E300E30BA52EA82E831203131F08C33953
:100D580004389F00033083120313E300E30BB22E21
:100D6800831203139F149F18BA2EBB2EB72E0C1391
:100D78000A128A1126270A128A11831203136C0891
:100D88000139E300E30E1D086306EF3963069D0091
:100D98006D08E4006C08E3000310E40CE30C63083E
:100DA8000139E500E50EE50D1D086506DF39650624
:100DB8009D006A089B00283083120313E300E30BAD
:100DC800E32EE62E831203131F08C33908389F0049
:100DD800033083120313E300E30BF02E8312031393
:100DE8009F149F18F82EF92EF52E0C130A128A1547
:100DF8009C260A128A11283083120313E300E30B9E
:100E0800032F062F831203131F08C3390C389F00C2
:100E1800033083120313E300E30B102F8312031331
:100E28009F149F18182F192F152F0A128A15852716
:100E38000A128A11283083120313E300E30B222FCE
:100E4800252F0800831603131E0883120313DE00E0
:100E580006300310DE0CFF3E031D2D2F1E08DF0099
:100E6800E0010310DF0DE00D0310DF0DE00D5E085B
:100E78005F07E1000030031801306007E2006108F5
:100E8800EE006208EF006E08F2006F08F300F4014C
:100E9800F50100300A128A11C4250A128A11750850
:100EA80083120313AD007408AC007308AB0072081A
:100EB800AA003D30A9000730A8002B30A700023057
:100EC800A6000A128A1127200A128A118312031314
:100ED8002908C7002808C6002708C5002608C40036
:100EE8004230C3000030C2000030C1000030C000F2
:100EF8000A128A116C230A128A11831203134308F7
:100F0800D7004208D6004108D5004008D4000A128C
:100F18008A150D270A128A11831203135508FB003C
:100F28005408FA0003307A05EC0000307B05ED0028
:100F38007B08DF007A08DE000310DF0CDE0C0310EC
:100F4800DF0CDE0CFF305E05EA0000305F05EB00C9
:100F580008000A128A15C0250A128A1103300A12DB
:100F68008A151F260A128A110A128A156F260A1272
:100F78008A110A128A1500260A128A110A128A157B
:100F8800E6250A128A110A128A11E9270A128A1119
:100F980083160313A201A301FF3083120313E60093
:100FA8000030E70083160313A001A1010A128A1179
:100FB8007E260A128A11033083160313A400A40B99
:100FC800E32FDA2F0A128A110C288B178B160B11B4
:100FD80083160313811281110108F839033881003F
:080FE8008312031381010800CC
:101B800083160317890183120313850187018801D6
:101B9000831603138801870108000B1DD02DD12D5A
:101BA000DF2D83120313871DD62DD72DDB2D66095C
:101BB00081008711DE2D6608810087150B117108E1
:101BC0008A00700E8300FE0E7E0E0900831603133A
:101BD00087149B3092000F30831203139D046C0C0A
:101BE000031C9D1203189D161D166A089B008C107D
:101BF0008C1CFB2DFC2DF82D831603138710080079
:101C00008316031307159B3092000C3083120313C5
:101C100097006C08F200F20E17087206CF397206B0
:101C200097006A0895008C100330920412158C1CE2
:101C30001A2E1B2E172E8316031307110800F2000D
:101C400007307206031D252E262E2A2E703083168D
:101C500003138F0406307206031D2F2E302E362EEE
:101C6000831603130F088F3960388F000330720614
:101C7000031D3B2E3C2E422E831603130F088F3973
:101C800030388F00831603130F14080083120313D8
:101C9000A400A001A1017208F400F5017408A200DB
:101CA0007508A300241C552E562E5C2E2208A00772
:101CB0000318A10A2308A10701300310A20DA30DE8
:101CC000FF3E031D5D2E0310A40C2408031D692E86
:101CD0006A2E522E2108F3002008F2000800831615
:101CE00003178901831603130514831603170814B9
:101CF000831603138514831603178814831603139E
:101D00000515831603170815831603138515831607
:101D100003178815831203139F131F1783160313CA
:101D20009F121F129F13831203131F140330F2001C
:101D3000F20B982E9B2E0800831603131E088312A5
:101D40000313DE0006300310DE0CFF3E031DA32E3E
:101D50001E08DF00E0010310DF0DE00D0310DF0DB2
:101D6000E00D5E085F07E1000030031801306007F6
:101D7000E2006108FA006208FB007A08F2007B08C2
:101D8000F300F401F50100300A128A11C4250A1289
:101D90008A15750883120313AD007408AC0073082C
:101DA000AB007208AA003E30A9001C30A8000E301B
:101DB000A700BF30A6000A128A1127200A128A152E
:101DC000831203132908C7002808C6002708C50086
:101DD0002608C4004230C300C630C2000030C10033
:101DE0000030C0000A128A116C230A128A1583126D
:101DF00003134308D7004208D6004108D500400825
:101E0000D4000A128A150D270A128A1583120313A9
:101E10005508E7005408E600080003108312031376
:101E2000560D570DDD005D08031D172F182F212FAC
:101E30000030D7000030D6000030D5000030D4008C
:101E4000842F5408D8005508D9005608DA005708DE
:101E5000DB001F300310DB0CDA0CD90CD80CFF3E72
:101E6000031D2A2F5808DC00D617FF30D405FF3099
:101E7000D505FF30D6050030D7059630DD02DD1FD1
:101E8000422F432F5D2F5D08803A973E0318492F5C
:101E90004A2F4B2F182F01300310D70CD60CD50C1E
:101EA000D40CFF3E031D4C2F0130D8005808DD072D
:101EB000031D5B2F5C2F4B2F742F20305D02031C02
:101EC000622F632F6F2F182F0130D8000310D40D0D
:101ED000D50DD60DD70DD80B662F0130DD025D086C
:101EE000031D732F742F642F5C080319782F792F2B
:101EF000842FD409D509D609D709D40A0319D50ADC
:101F00000319D60A0319D70A0800831603131E08FB
:101F100083120313DE0006300310DE0CFF3E031DA8
:101F20008C2F1E08DF00E0010310DF0DE00D031011
:101F3000DF0DE00D5E085F07E1000030031801309F
:101F40006007E2006108FA006208FB007A08F2000C
:101F50007B08F300F401F50100300A128A11C42550
:101F60000A128A15750883120313AD007408AC00B9
:101F70007308AB007208AA004030A9001B30A8000B
:101F80009630A700D130A6000A128A1127200A1223
:101F90008A15831203132908C7002808C6002708DA
:101FA000C5002608C4004730C3007630C2003C306C
:101FB000C1000030C0000A128A116C230A128A156F
:101FC000831203134308D7004208D6004108D50006
:101FD0004008D4000A128A150D270A128A158312A6
:101FE0000313550883160313A10083120313540827
:101FF00083160313A0007A088312031388000800D5
:08400000FF3FFF3FFF3FFF3FC0
:04400E00D420FF3F7C
:00000001FF
