:060000000A128A110C280F
:10000800FE00030EF0000A08F1000A128A15D12D2D
:100018000A128A110F28FA01FB0183120313E8015F
:10002800E901EA01EB01EC01ED01EE01EF018316B4
:100038000313A001A101A201A301A401A501A60126
:10004800A701A801A901AA01AB0183010A128A1517
:100058009E2E8312031329088039B3002908AE00A5
:100068002E07B900A81F39283A283B28391439081F
:1000780003193F2840284F28390A031D44284528DA
:100088004D280030A9000030A8000030A70000303B
:10009800A600A81757280030A9000030A800003093
:1000A800A7000030A6002D088039AE002E08B30640
:1000B8002D08AE002E07B400AC1F632864286528FD
:1000C80034143408031969286A287928340A031D66
:1000D8006E286F2877280030AD000030AC00003063
:1000E800AB000030AA00AC1781280030AD0000300A
:1000F800AC000030AB000030AA0034080319852892
:1001080086288B283908031D8A288B2894280030D4
:10011800A9000030A8000030A7000030A600712B0D
:100128002608F2002C080A128A1519260A128A11C2
:10013800730883120313BF007208BE003E08AE00A6
:10014800AF01B001B1013108B8003008B7002F087D
:10015800B6002E08B5003F08AE00AF01B001B101EE
:100168003108BD003008BC002F08BB002E08BA00BB
:100178002708F2002B080A128A1519260A128A1172
:10018800730883120313BF007208BE003E08AE0056
:10019800AF01B001B1012E08B5072F0803110318EC
:1001A800013E0319D828B607300803110318013E89
:1001B8000319DF28B707310803110318013E031993
:1001C800E628B8073F08AE00AF01B001B1012E081C
:1001D800BA072F0803110318013E0319F428BB07B7
:1001E800300803110318013E0319FB28BC07310826
:1001F80003110318013E03190229BD072808F2005C
:100208002A080A128A1519260A128A1173088312F3
:100218000313BF007208BE003E08AE00AF01B00174
:10022800B1012E08B5072F0803110318013E031961
:100238001E29B607300803110318013E03192529A2
:10024800B707310803110318013E03192C29B80711
:100258003F08AE00AF01B001B1012E08BA072F0860
:1002680003110318013E03193A29BB07300803118B
:100278000318013E03194129BC073108031103186B
:10028800013E03194829BD070830AE000310B50D1B
:10029800B60DB70DB80DAE0B4A292708F2002A088B
:1002A8000A128A1519260A128A117308831203136F
:1002B800BF007208BE003E08AE003F08AF00B001A4
:1002C800B1012E08B5072F0803110318013E0319C1
:1002D8006E29B607300803110318013E0319752962
:1002E800B707310803110318013E03197C29B80721
:1002F8002608F2002B080A128A1519260A128A11F2
:10030800730883120313BF007208BE003E08AE00D4
:100318003F08AF00B001B1012E08B5072F0803113F
:100328000318013E03199929B60730080311031869
:10033800013E0319A029B707310803110318013E2C
:100348000319A729B8070830AE000310B50DB60D7C
:10035800B70DB80DAE0BA9292608F2002A080A1213
:100368008A1519260A128A11730883120313BF000B
:100378007208BE003E08AE003F08AF00B001B101F0
:100388002E08B5072F0803110318013E0319CD29BC
:10039800B607300803110318013E0319D429B7071B
:1003A800310803110318013E0319DB29B807270890
:1003B800F2002C080A128A1519260A128A117308E3
:1003C80083120313BF007208BE003E08AE003F0848
:1003D800AF00B001B1012E08BA072F0803110318A6
:1003E800013E0319F829BB07300803110318013E21
:1003F8000319FF29BC07310803110318013E03192B
:10040800062ABD072808F2002B080A128A151926A1
:100418000A128A11730883120313BF007208BE0000
:100428003E08AE003F08AF00B001B1012E08BA0780
:100438002F0803110318013E0319232ABB073008AC
:1004480003110318013E03192A2ABC0731080311B6
:100458000318013E0319312ABD072808F2002C08A9
:100468000A128A1519260A128A11730883120313AD
:10047800BF007208BE003E08AE003F08AF00B001E2
:10048800B10108300310AE0DAF0DB00DB10DFF3E38
:10049800031D462A2E08BA072F0803110318013E28
:1004A8000319572ABB07300803110318013E031923
:1004B8005E2ABC07310803110318013E0319652A97
:1004C800BD073508AE003608AF003708B000380859
:1004D800B10018300310B10CB00CAF0CAE0CFF3EDD
:1004E800031D6E2A2E08BA072F0803110318013EB0
:1004F80003197F2ABB07300803110318013E0319AB
:10050800862ABC07310803110318013E03198D2AF6
:10051800BD070830AE000310B50DB60DB70DB80D08
:10052800AE0B8F2A39083407AE00AF01AF0D2E0885
:10053800823EBE002F080318013EFF3EBF00C12ABD
:100548000130AE000310BA0DBB0DBC0DBD0DAE0BD6
:10055800A62AB81FB02AB12AB22A3A140130AE002E
:100568000310B50DB60DB70DB80DAE0BB42AFF309C
:10057800BE070318BF0AFF30BF07BC1FC42AC52A1D
:10058800A42AB401B81FC92ACA2AE62AFF303505A9
:10059800AE00FF303605AF00FF303705B0007F30C2
:1005A8003805B100310830042F042E040319DD2A60
:1005B800DE2AE12AB401B40AE62A3A1CE42AE52A2A
:1005C800E62ADE2A34080319EA2AEB2A1C2B013012
:1005D800BA07003003180130BB0700300318013098
:1005E800BC07003003180130BD073D1CFC2AFD2A5A
:1005F8001C2B3A08AE003B08AF003C08B0003D0891
:10060800B1000130B200310DB10CB00CAF0CAE0C22
:10061800B20B072B3108BD003008BC002F08BB0007
:100628002E08BA000130BE070318BF0A0030BF0702
:100638003F08803AFF0080307F02031D252BFF30E2
:100648003E02031C282B292B342B7F3083120313E3
:10065800BD008030BC000030BB000030BA00652B04
:10066800831203133F08803AFF0080307F02031D86
:100678003F2B01303E020318422B432B4F2B0030F7
:1006880083120313BD000030BC000030BB000030F3
:10069800BA00B301652B831203133E08B900FF307B
:1006A800BA05FF30BB057F30BC050030BD05391CDD
:1006B8005E2B5F2B602BBC173908AE0003102E0C85
:1006C800BD003308AE002E08BD043D08A9003C0853
:1006D800A8003B08A7003A08A600080083120313E5
:1006E80043088039D0004308C8004807D200C21F19
:1006F8007E2B7F2B802B521452080319842B852BB9
:10070800952B520A031D892B8A2B922B0030C3008C
:100718000030C2000030C1000030C000C217C30161
:100728009D2B0030C3000030C2000030C1000030F3
:10073800C00047088039D100510850060319A52B7D
:10074800A62BA72B50174708C8004807D100C61F7B
:10075800AE2BAF2BB02B511451080319B42BB52B6A
:10076800C52B510A031DB92BBA2BC22B0030C70069
:100778000030C6000030C5000030C400C617C701ED
:10078800CD2B0030C7000030C6000030C500003057
:10079800C400520851020318D22BD32BF92B501F37
:1007A800D62BD72BDB2B8030C8004808D006520840
:1007B800D3005108D2005308D1004008D3004408A0
:1007C800C0005308C4004108D3004508C1005308BD
:1007D800C5004208D3004608C2005308C6004308B3
:1007E800D3004708C3005308C700D3015108C80005
:1007F800C9014908CB0052084802CA00031CCB03B0
:100808004B08803AFF0080307F02031D0D2C1A3000
:100818004A02031C102C112C482C83120313430882
:10082800420441044004031D1A2C1C2C01301D2CC9
:100838000030D3000030C3000030C2000030C100D7
:100848000030C0005108D200502C531C2C2C2D2CE9
:10085800342C5308C8000310480C0138D300362C38
:100868000310D30C401C392C3A2C3B2CD3170130E5
:10087800C800430DC30CC20CC10CC00CC80B3D2CE6
:100888000130C8004808D2078312031351085202E6
:10089800031C4F2C502C292C501B532C542C9D2CB2
:1008A8005208031D582C592C622C0030C30000300C
:1008B800C2000030C1000030C000C92D4408C00784
:1008C800450803110318013E03196B2CC10746089C
:1008D80003110318013E0319722CC20747080311BC
:1008E8000318013E0319792CC307431C7C2C7D2C6B
:1008F800512D531C802C812C882C5308C8000310C0
:10090800480C0138D3008A2C0310D30C401C8D2CC2
:100918008E2C8F2CD3170130C800430DC30CC20C8A
:10092800C10CC00CC80B912C0130C8004808D20774
:10093800512D4308803AFF004708803A7F02031D83
:10094800AF2C46084202031DAF2C45084102031D87
:10095800AF2C440840020318B22CB32C0B2DFF30E7
:10096800C800FF30C900FF30CA00FF30CB00440880
:10097800CC004508CD004608CE004708CF00400807
:10098800CC024108031C410FCA2CCB2CCD024208D3
:10099800031C420FD02CD12CCE024308031C430F5A
:1009A800D62CD72CCF024C08C8074D0803184D0F7A
:1009B800DE2CDF2CC9074E0803184E0FE42CE52C5B
:1009C800CA074F0803184F0ACB074B08C3004A0849
:1009D800C2004908C1004808C0008030C800480863
:1009E800D006D309D30A5308031DFB2CFC2C192D60
:1009F8000130C007003003180130C1070030031868
:100A08000130C207003003180130C307192D44080C
:100A1800C0024508031C450FC1024608031C460FC7
:100A2800C2024708031C470FC3024308420441049B
:100A38004004031D202D212D4D2D5308031D252D68
:100A4800262D4D2D0030C3000030C2000030C100FB
:100A58000030C000C92D0130C8000310C00DC10D01
:100A6800C20DC30DC80B312DD31F3B2D3C2D3D2D81
:100A78004014531C402D412D442D0314D30D462DF5
:100A88000310D30D520803194A2D4B2D4D2D01305B
:100A9800D202C21F502D512D2F2DD101D31F552DFC
:100AA800562D642D53087F3903195B2D5C2D5F2D5E
:100AB800D101D10A642D401C622D632D642D5C2D5B
:100AC80051080319682D692D9D2D0130C00700308C
:100AD80003180130C107003003180130C207003085
:100AE80003180130C307431C7A2D7B2D9D2D400828
:100AF800C8004108C9004208CA004308CB000130B9
:100B0800CC004B0DCB0CCA0CC90CC80CCC0B852DDA
:100B18004B08C3004A08C2004908C1004808C00081
:100B2800520A0319982D992D9D2D0130C8004808A7
:100B3800D207520A0319A12DA22DA72D5208031D71
:100B4800A62DA72DB52D0030C3000030C2000030FF
:100B5800C1000030C0005208031DB32DB42DB52DBF
:100B6800D001521CB82DB92DBB2DC217BF2D7F3017
:100B7800C8004808C2055208C8000310480CC30042
:100B8800D01FC72DC82DC92DC3170800C330831225
:100B980003139F05033083120313E300E30BD22DE5
:100BA800831203139F149F18DA2DDB2DD72D0C13F6
:100BB800831603131E0883120313E3000630031081
:100BC800E30CFF3E031DE32D1E08E400E5010310BE
:100BD800E40DE50D0310E40DE50D63086407E60078
:100BE8000030031801306507E70066088316031311
:100BF800AA0083120313670883160313AB002A089D
:100C0800F2002B08F300F401F50100300A128A15EE
:100C180046270A128A11750883120313AD00740857
:100C2800AC007308AB007208AA003D30A900073079
:100C3800A8002B30A7000230A6000A128A112D2026
:100C48000A128A11831203132908C7002808C6004C
:100C58002708C5002608C4004230C3000030C2007F
:100C68000030C1000030C0000A128A1172230A1233
:100C78008A11831203134308D7004208D60041089B
:100C8800D5004008D4000A128A1169270A128A116D
:100C9800831203135508FB005408FA0003307A0541
:100CA800EE0000307B05EF007B08E4007A08E300E3
:100CB8000310E40CE30C0310E40CE30CFF306305B1
:100CC800EC0000306405ED006E08E300E30E170841
:100CD8006306CF39630697006C08950028308312A5
:100CE8000313E300E30B762E792E831203131F08F8
:100CF800C33904389F00033083120313E300E30B66
:100D0800832E831203139F149F188B2E8C2E882EEC
:100D18000C13831603131E0883120313E300063013
:100D28000310E30CFF3E031D942E1E08E400E501AA
:100D38000310E40DE50D0310E40DE50D63086407E9
:100D4800E6000030031801306507E70066088316DF
:100D58000313A80083120313670883160313A9005B
:100D68002808F2002908F300F401F50100300A12FE
:100D78008A1546270A128A11750883120313AD00D3
:100D88007408AC007308AB007208AA003D30A900D3
:100D98000730A8002B30A7000230A6000A128A11DB
:100DA8002D200A128A11831203132908C700280864
:100DB800C6002708C5002608C4004230C30000301A
:100DC800C2000030C1000030C0000A128A1172232C
:100DD8000A128A11831203134308D7004208D60067
:100DE8004108D5004008D4000A128A1169270A125E
:100DF8008A11831203135508EB005408EA000330E4
:100E08006A05E80000306B05E9006B08E4006A0831
:100E1800E3000310E40CE30C0310E40CE30CFF30D4
:100E2800630583160313A6000030831203136405B9
:100E380083160313A7008312031368080139E3001C
:100E4800E30E1D086306EF3963069D006908E40098
:100E58006808E3000310E40CE30C63080139E500BB
:100E6800E50EE50D1D086506DF3965069D0083164C
:100E780003132608831203139B00283083120313DD
:100E8800E300E30B452F482F831203131F08C339D0
:100E980008389F00033083120313E300E30B522F3B
:100EA800831203139F149F185A2F5B2F572F0C136D
:100EB8000A128A15CF260A128A11283083120313C0
:100EC800E300E30B652F682F080003108312031358
:100ED800560D570DDD005D08031D732F742F7D2FF0
:100EE8000030D7000030D6000030D5000030D400E4
:100EF800E02F5408D8005508D9005608DA005708DA
:100F0800DB001F300310DB0CDA0CD90CD80CFF3EC9
:100F1800031D862F5808DC00D617FF30D405FF3094
:100F2800D505FF30D6050030D7059630DD02DD1F28
:100F38009E2F9F2FB92F5D08803A973E0318A52F43
:100F4800A62FA72F742F01300310D70CD60CD50C61
:100F5800D40CFF3E031DA82F0130D8005808DD0728
:100F6800031DB72FB82FA72FD02F20305D02031CE9
:100F7800BE2FBF2FCB2F742F0130D8000310D40DF4
:100F8800D50DD60DD70DD80BC22F0130DD025D0867
:100F9800031DCF2FD02FC02F5C080319D42FD52FB6
:100FA800E02FD409D509D609D709D40A0319D50AD7
:100FB8000319D60A0319D70A08008B178B160B11C9
:100FC80083160313811281110108F839033881004F
:100FD8008312031381010800831603178901831202
:100FE800031385018701880183160313880108000C
:101BA2000B1DD42DD52DEB2D83120313871DDA2D9A
:101BB200DB2DE32D83160313200983120313810007
:101BC2008711EA2D83160313200883120313810061
:101BD20087150B1171088A00700E8300FE0E7E0EAF
:101BE2000900F20007307206031DF82DF92DFD2DB4
:101BF2007030831603138F0406307206031D022E03
:101C0200032E092E831603130F088F3960388F00B5
:101C120003307206031D0E2E0F2E152E831603138C
:101C22000F088F3930388F00831603130F14080002
:101C320083120313A400A001A1017208F400F501AC
:101C42007408A2007508A300241C282E292E2F2E0A
:101C52002208A0070318A10A2308A10701300310D4
:101C6200A20DA30DFF3E031D302E0310A40C240869
:101C7200031D3C2E3D2E252E2108F3002008F200E4
:101C820008008316031789018316031305148316AC
:101C92000317081483160313851483160317881475
:101CA20083160313051583160317081583160313EA
:101CB2008515831603178815831203139F131F17A5
:101CC200831603139F121F129F13831203131F14F1
:101CD2000330F200F20B6B2E6E2E080083160313F4
:101CE200071587149B3092000C3083120313970060
:101CF2000F309D046E08F200F20E17087206CF39FB
:101D0200720697006C089500680C031C9D1203185C
:101D12009D161D16831603132608831203139B00B8
:101D22008C100330920412158C1C982E992E952E2D
:101D3200831603138710071108000A128A11F0276D
:101D42000A128A1503300A128A15F2250A128A1516
:101D52000A128A1542260A128A150A128A156F2653
:101D62000A128A150A128A11E1270A128A158316A3
:101D72000313A201A301FF30A0000030A1000A1248
:101D82008A11CA250A128A15033083160313AC007E
:101D9200AC0BC92EC02E0A128A110C28831603130B
:101DA2001E0883120313DE0006300310DE0CFF3E12
:101DB200031DD62E1E08DF00E0010310DF0DE00D2B
:101DC2000310DF0DE00D5E085F07E100003003182D
:101DD20001306007E2006108FA006208FB007A083D
:101DE200F2007B08F300F401F50100300A128A15B3
:101DF20046270A128A15750883120313AD00740868
:101E0200AC007308AB007208AA003E30A9001C3077
:101E1200A8000E30A700BF30A6000A128A112D209A
:101E22000A128A15831203132908C7002808C6005C
:101E32002708C5002608C4004230C300C630C200CD
:101E42000030C1000030C0000A128A1172230A1247
:101E52008A15831203134308D7004208D6004108AB
:101E6200D5004008D4000A128A1169270A128A157D
:101E720083120313550883160313A100831203135D
:101E8200540883160313A000080083120313A00052
:101E9200200803194D2F4E2F622FF51F512F522F5D
:101EA200622F7209A2007309A3007409A4007509C4
:101EB200A500A20A0319A30A0319A40A0319A50A71
:101EC2006A2F7508A5007408A4007308A30072089D
:101ED200A2007508740473047204031D712F722F1B
:101EE2007B2F0030F5000030F4000030F3000030AA
:101EF200F200FF2F9630A1008B2F0130F6007608FA
:101F0200A10701300310A50CA40CA30CA20CFF3EE8
:101F1200031D832FFE302505031D902F912F7E2F49
:101F2200AD2F0130F6007608A1070130A20700307C
:101F320003180130A307003003180130A407003052
:101F420003180130A50701300310A50CA40CA30C43
:101F5200A20CFF3E031DA52FFF302505031DB22F46
:101F6200B32F922FBF2F0130A1020130F6000310D0
:101F7200A20DA30DA40DA50DF60BB82FA41BC22F05
:101F8200C32FC92F023021020318C82FC92FB42F23
:101F92002118CC2FCD2FD52FFF30A205FF30A3055E
:101FA2007F30A405FF30A5050310A10C2108F6001F
:101FB200F701F801F90118300310F60DF70DF80DCD
:101FC200F90DFF3E031DDD2F7608A2047708A30456
:101FD2007808A4047908A50420080319F12FF22F28
:101FE200F72FF51FF52FF62FF72FA5172508F50068
:0E1FF2002408F4002308F3002208F20008007F
:08400000FF3FFF3FFF3FFF3FC0
:04400E00D420FF3F7C
:00000001FF
