:060000000A128A110C280F
:10000800FE00030EF1000A08F2000A128A15CD2D2F
:100018000A128A110F28F901FA0183120313EA015F
:10002800EB01EC01ED01EE01EF0183160313A001D2
:10003800A101A201A301A401A501A601A701A8018C
:10004800A901AA01AB01AC01AD0183010A128A150D
:100058009E2E831203132D088039B7002D08B20095
:100068003207BD00AC1F39283A283B283D143D080B
:1000780003193F2840284F283D0A031D44284528D6
:100088004D280030AD000030AC000030AB0000302F
:10009800AA00AC1757280030AD000030AC00003083
:1000A800AB000030AA0031088039B2003208B70628
:1000B8003108B2003207BC00B01F632864286528E5
:1000C8003C143C08031969286A2879283C0A031D4E
:1000D8006E286F2877280030B1000030B00000305B
:1000E800AF000030AE00B01781280030B1000030FA
:1000F800B0000030AF000030AE003C08031985287E
:1001080086288B283D08031D8A288B2894280030D0
:10011800AD000030AC000030AB000030AA00712BFD
:100128002A08F30030080A128A1519260A128A11B9
:10013800740883120313C3007308C2004208B20094
:10014800B301B401B5013508BB003408BA0033085F
:10015800B9003208B8004308B200B301B401B501D0
:100168003508C1003408C0003308BF003208BE009B
:100178002B08F3002F080A128A1519260A128A1169
:10018800740883120313C3007308C2004208B20044
:10019800B301B401B5013208B807330803110318D5
:1001A800013E0319D828B907340803110318013E82
:1001B8000319DF28BA07350803110318013E03198C
:1001C800E628BB074308B200B301B401B501320801
:1001D800BE07330803110318013E0319F428BF07AB
:1001E800340803110318013E0319FB28C00735081A
:1001F80003110318013E03190229C1072C08F30053
:100208002E080A128A1519260A128A1174088312EE
:100218000313C3007308C2004208B200B301B4015B
:10022800B5013208B807330803110318013E031952
:100238001E29B907340803110318013E031925299B
:10024800BA07350803110318013E03192C29BB0707
:100258004308B200B301B401B5013208BE07330840
:1002680003110318013E03193A29BF073408031183
:100278000318013E03194129C00735080311031863
:10028800013E03194829C1070830B2000310B80D10
:10029800B90DBA0DBB0DB20B4A292B08F3002E0875
:1002A8000A128A1519260A128A117408831203136E
:1002B800C3007308C2004208B2004308B300B40187
:1002C800B5013208B807330803110318013E0319B2
:1002D8006E29B907340803110318013E031975295B
:1002E800BA07350803110318013E03197C29BB0717
:1002F8002A08F3002F080A128A1519260A128A11E9
:10030800740883120313C3007308C2004208B200C2
:100318004308B300B401B5013208B8073308031124
:100328000318013E03199929B90734080311031862
:10033800013E0319A029BA07350803110318013E25
:100348000319A729BB070830B2000310B80DB90D6F
:10035800BA0DBB0DB20BA9292A08F3002E080A1200
:100368008A1519260A128A11740883120313C30006
:100378007308C2004208B2004308B300B401B501D3
:100388003208B807330803110318013E0319CD29B1
:10039800B907340803110318013E0319D429BA0711
:1003A800350803110318013E0319DB29BB072B0885
:1003B800F30030080A128A1519260A128A117408DD
:1003C80083120313C3007308C2004208B200430833
:1003D800B300B401B5013208BE073308031103188E
:1003E800013E0319F829BF07340803110318013E19
:1003F8000319FF29C007350803110318013E031923
:10040800062AC1072C08F3002F080A128A15192694
:100418000A128A11740883120313C3007308C200F6
:100428004208B2004308B300B401B5013208BE0760
:10043800330803110318013E0319232ABF073408A0
:1004480003110318013E03192A2AC00735080311AE
:100458000318013E0319312AC1072C08F30030089C
:100468000A128A1519260A128A11740883120313AC
:10047800C3007308C2004208B2004308B300B401C5
:10048800B50108300310B20DB30DB40DB50DFF3E24
:10049800031D462A3208BE07330803110318013E1C
:1004A8000319572ABF07340803110318013E03191B
:1004B8005E2AC007350803110318013E0319652A8F
:1004C800C1073808B2003908B3003A08B4003B083D
:1004D800B50018300310B50CB40CB30CB20CFF3EC9
:1004E800031D6E2A3208BE07330803110318013EA4
:1004F80003197F2ABF07340803110318013E0319A3
:10050800862AC007350803110318013E03198D2AEE
:10051800C1070830B2000310B80DB90DBA0DBB0DF4
:10052800B20B8F2A3D083C07B200B301B30D320865
:10053800823EC20033080318013EFF3EC300C12AB1
:100548000130B2000310BE0DBF0DC00DC10DB20BBE
:10055800A62ABB1FB02AB12AB22A3E140130B20023
:100568000310B80DB90DBA0DBB0DB20BB42AFF308C
:10057800C2070318C30AFF30C307C01FC42AC52A0D
:10058800A42ABC01BB1FC92ACA2AE62AFF3038059B
:10059800B200FF303905B300FF303A05B4007F30B0
:1005A8003B05B50035083404330432040319DD2A49
:1005B800DE2AE12ABC01BC0AE62A3E1CE42AE52A16
:1005C800E62ADE2A3C080319EA2AEB2A1C2B01300A
:1005D800BE07003003180130BF0700300318013090
:1005E800C007003003180130C107411CFC2AFD2A4E
:1005F8001C2B3E08B2003F08B3004008B400410875
:10060800B5000130B600350DB50CB40CB30CB20C06
:10061800B60B072B3508C1003408C0003308BF00EB
:100628003208BE000130C2070318C30A0030C307EE
:100638004308803AFF0080307F02031D252BFF30DE
:100648004202031C282B292B342B7F3083120313DF
:10065800C1008030C0000030BF000030BE00652BF4
:10066800831203134308803AFF0080307F02031D82
:100678003F2B013042020318422B432B4F2B0030F3
:1006880083120313C1000030C0000030BF000030E7
:10069800BE00B701652B831203134208BD00FF306B
:1006A800BE05FF30BF057F30C0050030C1053D1CC9
:1006B8005E2B5F2B602BC0173D08B2000310320C75
:1006C800C1003708B2003208C1044108AD00400833
:1006D800AC003F08AB003E08AA00080083120313D1
:1006E80047088039D4004708CC004C07D600C61FFD
:1006F8007E2B7F2B802B561456080319842B852BB1
:10070800952B560A031D892B8A2B922B0030C70084
:100718000030C6000030C5000030C400C617C7014D
:100728009D2B0030C7000030C6000030C5000030E7
:10073800C4004B088039D500550854060319A52B69
:10074800A62BA72B54174B08CC004C07D500CA1F63
:10075800AE2BAF2BB02B551455080319B42BB52B62
:10076800C52B550A031DB92BBA2BC22B0030CB0061
:100778000030CA000030C9000030C800CA17CB01D9
:10078800CD2B0030CB000030CA000030C90000304B
:10079800C800560855020318D22BD32BF92B541F27
:1007A800D62BD72BDB2B8030CC004C08D406560830
:1007B800D7005508D6005708D5004408D700480880
:1007C800C4005708C8004508D7004908C50057089D
:1007D800C9004608D7004A08C6005708CA00470893
:1007E800D7004B08C7005708CB00D7015508CC00E5
:1007F800CD014D08CF0056084C02CE00031CCF0394
:100808004F08803AFF0080307F02031D0D2C1A30FC
:100818004E02031C102C112C482C8312031347087A
:10082800460445044404031D1A2C1C2C01301D2CBD
:100838000030D7000030C7000030C6000030C500C7
:100848000030C4005508D600502C571C2C2C2D2CD9
:10085800342C5708CC0003104C0C0138D700362C28
:100868000310D70C441C392C3A2C3B2CD7170130D9
:10087800CC00470DC70CC60CC50CC40CCC0B3D2CCA
:100888000130CC004C08D6078312031355085602D2
:10089800031C4F2C502C292C541B532C542C9D2CAE
:1008A8005608031D582C592C622C0030C700003004
:1008B800C6000030C5000030C400C92D4808C40770
:1008C800490803110318013E03196B2CC5074A0890
:1008D80003110318013E0319722CC6074B080311B4
:1008E8000318013E0319792CC707471C7C2C7D2C63
:1008F800512D571C802C812C882C5708CC000310B4
:100908004C0C0138D7008A2C0310D70C441C8D2CB2
:100918008E2C8F2CD7170130CC00470DC70CC60C76
:10092800C50CC40CCC0B912C0130CC004C08D6075C
:10093800512D4708803AFF004B08803A7F02031D7B
:10094800AF2C4A084602031DAF2C49084502031D77
:10095800AF2C480844020318B22CB32C0B2DFF30DF
:10096800CC00FF30CD00FF30CE00FF30CF0048086C
:10097800D0004908D1004A08D2004B08D3004408E7
:10098800D0024508031C450FCA2CCB2CD1024608BF
:10099800031C460FD02CD12CD2024708031C470F4A
:1009A800D62CD72CD3025008CC0751080318510F66
:1009B800DE2CDF2CCD0752080318520FE42CE52C4F
:1009C800CE0753080318530ACF074F08C7004E082D
:1009D800C6004D08C5004C08C4008030CC004C0847
:1009E800D406D709D70A5708031DFB2CFC2C192D50
:1009F8000130C407003003180130C5070030031860
:100A08000130C607003003180130C707192D480800
:100A1800C4024908031C490FC5024A08031C4A0FAF
:100A2800C6024B08031C4B0FC7024708460445047F
:100A38004404031D202D212D4D2D5708031D252D60
:100A4800262D4D2D0030C7000030C6000030C500EF
:100A58000030C400C92D0130CC000310C40DC50DF1
:100A6800C60DC70DCC0B312DD71F3B2D3C2D3D2D71
:100A78004414571C402D412D442D0314D70D462DE9
:100A88000310D70D560803194A2D4B2D4D2D013053
:100A9800D602C61F502D512D2F2DD501D71F552DEC
:100AA800562D642D57087F3903195B2D5C2D5F2D5A
:100AB800D501D50A642D441C622D632D642D5C2D4F
:100AC80055080319682D692D9D2D0130C407003084
:100AD80003180130C507003003180130C60700307D
:100AE80003180130C707471C7A2D7B2D9D2D44081C
:100AF800CC004508CD004608CE004708CF0001309D
:100B0800D0004F0DCF0CCE0CCD0CCC0CD00B852DBE
:100B18004F08C7004E08C6004D08C5004C08C40061
:100B2800560A0319982D992D9D2D0130CC004C089B
:100B3800D607560A0319A12DA22DA72D5608031D65
:100B4800A62DA72DB52D0030C7000030C6000030F7
:100B5800C5000030C4005608031DB32DB42DB52DB3
:100B6800D401561CB82DB92DBB2DC617BF2D7F300B
:100B7800CC004C08C6055608CC0003104C0CC70026
:100B8800D41FC72DC82DC92DC7170800C33083121D
:100B980003139F05033083120313E500E50BD22DE1
:100BA800831203139F149F18DA2DDB2DD72D0C13F6
:100BB800831603131E0883120313E500063003107F
:100BC800E50CFF3E031DE32D1E08E600E7010310B8
:100BD800E60DE70D0310E60DE70D65086607E8006A
:100BE8000030031801306707E9006808831603130B
:100BF800AC0083120313690883160313AD002C0895
:100C0800F3002D08F400F501F60100300A128A15E8
:100C180046270A128A11760883120313B100750851
:100C2800B0007408AF007308AE003D30AD00073067
:100C3800AC002B30AB000230AA000A128A112D201A
:100C48000A128A11831203132D08CB002C08CA003C
:100C58002B08C9002A08C8004230C7000030C60067
:100C68000030C5000030C4000A128A1172230A122B
:100C78008A11831203134708DB004608DA00450887
:100C8800D9004408D8000A128A117D270A128A114D
:100C9800831203135908FA005808F900033079053C
:100CA800EE0000307A05EF007A08E6007908E500E2
:100CB8000310E60CE50C0310E60CE50CFF306505A7
:100CC800EC0000306605ED006E08E500E50E17083B
:100CD8006506CF39650697006C08950028308312A1
:100CE8000313E500E50B762E792E831203131F08F4
:100CF800C33904389F00033083120313E500E50B62
:100D0800832E831203139F149F188B2E8C2E882EEC
:100D18000C13831603131E0883120313E500063011
:100D28000310E50CFF3E031D942E1E08E600E701A4
:100D38000310E60DE70D0310E60DE70D65086607DD
:100D4800E8000030031801306707E90068088316D7
:100D58000313AA0083120313690883160313AB0055
:100D68002A08F3002B08F400F501F60100300A12F6
:100D78008A1546270A128A11760883120313B100CE
:100D88007508B0007408AF007308AE003D30AD00C0
:100D98000730AC002B30AB000230AA000A128A11CF
:100DA8002D200A128A11831203132D08CB002C0858
:100DB800CA002B08C9002A08C8004230C700003002
:100DC800C6000030C5000030C4000A128A11722320
:100DD8000A128A11831203134708DB004608DA0057
:100DE8004508D9004408D8000A128A117D270A123A
:100DF8008A1183120313590883160313A900831257
:100E08000313580883160313A80003302805831218
:100E18000313EA0000308316031329058312031312
:100E2800EB0083160313290883120313E6008316C5
:100E38000313280883120313E5000310E60CE50CDE
:100E48000310E60CE50CFF30650583160313A600B6
:100E5800003083120313660583160313A700831259
:100E680003136A080139E500E50E1D086506EF3928
:100E780065069D006B08E6006A08E5000310E60CAD
:100E8800E50C65080139E700E70EE70D1D08670660
:100E9800DF3967069D0083160313260883120313A0
:100EA8009B00283083120313E500E50B592F5C2FB4
:100EB800831203131F08C33908389F0003308312B5
:100EC8000313E500E50B662F831203139F149F1885
:100ED8006E2F6F2F6B2F0C130A128A15CF260A124A
:100EE8008A11283083120313E500E50B792F7C2F34
:100EF80008000310831203135A0D5B0DF8007808DD
:100F0800031D872F882F912F0030DB000030DA0077
:100F18000030D9000030D800F42F5808DC005908F8
:100F2800DD005A08DE005B08DF001F300310DF0C0D
:100F3800DE0CDD0CDC0CFF3E031D9A2F5C08F7006D
:100F4800DA17FF30D805FF30D905FF30DA05003051
:100F5800DB059630F802F81FB22FB32FCD2F780893
:100F6800803A973E0318B92FBA2FBB2F882F01302C
:100F78000310DB0CDA0CD90CD80CFF3E031DBC2F78
:100F88000130DC005C08F807031DCB2FCC2FBB2FEA
:100F9800E42F20307802031CD22FD32FDF2F882F85
:100FA8000130DC000310D80DD90DDA0DDB0DDC0B98
:100FB800D62F0130F8027808031DE32FE42FD42F31
:100FC80077080319E82FE92FF42FD809D909DA0986
:100FD800DB09D80A0319D90A0319DA0A0319DB0A43
:020FE8000800FF
:101B5C008B178B160B11831603138112811101083D
:101B6C00F8390338810083120313810108008316AE
:101B7C0003178901831203138501870188018316DA
:101B8C00031388010C17831203130C1308000B1D8D
:101B9C00D02DD12DEB2D83120313871DD62DD72DD0
:101BAC00E32D83160313200983120313810087117D
:101BBC000130F00070088807EA2D83160313200803
:101BCC0083120313810087150B1172088A00710EA2
:101BDC008300FE0E7E0E0900F30007307306031D12
:101BEC00F82DF92DFD2D7030831603138F0406305C
:101BFC007306031D022E032E092E831603130F08E2
:101C0C008F3960388F0003307306031D0E2E0F2E94
:101C1C00152E831603130F088F3930388F00831657
:101C2C0003130F14080083120313A400A001A101D5
:101C3C007308F500F6017508A2007608A300241CB1
:101C4C00282E292E2F2E2208A0070318A10A2308BC
:101C5C00A10701300310A20DA30DFF3E031D302E72
:101C6C000310A40C2408031D3C2E3D2E252E210808
:101C7C00F4002008F300080083160317890183166B
:101C8C000313051483160317081483160313851402
:101C9C00831603178814831603130515831603176D
:101CAC0008158316031385158316031788158312DD
:101CBC0003139F131F17831603139F121F129F13D7
:101CCC00831203131F140330F300F30B6B2E6E2ED1
:101CDC00080083160313071587149B3092000C30F1
:101CEC008312031397000F309D046E08F300F30E5C
:101CFC0017087306CF39730697006C0895006A0CA9
:101D0C00031C9D1203189D161D168316031326081B
:101D1C00831203139B008C100330920412158C1C3D
:101D2C00982E992E952E83160313871007110800F1
:101D3C000A128A15BD250A128A1503300A128A1551
:101D4C00F2250A128A150A128A1542260A128A15D7
:101D5C000A128A156F260A128A150A128A15AE25DE
:101D6C000A128A1583160313A201A301FF30A000E7
:101D7C000030A1000A128A11CA250A128A150330F2
:101D8C0083160313AE00AE0BC92EC02E0A128A1195
:101D9C000C28831603131E0883120313E00006306D
:101DAC000310E00CFF3E031DD62E1E08E100E201DD
:101DBC000310E10DE20D0310E10DE20D6008610767
:101DCC00E3000030031801306207E4006308F900F7
:101DDC006408FA007908F3007A08F400F501F601BA
:101DEC0000300A128A1546270A128A1576088312C1
:101DFC000313B1007508B0007408AF007308AE008F
:101E0C003E30AD001C30AC000E30AB00BF30AA0031
:101E1C000A128A112D200A128A15831203132D0817
:101E2C00CB002C08CA002B08C9002A08C800423075
:101E3C00C700C630C6000030C5000030C4000A120E
:101E4C008A1172230A128A15831203134708DB00C6
:101E5C004608DA004508D9004408D8000A128A114D
:101E6C007D270A128A15831203135908831603134C
:101E7C00A10083120313580883160313A000080053
:101E8C0083120313A400240803194D2F4E2F622F25
:101E9C00F61F512F522F622F7309A6007409A70049
:101EAC007509A8007609A900A60A0319A70A03193F
:101EBC00A80A0319A90A6A2F7608A9007508A800B0
:101ECC007408A7007308A6007608750474047304DC
:101EDC00031D712F722F7B2F0030F6000030F500A0
:101EEC000030F4000030F300FF2F9630A5008B2F4C
:101EFC000130A0002008A50701300310A90CA80C84
:101F0C00A70CA60CFF3E031D832FFE302905031DD5
:101F1C00902F912F7E2FAD2F0130A0002008A50708
:101F2C000130A607003003180130A7070030031852
:101F3C000130A807003003180130A9070130031045
:101F4C00A90CA80CA70CA60CFF3E031DA52FFF3057
:101F5C002905031DB22FB32F922FBF2F0130A502DD
:101F6C000130A0000310A60DA70DA80DA90DA00B04
:101F7C00B82FA81BC22FC32FC92F0230250203185C
:101F8C00C82FC92FB42F2518CC2FCD2FD52FFF300C
:101F9C00A605FF30A7057F30A805FF30A905031063
:101FAC00A50C2508A000A101A201A3011830031063
:101FBC00A00DA10DA20DA30DFF3E031DDD2F2008CA
:101FCC00A6042108A7042208A8042308A9042408AD
:101FDC000319F12FF22FF72FF61FF52FF62FF72FEE
:101FEC00A9172908F6002808F5002708F400260888
:041FFC00F3000800E6
:08400000FF3FFF3FFF3FFF3FC0
:04400E00D420FF3F7C
:00000001FF
