:060000000A128A11E22F32
:100008008316031387149B3092000F308312031357
:100018009D04690C031C9D1203189D161D16670884
:100028009B008C108C1C19281A2816288316031379
:1000380087100800831603131E0883120313D800C1
:1000480006300310D80CFF3E031D25281E08D900D2
:10005800DA010310D90DDA0D0310D90DDA0D58089D
:100068005907DB000030031801305A07DC005B0831
:10007800ED005C08EE006D08F0006E08F100F2017A
:10008800F30100300A128A11AC200A128A1173088F
:1000980083120313A7007208A6007108A500700850
:1000A800A4003D30A3000730A2002B30A10002308D
:1000B800A0000A128A119D240A128A1183120313BE
:1000C8002308C1002208C0002108BF002008BE0084
:1000D8004230BD000030BC000030BB000030BA0028
:1000E8000A128A1145220A128A11831203133D0843
:1000F800D1003C08D0003B08CF003A08CE000A12D5
:100108008A1588270A128A11831203134F08EC00F4
:100118004E08EB0003306B05E90000306C05EA007F
:100128006C08D9006B08D8000310D90CD80C031040
:10013800D90CD80CFF305805E70000305905E80005
:100148000808D800D9015808EB005908EC00080045
:10015800F80078080319B128B228C628F31FB52873
:10016800B628C6287009FA007109FB007209FC005C
:100178007309FD00FA0A0319FB0A0319FC0A03199B
:10018800FD0ACE287308FD007208FC007108FB0008
:100198007008FA007308720471047004031DD528EE
:1001A800D628DF280030F3000030F2000030F100DC
:1001B8000030F00063299630F900EF280130F40090
:1001C8007408F90701300310FD0CFC0CFB0CFA0C49
:1001D800FF3E031DE728FE307D05031DF428F528A2
:1001E800E22811290130F4007408F9070130FA07F0
:1001F800003003180130FB07003003180130FC07FA
:10020800003003180130FD0701300310FD0CFC0C11
:10021800FB0CFA0CFF3E031D0929FF307D05031D69
:1002280016291729F62823290130F9020130F4008C
:100238000310FA0DFB0DFC0DFD0DF40B1C29FC1B26
:10024800262927292D290230790203182C292D293E
:1002580018297918302931293929FF30FA05FF3052
:10026800FB057F30FC05FF30FD050310F90C79080C
:10027800F400F501F601F70118300310F40DF50D3F
:10028800F60DF70DFF3E031D41297408FA047508A1
:10029800FB047608FC047708FD047808031955293F
:1002A80056295B29F31F59295A295B29FD177D080F
:1002B800F3007C08F2007B08F1007A08F0000800DF
:1002C800C330831203139F05033083120313DD0029
:1002D800DD0B6C29831203139F149F187429752949
:1002E80071290C130A128A111E200A128A1183120C
:1002F80003136908DD00DD0E17085D06CF395D06BA
:10030800970067089500283083120313DD00DD0B82
:100318008B298E29831203131F08C33904389F00C1
:10032800033083120313DD00DD0B982983120313B6
:100338009F149F18A029A1299D290C130A128A111C
:100348001E200A128A118312031369080139DD007D
:10035800DD0E1D085D06EF395D069D006A08DE00AA
:100368006908DD000310DE0CDD0C5D080139DF00D3
:10037800DF0EDF0D1D085F06DF395F069D00670889
:100388009B00283083120313DD00DD0BC929CC291B
:10039800831203131F08C33908389F0003308312E0
:1003A8000313DD00DD0BD629831203139F149F1856
:1003B800DE29DF29DB290C130030A400A500FF305B
:1003C800A6000030A7000130A8000030A9001130B5
:1003D800AA000030AB001E080A128A15AE260A12BF
:1003E8008A1183120313250883160313A5008312A9
:1003F8000313240883160313A4002830831203135D
:10040800DD00DD0B052A082A831203131F08C339F0
:100418000C389F00033083120313DD00DD0B122A12
:10042800831203139F149F181A2A1B2A172A0C13C6
:100438000030A400A500FF30A6000030A70001305E
:10044800A8000030A9001130AA000030AB001E0837
:100458000A128A15AE260A128A1183120313250876
:1004680083160313A30083120313240883160313AC
:10047800A200283083120313DD00DD0B412A442A31
:100488000800831203133D088039CA003D08C200E2
:100498004207CC00BC1F512A522A532A4C144C083C
:1004A8000319572A582A682A4C0A031D5C2A5D2A10
:1004B800652A0030BD000030BC000030BB000030B1
:1004C800BA00BC17BD01702A0030BD000030BC0066
:1004D8000030BB000030BA0041088039CB004B081F
:1004E8004A060319782A792A7A2A4A174108C20043
:1004F8004207CB00C01F812A822A832A4B144B084B
:100508000319872A882A982A4B0A031D8C2A8D2AC0
:10051800952A0030C1000030C0000030BF00003014
:10052800BE00C017C101A02A0030C1000030C000C1
:100538000030BF000030BE004C084B020318A52A4B
:10054800A62ACC2A4A1FA92AAA2AAE2A8030C20083
:100558004208CA064C08CD004B08CC004D08CB0019
:100568003A08CD003E08BA004D08BE003B08CD0051
:100578003F08BB004D08BF003C08CD004008BC0048
:100588004D08C0003D08CD004108BD004D08C10020
:10059800CD014B08C200C3014308C5004C08420204
:1005A800C400031CC5034508803AFF0080307F0261
:1005B800031DE02A1A304402031CE32AE42A1B2BF9
:1005C800831203133D083C043B043A04031DED2A3F
:1005D800EF2A0130F02A0030CD000030BD00003095
:1005E800BC000030BB000030BA004B08CC00232B05
:1005F8004D1CFF2A002B072B4D08C2000310420C8C
:100608000138CD00092B0310CD0C3A1C0C2B0D2BF7
:100618000E2BCD170130C2003D0DBD0CBC0CBB0C20
:10062800BA0CC20B102B0130C2004208CC0783124F
:1006380003134B084C02031C222B232BFC2A4A1BB6
:10064800262B272B702B4C08031D2B2B2C2B352BE3
:100658000030BD000030BC000030BB000030BA00E4
:100668009C2C3E08BA073F0803110318013E0319E2
:100678003E2BBB07400803110318013E0319452B05
:10068800BC07410803110318013E03194C2BBD0791
:100698003D1C4F2B502B242C4D1C532B542B5B2BC8
:1006A8004D08C2000310420C0138CD005D2B031029
:1006B800CD0C3A1C602B612B622BCD170130C20088
:1006C8003D0DBD0CBC0CBB0CBA0CC20B642B01302D
:1006D800C2004208CC07242C3D08803AFF0041089C
:1006E800803A7F02031D822B40083C02031D822BA7
:1006F8003F083B02031D822B3E083A020318852B54
:10070800862BDE2BFF30C200FF30C300FF30C40051
:10071800FF30C5003E08C6003F08C7004008C800B3
:100728004108C9003A08C6023B08031C3B0F9D2B31
:100738009E2BC7023C08031C3C0FA32BA42BC8020A
:100748003D08031C3D0FA92BAA2BC9024608C20766
:1007580047080318470FB12BB22BC30748080318E3
:10076800480FB72BB82BC40749080318490AC5070F
:100778004508BD004408BC004308BB004208BA0055
:100788008030C2004208CA06CD09CD0A4D08031DB3
:10079800CE2BCF2BEC2B0130BA07003003180130D9
:1007A800BB07003003180130BC07003003180130C4
:1007B800BD07EC2B3E08BA023F08031C3F0FBB02E3
:1007C8004008031C400FBC024108031C410FBD0236
:1007D8003D083C043B043A04031DF32BF42B202C66
:1007E8004D08031DF82BF92B202C0030BD000030DC
:1007F800BC000030BB000030BA009C2C0130C200A5
:100808000310BA0DBB0DBC0DBD0DC20B042CCD1FC2
:100818000E2C0F2C102C3A144D1C132C142C172CA6
:100828000314CD0D192C0310CD0D4C0803191D2CE4
:100838001E2C202C0130CC02BC1F232C242C022C73
:10084800CB01CD1F282C292C372C4D087F390319B3
:100858002E2C2F2C322CCB01CB0A372C3A1C352CC2
:10086800362C372C2F2C4B0803193B2C3C2C702C86
:100878000130BA07003003180130BB0700300318F5
:100888000130BC07003003180130BD073D1C4D2C5A
:100898004E2C702C3A08C2003B08C3003C08C40028
:1008A8003D08C5000130C600450DC50CC40CC30C7D
:1008B800C20CC60B582C4508BD004408BC004308B0
:1008C800BB004208BA004C0A03196B2C6C2C702C24
:1008D8000130C2004208CC074C0A0319742C752C4D
:1008E8007A2C4C08031D792C7A2C882C0030BD00FA
:1008F8000030BC000030BB000030BA004C08031DBB
:10090800862C872C882CCA014C1C8B2C8C2C8E2C6A
:10091800BC17922C7F30C2004208BC054C08C200AC
:100928000310420CBD00CA1F9A2C9B2C9C2CBD178F
:1009380008008312031323088039AD002308A80098
:100948002807B300A21FA92CAA2CAB2C33143308F8
:100958000319AF2CB02CBF2C330A031DB42CB52CB3
:10096800BD2C0030A3000030A2000030A1000030F0
:10097800A000A217C72C0030A3000030A20000304E
:10098800A1000030A00027088039A8002808AD067B
:100998002708A8002807B200A61FD32CD42CD52CD2
:1009A800321432080319D92CDA2CE92C320A031D27
:1009B800DE2CDF2CE72C0030A7000030A60000302A
:1009C800A5000030A400A617F12C0030A7000030C5
:1009D800A6000030A5000030A40032080319F52C49
:1009E800F62CFB2C3308031DFA2CFB2C042D0030AD
:1009F800A3000030A2000030A1000030A000E12FC9
:100A08002008F00026080A128A1533260A128A11CD
:100A1800710883120313B9007008B8003808A800D9
:100A2800A901AA01AB012B08B1002A08B0002908C6
:100A3800AF002808AE003908A800A901AA01AB0137
:100A48002B08B7002A08B6002908B5002808B40002
:100A58002108F00025080A128A1533260A128A117D
:100A6800710883120313B9007008B8003808A80089
:100A7800A901AA01AB012808AE0729080311031828
:100A8800013E0319482DAF072A0803110318013E38
:100A980003194F2DB0072B0803110318013E031942
:100AA800562DB1073908A800A901AA01AB012808E9
:100AB800B407290803110318013E0319642DB5076B
:100AC8002A0803110318013E03196B2DB6072B08DA
:100AD80003110318013E0319722DB7072208F0000D
:100AE80024080A128A1533260A128A1171088312F9
:100AF8000313B9007008B8003808A800A901AA01B2
:100B0800AB012808AE07290803110318013E031991
:100B18008E2DAF072A0803110318013E0319952DDE
:100B2800B0072B0803110318013E03199C2DB107C8
:100B38003908A800A901AA01AB012808B4072908A7
:100B480003110318013E0319AA2DB5072A0803113A
:100B58000318013E0319B12DB6072B08031103181A
:100B6800013E0319B82DB7070830A8000310AE0DD1
:100B7800AF0DB00DB10DA80BBA2D2108F000240857
:100B88000A128A1533260A128A117108831203136E
:100B9800B9007008B8003808A8003908A900AA01E7
:100BA800AB012808AE07290803110318013E0319F1
:100BB800DE2DAF072A0803110318013E0319E52D9E
:100BC800B0072B0803110318013E0319EC2DB107D8
:100BD8002008F00025080A128A1533260A128A11FD
:100BE800710883120313B9007008B8003808A80008
:100BF8003908A900AA01AB012808AE072908031182
:100C08000318013E0319092EAF072A080311031818
:100C1800013E0319102EB0072B0803110318013EDB
:100C28000319172EB1070830A8000310AE0DAF0D39
:100C3800B00DB10DA80B192E2008F00024080A12D7
:100C48008A1533260A128A11710883120313B90010
:100C58007008B8003808A8003908A900AA01AB0133
:100C68002808AE07290803110318013E03193D2E71
:100C7800AF072A0803110318013E0319442EB007D1
:100C88002B0803110318013E03194B2EB107210845
:100C9800F00026080A128A1533260A128A117108EA
:100CA80083120313B9007008B8003808A80039087F
:100CB800A900AA01AB012808B407290803110318E1
:100CC800013E0319682EB5072A0803110318013ECF
:100CD80003196F2EB6072B0803110318013E0319D9
:100CE800762EB7072208F00025080A128A1533263F
:100CF8000A128A11710883120313B9007008B80028
:100D08003808A8003908A900AA01AB012808B407C7
:100D1800290803110318013E0319932EB5072A0861
:100D280003110318013E03199A2EB6072B08031165
:100D38000318013E0319A12EB7072208F000260860
:100D48000A128A1533260A128A11710883120313AC
:100D5800B9007008B8003808A8003908A900AA0125
:100D6800AB0108300310A80DA90DAA0DAB0DFF3E6D
:100D7800031DB62E2808B407290803110318013EDD
:100D88000319C72EB5072A0803110318013E0319D2
:100D9800CE2EB6072B0803110318013E0319D52ED2
:100DA800B7072E08A8002F08A9003008AA003108A4
:100DB800AB0018300310AB0CAA0CA90CA80CFF3E12
:100DC800031DDE2E2808B407290803110318013E65
:100DD8000319EF2EB5072A0803110318013E03195A
:100DE800F62EB6072B0803110318013E0319FD2E32
:100DF800B7070830A8000310AE0DAF0DB00DB10D48
:100E0800A80BFF2E33083207A800A901A90D28084E
:100E1800823EB80029080318013EFF3EB900312F71
:100E28000130A8000310B40DB50DB60DB70DA80B11
:100E3800162FB11F202F212F222F34140130A80084
:100E48000310AE0DAF0DB00DB10DA80B242FFF3060
:100E5800B8070318B90AFF30B907B61F342F352F62
:100E6800142FB201B11F392F3A2F562FFF302E05FC
:100E7800A800FF302F05A900FF303005AA007F30F9
:100E88003105AB002B082A042904280403194D2F27
:100E98004E2F512FB201B20A562F341C542F552F02
:100EA800562F4E2F320803195A2F5B2F8C2F0130E3
:100EB800B407003003180130B507003003180130BB
:100EC800B607003003180130B707371C6C2F6D2F99
:100ED8008C2F3408A8003508A9003608AA0037085E
:100EE800AB000130AC002B0DAB0CAA0CA90CA80C64
:100EF800AC0B772F2B08B7002A08B6002908B500D5
:100F08002808B4000130B8070318B90A0030B90737
:100F18003908803AFF0080307F02031D952FFF308B
:100F28003802031C982F992FA42F7F3083120313A4
:100F3800B7008030B6000030B5000030B400D52FBF
:100F4800831203133908803AFF0080307F02031DA3
:100F5800AF2F013038020318B22FB32FBF2F003044
:100F680083120313B7000030B6000030B50000301C
:100F7800B400AD01D52F831203133808B300FF3036
:100F8800B405FF30B5057F30B6050030B705331C12
:100F9800CE2FCF2FD02FB6173308A8000310280C58
:100FA800B7002D08A8002808B7043708A30036089A
:100FB800A2003508A1003408A0000800831203131A
:100FC800E101E201E301E401E501E601E701E801ED
:100FD800E901EA01EB01EC01ED01EE0183160313CF
:100FE800A001A101A201A301A401A501A601A701D5
:080FF80083010A128A15E32EA1
:101B9E008B160B1183160313811281110108F8396C
:101BAE0003388100F6308312031381000800831678
:101BBE000317890183120313850187018801831698
:101BCE000313880187010C17831203130C130800EB
:101BDE008316031307159B3092000C3083120313E8
:101BEE0097006908F000F00E17087006CF397006DE
:101BFE009700670895008C100330920412158C1C08
:101C0E00092E0A2E062E8316031307110800F4015F
:101C1E00F501701C132E142E1A2E7208F4070318D9
:101C2E00F50A7308F50701300310F20DF30DFF3EB0
:101C3E00031D1B2E01300310F10CF00CFF3E031D93
:101C4E00222E70087104031D2D2E2E2E102E7508B7
:101C5E00F1007408F0000800F800F401F5017008B6
:101C6E00F200F3017208F6007308F700781C402E9C
:101C7E00412E472E7608F4070318F50A7708F50764
:101C8E0001300310F60DF70DFF3E031D482E031015
:101C9E00F80C7808031D542E552E3D2E7508F100B4
:101CAE007408F0000800F00007307006031D602E67
:101CBE00612E652E7030831603138F040630700666
:101CCE00031D6A2E6B2E712E831603130F088F3988
:101CDE0060388F0003307006031D762E772E7D2E12
:101CEE00831603130F088F3930388F0083160313B2
:101CFE000F140800831603178901831603130514A6
:101D0E0083160317081483160313851483160317FB
:101D1E0088148316031305158316031708158316E7
:101D2E0003138515831603178815831203139F1348
:101D3E001F17831603139F121F129F138312031371
:101D4E001F140330F000F00BAA2EAD2E0800FC007D
:101D5E008312031324082602F6002508031C250A05
:101D6E002702F7007C08FB0024087B02F0002509FF
:101D7E000318013EF10028082A02F2002908031C6C
:101D8E00290A2B02F3000A128A150E260A128A1548
:101D9E007108F9007008F8000A128A151F270A1236
:101DAE008A158312031328087607A400290803183E
:101DBE00290A7707A50008000A128A15DE250A12DD
:101DCE008A1503300A128A155A260A128A150A1221
:101DDE008A1581260A128A150A128A15EF250A1209
:101DEE008A150A128A1104200A128A150A128A15F5
:101DFE00CF250A128A1583120313E301E401F03092
:101E0E00E1000030E200F23083160313A600FF302B
:101E1E00A7000A128A1164210A128A15033083124E
:101E2E000313E000E00B192F102F0A128A1100285D
:101E3E0083120313A101F71F252F262F2D2FF6092D
:101E4E00F709F60A0319F70AA101A10AF91F302FA3
:101E5E00312F3A2FF809F909F80A0319F90A013056
:101E6E00FA007A08A106A201A301760877040319E5
:101E7E00412F422F792FA001A00A502F01300310BD
:101E8E00F60DF70DFF3E031D462F0130FA007A08BE
:101E9E00A007F71F532F542F452F01300310A20D0B
:101EAE00A30DFF3E031D552F77087902031D612FE9
:101EBE0076087802031C642F652F6C2F7608F802C3
:101ECE007708031CF903F902221401300310F70CF2
:101EDE00F60CFF3E031D6D2F0130A002031D782F5F
:101EEE00792F542F210803197D2F7E2F832FA209BE
:101EFE00A309A20A0319A30A2308F7002208F60071
:101F0E000800031083120313500D510DD70057080C
:101F1E00031D922F932F9C2F0030D1000030D00044
:101F2E000030CF000030CE00FF2F4E08D2004F08F9
:101F3E00D3005008D4005108D5001F300310D50C23
:101F4E00D40CD30CD20CFF3E031DA52F5208D60085
:101F5E00D017FF30CE05FF30CF05FF30D005003053
:101F6E00D1059630D702D71FBD2FBE2FD82F5708B9
:101F7E00803A973E0318C42FC52FC62F932F0130DA
:101F8E000310D10CD00CCF0CCE0CFF3E031DC72F6F
:101F9E000130D2005208D707031DD62FD72FC62FD8
:101FAE00EF2F20305702031CDD2FDE2FEA2F932F49
:101FBE000130D2000310CE0DCF0DD00DD10DD20BAE
:101FCE00E12F0130D7025708031DEE2FEF2FDF2F21
:101FDE0056080319F32FF42FFF2FCE09CF09D0097E
:101FEE00D109CE0A0319CF0A0319D00A0319D10A4F
:021FFE000800D9
:08400000FF3FFF3FFF3FFF3FC0
:04400E00D420FF3F7C
:00000001FF
