:060000000A128A110C280F
:10000800FE00030EF2000A08F3000A128A15552EA4
:100018000A128A110F28F601F701F801F901831273
:100028000313EA01EB01EC01ED01EE01EF01831688
:100038000313A001A101A201A301A401A501A60126
:10004800A701A801A901AA01AB0183010A128A1517
:10005800E52E8312031331088039BB003108B6003E
:100068003607C100B01F39283A283B2841144108F7
:1000780003193F2840284F28410A031D44284528D2
:100088004D280030B1000030B0000030AF00003023
:10009800AE00B01757280030B1000030B000003073
:1000A800AF000030AE0035088039B6003608BB0610
:1000B8003508B6003607BC00B41F632864286528D5
:1000C8003C143C08031969286A2879283C0A031D4E
:1000D8006E286F2877280030B5000030B400003053
:1000E800B3000030B200B41781280030B5000030EA
:1000F800B4000030B3000030B2003C080319852872
:1001080086288B284108031D8A288B2894280030CC
:10011800B1000030B0000030AF000030AE00712BED
:100128002E08F40034080A128A152C260A128A119D
:10013800750883120313C7007408C6004608B60082
:10014800B701B801B9013908C0003808BF0037083D
:10015800BE003608BD004708B600B701B801B901AE
:100168003908C5003808C4003708C3003608C2007B
:100178002F08F40033080A128A152C260A128A114D
:10018800750883120313C7007408C6004608B60032
:10019800B701B801B9013608BD07370803110318BC
:1001A800013E0319D828BE07380803110318013E79
:1001B8000319DF28BF07390803110318013E031983
:1001C800E628C0074708B600B701B801B9013608E4
:1001D800C207370803110318013E0319F428C3079F
:1001E800380803110318013E0319FB28C40739080E
:1001F80003110318013E03190229C5073008F4004A
:1002080032080A128A152C260A128A1175088312D6
:100218000313C7007408C6004608B600B701B80142
:10022800B9013608BD07370803110318013E031941
:100238001E29BE07380803110318013E0319252992
:10024800BF07390803110318013E03192C29C007F9
:100258004708B600B701B801B9013608C207370820
:1002680003110318013E03193A29C307380803117B
:100278000318013E03194129C4073908031103185B
:10028800013E03194829C5070830B6000310BD0D03
:10029800BE0DBF0DC00DB60B4A292F08F400320859
:1002A8000A128A152C260A128A117508831203135A
:1002B800C7007408C6004608B6004708B700B8016A
:1002C800B9013608BD07370803110318013E0319A1
:1002D8006E29BE07380803110318013E0319752952
:1002E800BF07390803110318013E03197C29C00709
:1002F8002E08F40033080A128A152C260A128A11CD
:10030800750883120313C7007408C6004608B600B0
:100318004708B700B801B9013608BD073708031107
:100328000318013E03199929BE0738080311031859
:10033800013E0319A029BF07390803110318013E1C
:100348000319A729C0070830B6000310BD0DBE0D5C
:10035800BF0DC00DB60BA9292E08F40032080A12E9
:100368008A152C260A128A11750883120313C700EE
:100378007408C6004608B6004708B700B801B901B6
:100388003608BD07370803110318013E0319CD29A4
:10039800BE07380803110318013E0319D429BF0703
:1003A800390803110318013E0319DB29C0072F0878
:1003B800F40034080A128A152C260A128A117508C4
:1003C80083120313C7007408C6004608B60047081E
:1003D800B700B801B9013608C20737080311031876
:1003E800013E0319F829C307380803110318013E11
:1003F8000319FF29C407390803110318013E03191B
:10040800062AC5073008F40033080A128A152C2674
:100418000A128A11750883120313C7007408C600EC
:100428004608B6004708B700B801B9013608C20740
:10043800370803110318013E0319232AC307380894
:1004480003110318013E03192A2AC40739080311A6
:100458000318013E0319312AC5073008F40034088F
:100468000A128A152C260A128A1175088312031398
:10047800C7007408C6004608B6004708B700B801A8
:10048800B90108300310B60DB70DB80DB90DFF3E10
:10049800031D462A3608C207370803110318013E10
:1004A8000319572AC307380803110318013E031913
:1004B8005E2AC407390803110318013E0319652A87
:1004C800C5073D08B6003E08B7003F08B800400819
:1004D800B90018300310B90CB80CB70CB60CFF3EB5
:1004E800031D6E2A3608C207370803110318013E98
:1004F80003197F2AC307380803110318013E03199B
:10050800862AC407390803110318013E03198D2AE6
:10051800C5070830B6000310BD0DBE0DBF0DC00DD8
:10052800B60B8F2A41083C07B600B701B70D36084D
:10053800823EC60037080318013EFF3EC700C12AA5
:100548000130B6000310C20DC30DC40DC50DB60BA6
:10055800A62AC01FB02AB12AB22A42140130B60016
:100568000310BD0DBE0DBF0DC00DB60BB42AFF3074
:10057800C6070318C70AFF30C707C41FC42AC52AFD
:10058800A42ABC01C01FC92ACA2AE62AFF303D0591
:10059800B600FF303E05B700FF303F05B8007F309A
:1005A8004005B90039083804370436040319DD2A30
:1005B800DE2AE12ABC01BC0AE62A421CE42AE52A12
:1005C800E62ADE2A3C080319EA2AEB2A1C2B01300A
:1005D800C207003003180130C30700300318013088
:1005E800C407003003180130C507451CFC2AFD2A42
:1005F8001C2B4208B6004308B7004408B800450859
:10060800B9000130BA00390DB90CB80CB70CB60CEA
:10061800BA0B072B3908C5003808C4003708C300CF
:100628003608C2000130C6070318C70A0030C707DA
:100638004708803AFF0080307F02031D252BFF30DA
:100648004602031C282B292B342B7F3083120313DB
:10065800C5008030C4000030C3000030C200652BE4
:10066800831203134708803AFF0080307F02031D7E
:100678003F2B013046020318422B432B4F2B0030EF
:1006880083120313C5000030C4000030C3000030DB
:10069800C200BB01652B831203134608C100FF305B
:1006A800C205FF30C3057F30C4050030C505411CB5
:1006B8005E2B5F2B602BC4174108B6000310360C65
:1006C800C5003B08B6003608C5044508B100440813
:1006D800B0004308AF004208AE00080083120313BD
:1006E8004B088039D8004B08D0005007DA00CA1FE1
:1006F8007E2B7F2B802B5A145A080319842B852BA9
:10070800952B5A0A031D892B8A2B922B0030CB007C
:100718000030CA000030C9000030C800CA17CB0139
:100728009D2B0030CB000030CA000030C9000030DB
:10073800C8004F088039D900590858060319A52B55
:10074800A62BA72B58174F08D0005007D900CE1F4B
:10075800AE2BAF2BB02B591459080319B42BB52B5A
:10076800C52B590A031DB92BBA2BC22B0030CF0059
:100778000030CE000030CD000030CC00CE17CF01C5
:10078800CD2B0030CF000030CE000030CD0000303F
:10079800CC005A0859020318D22BD32BF92B581F17
:1007A800D62BD72BDB2B8030D0005008D8065A0820
:1007B800DB005908DA005B08D9004808DB004C0860
:1007C800C8005B08CC004908DB004D08C9005B087D
:1007D800CD004A08DB004E08CA005B08CE004B0873
:1007E800DB004F08CB005B08CF00DB015908D000C5
:1007F800D1015108D3005A085002D200031CD30378
:100808005308803AFF0080307F02031D0D2C1A30F8
:100818005202031C102C112C482C831203134B0872
:100828004A0449044804031D1A2C1C2C01301D2CB1
:100838000030DB000030CB000030CA000030C900B7
:100848000030C8005908DA00502C5B1C2C2C2D2CC9
:10085800342C5B08D0000310500C0138DB00362C18
:100868000310DB0C481C392C3A2C3B2CDB170130CD
:10087800D0004B0DCB0CCA0CC90CC80CD00B3D2CAE
:100888000130D0005008DA078312031359085A02BE
:10089800031C4F2C502C292C581B532C542C9D2CAA
:1008A8005A08031D582C592C622C0030CB000030FC
:1008B800CA000030C9000030C800C92D4C08C8075C
:1008C8004D0803110318013E03196B2CC9074E0884
:1008D80003110318013E0319722CCA074F080311AC
:1008E8000318013E0319792CCB074B1C7C2C7D2C5B
:1008F800512D5B1C802C812C882C5B08D0000310A8
:10090800500C0138DB008A2C0310DB0C481C8D2CA2
:100918008E2C8F2CDB170130D0004B0DCB0CCA0C62
:10092800C90CC80CD00B912C0130D0005008DA0744
:10093800512D4B08803AFF004F08803A7F02031D73
:10094800AF2C4E084A02031DAF2C4D084902031D67
:10095800AF2C4C0848020318B22CB32C0B2DFF30D7
:10096800D000FF30D100FF30D200FF30D3004C0858
:10097800D4004D08D5004E08D6004F08D7004808C7
:10098800D4024908031C490FCA2CCB2CD5024A08AB
:10099800031C4A0FD02CD12CD6024B08031C4B0F3A
:1009A800D62CD72CD7025408D00755080318550F52
:1009B800DE2CDF2CD10756080318560FE42CE52C43
:1009C800D20757080318570AD3075308CB00520811
:1009D800CA005108C9005008C8008030D00050082B
:1009E800D806DB09DB0A5B08031DFB2CFC2C192D40
:1009F8000130C807003003180130C9070030031858
:100A08000130CA07003003180130CB07192D4C08F4
:100A1800C8024D08031C4D0FC9024E08031C4E0F97
:100A2800CA024F08031C4F0FCB024B084A04490463
:100A38004804031D202D212D4D2D5B08031D252D58
:100A4800262D4D2D0030CB000030CA000030C900E3
:100A58000030C800C92D0130D0000310C80DC90DE1
:100A6800CA0DCB0DD00B312DDB1F3B2D3C2D3D2D61
:100A780048145B1C402D412D442D0314DB0D462DDD
:100A88000310DB0D5A0803194A2D4B2D4D2D01304B
:100A9800DA02CA1F502D512D2F2DD901DB1F552DDC
:100AA800562D642D5B087F3903195B2D5C2D5F2D56
:100AB800D901D90A642D481C622D632D642D5C2D43
:100AC80059080319682D692D9D2D0130C80700307C
:100AD80003180130C907003003180130CA07003075
:100AE80003180130CB074B1C7A2D7B2D9D2D480810
:100AF800D0004908D1004A08D2004B08D300013081
:100B0800D400530DD30CD20CD10CD00CD40B852DA2
:100B18005308CB005208CA005108C9005008C80041
:100B28005A0A0319982D992D9D2D0130D00050088F
:100B3800DA075A0A0319A12DA22DA72D5A08031D59
:100B4800A62DA72DB52D0030CB000030CA000030EF
:100B5800C9000030C8005A08031DB32DB42DB52DA7
:100B6800D8015A1CB82DB92DBB2DCA17BF2D7F30FF
:100B7800D0005008CA055A08D0000310500CCB000A
:100B8800D81FC72DC82DC92DCB170800C330831215
:100B980003139F05033083120313E600E60BD22DDF
:100BA800831203139F149F18DA2DDB2DD72D0C13F6
:100BB8000A128A115F270A128A117808831203130E
:100BC800E600E60E17086606CF396606970076082F
:100BD8009500283083120313E600E60BF12DF42D5F
:100BE800831203131F08C33904389F00033083128C
:100BF8000313E600E60BFE2D831203139F149F18C0
:100C0800062E072E032E0C130A128A115F270A12CA
:100C18008A117808013983120313E600E60E1D08CD
:100C28006606EF3966069D007908E7007808E60051
:100C38000310E70CE60C66080139E800E80EE80D39
:100C48001D086806DF3968069D0076089B00283075
:100C580083120313E600E60B2F2E322E83120313A2
:100C68001F08C33908389F00033083120313E600B6
:100C7800E60B3C2E831203139F149F18442E452E17
:100C8800412E0C130030AD00AE00FF30AF00003035
:100C9800B0000130B1000030B2001130B3000030B4
:100CA800B4001E080A128A15AE260A128A11831287
:100CB80003132E08EB002D08EA00283083120313D3
:100CC800E600E60B652E682E831203131F08C3394E
:100CD8000C389F00033083120313E600E60B722ED4
:100CE800831203139F149F187A2E7B2E772E0C13D2
:100CF8000030AD00AE00FF30AF000030B000013072
:100D0800B1000030B2001130B3000030B4001E084A
:100D18000A128A15AE260A128A11831203132E08A4
:100D280083160313A300831203132D0883160313DA
:100D3800A200283083120313E600E60BA12EA42E8E
:100D4800080083120313A80028080319AC2EAD2E3F
:100D5800C12EA31FB02EB12EC12E2009AA00210931
:100D6800AB002209AC002309AD00AA0A0319AB0A9B
:100D78000319AC0A0319AD0AC92E2308AD002208CD
:100D8800AC002108AB002008AA0023082204210493
:100D98002004031DD02ED12EDA2E0030A3000030FF
:100DA800A2000030A1000030A0005E2F9630A900FC
:100DB800EA2E0130A4002408A90701300310AD0C65
:100DC800AC0CAB0CAA0CFF3E031DE22EFE302D0529
:100DD800031DEF2EF02EDD2E0C2F0130A400240869
:100DE800A9070130AA07003003180130AB0700300B
:100DF80003180130AC07003003180130AD0701308B
:100E08000310AD0CAC0CAB0CAA0CFF3E031D042F59
:100E1800FF302D05031D112F122FF12E1E2F01302B
:100E2800A9020130A4000310AA0DAB0DAC0DAD0D45
:100E3800A40B172FAC1B212F222F282F0230290299
:100E48000318272F282F132F29182B2F2C2F342F37
:100E5800FF30AA05FF30AB057F30AC05FF30AD058C
:100E68000310A90C2908A400A501A601A7011830A0
:100E78000310A40DA50DA60DA70DFF3E031D3C2FC5
:100E88002408AA042508AB042608AC042708AD04E6
:100E980028080319502F512F562FA31F542F552FB1
:100EA800562FAD172D08A3002C08A2002B08A1006F
:100EB8002A08A0000800831603131E08AC00063099
:100EC8000310AC0CFF3E031D642F831203131E088E
:100ED80083160313AD00AE010310AD0DAE0D031064
:100EE800AD0DAE0D2C082D07AF00003003180130F2
:100EF8002E07B0002F0883120313EE008316031386
:100F0800300883120313EF006E08A0006F08A100D9
:100F1800A201A30100300A128A11A5260A128A1119
:100F2800831203132308B5002208B4002108B30074
:100F38002008B2003D30B1000730B0002B30AF00C0
:100F48000230AE000A128A112D200A128A11831269
:100F580003133108CF003008CE002F08CD002E082B
:100F6800CC004230CB000030CA000030C90000304D
:100F7800C8000A128A1172230A128A1183120313F3
:100F88004B08DF004A08DE004908DD004808DC009D
:100F98000A128A1588270A128A11831203135D0818
:100FA800ED005C08EC0003306C05F80000306D05BE
:100FB800F9006D0883160313AD00831203136C0840
:100FC80083160313AC000310AD0CAC0C0310AD0C6E
:100FD800AC0CFF302C05F60000302D05F70008009A
:101AE6008B178B160B1183160313811281110108B4
:101AF600F83903388100F03083120313810008009F
:101B06008D2D852D862D872D0130F0020030031C8A
:101B1600F103F10270087104031D922D932D842D9B
:101B260008008316031789018312031385018701B1
:101B3600880183160313880187010C178312031388
:101B46000C1308008316031387149B3092000F3082
:101B5600831203139D04780C031C9D1203189D1613
:101B66001D1676089B008C108C1CBA2DBB2DB72D2C
:101B760083160313871008008316031307159B307B
:101B860092000C308312031397007808F400F40EC9
:101B960017087406CF3974069700760895008C10DE
:101BA6000330920412158C1CD92DDA2DD62D8316EE
:101BB600031307110800F401F50183120313201C17
:101BC600E52DE62DEC2D2208F4070318F50A230867
:101BD600F50701300310A20DA30DFF3E031DED2DE9
:101BE60001300310A10CA00CFF3E031DF42D2008AC
:101BF6002104031DFF2D002EE02D7508A100740899
:101C0600A0000800F40007307406031D0B2E0C2EEE
:101C1600102E7030831603138F0406307406031DCE
:101C2600152E162E1C2E831603130F088F396038B7
:101C36008F0003307406031D212E222E282E8316B4
:101C460003130F088F3930388F00831603130F14D0
:101C5600080083120313A600A201A3017408A000C2
:101C6600A1012008A4002108A500261C3B2E3C2E1D
:101C7600422E2408A2070318A30A2508A307013049
:101C86000310A40DA50DFF3E031D432E0310A60C45
:101C96002608031D4F2E502E382E2308F500220845
:101CA600F40008000B1D582E592E7A2EF63083129A
:101CB6000313810087156B08F1006A08F0000A1209
:101CC6008A1583250A128A158312031387110714AE
:101CD600831603132308F1002208F0000A128A155E
:101CE60083250A128A158312031307100B11730832
:101CF6008A00720E8300FE0E7E0E090083160317FD
:101D06008901831603130514831603170814831613
:101D160003138514831603178814831603130515F6
:101D260083160317081583160313851583160317E1
:101D36008815831203139F131F17831603139F120D
:101D46001F129F13831203131F140330F400F40BA6
:101D5600AA2EAD2E080083120313B6002D082F02FB
:101D6600A4002E08031C2E0A3002A5003608B50072
:101D76002D083502A0002E090318013EA1003108E6
:101D86003302A2003208031C320A3402A3000A12EC
:101D96008A15DE250A128A15831203132108A70065
:101DA6002008A6000A128A151F270A128A1583120E
:101DB600031331082407AD0032080318320A250739
:101DC600AE0008000A128A1594250A128A150330F5
:101DD6000A128A1505260A128A150A128A158126FA
:101DE6000A128A150A128A15BF250A128A150A12BC
:101DF6008A15A5250A128A150A128A1573250A124A
:101E06008A1583160313A801A901F030A600003035
:101E1600A700F230A400FF30A5000A128A11CA25D5
:101E26000A128A15033083120313E900E90B192FEE
:101E3600102F0A128A110C2883120313AA01A51F58
:101E4600252F262F2D2FA409A509A40A0319A50AB3
:101E5600AA01AA0AA71F302F312F3A2FA609A709D0
:101E6600A60A0319A70A0130A8002808AA06AB018A
:101E7600AC01240825040319412F422F792FA9010B
:101E8600A90A502F01300310A40DA50DFF3E031D16
:101E9600462F0130A8002808A907A51F532F542F45
:101EA600452F01300310AB0DAC0DFF3E031D552F22
:101EB60025082702031D612F24082602031C642F10
:101EC600652F6C2F2408A6022508031CA703A7026A
:101ED6002B1401300310A50CA40CFF3E031D6D2F1F
:101EE6000130A902031D782F792F542F2A080319D0
:101EF6007D2F7E2F832FAB09AC09AB0A0319AC0AE1
:101F06002C08A5002B08A400080003108312031355
:101F16005E0D5F0DE5006508031D922F932F9C2F24
:101F26000030DF000030DE000030DD000030DC0075
:101F3600FF2F5C08E0005D08E1005E08E2005F0834
:101F4600E3001F300310E30CE20CE10CE00CFF3E53
:101F5600031DA52F6008E400DE17FF30DC05FF3007
:101F6600DD05FF30DE050030DF059630E502E51FB2
:101F7600BD2FBE2FD82F6508803A973E0318C42F71
:101F8600C52FC62F932F01300310DF0CDE0CDD0C9E
:101F9600DC0CFF3E031DC72F0130E0006008E5079B
:101FA600031DD62FD72FC62FEF2F20306502031C17
:101FB600DD2FDE2FEA2F932F0130E0000310DC0D1A
:101FC600DD0DDE0DDF0DE00BE12F0130E5026508CA
:101FD600031DEE2FEF2FDF2F64080319F32FF42FC5
:101FE600FF2FDC09DD09DE09DF09DC0A0319DD0A3A
:0A1FF6000319DE0A0319DF0A0800D0
:08400000FF3FFF3FFF3FFF3FC0
:04400E00D420FF3F7C
:00000001FF
