:060000000A128A110C280F
:10000800FE00030EF9000A08FA000A128A15222EC9
:100018000A128A110F28FB01FC0183160313A001A1
:10002800A101A201A301A401A501A601A701A8019C
:10003800A901AA01AB01AC01AD0183010A128A151D
:10004800E32D8312031331088039BB003108B60051
:100058003607C100B01F312832283328411441081F
:100068000319372838284728410A031D3C283D280A
:1000780045280030B1000030B0000030AF0000303B
:10008800AE00B0174F280030B1000030B00000308B
:10009800AF000030AE0035088039B6003608BB0620
:1000A8003508B6003607C000B41F5B285C285D28F9
:1000B800401440080319612862287128400A031D6A
:1000C800662867286F280030B5000030B40000307B
:1000D800B3000030B200B41779280030B500003002
:1000E800B4000030B3000030B200400803197D2886
:1000F8007E2883284108031D822883288C28003005
:10010800B1000030B0000030AF000030AE00692B05
:100118002E08A00034080A128A158C250A128A11A2
:10012800831203132108C7002008C6004608B6003A
:10013800B701B801B9013908BF003808BE0037084F
:10014800BD003608BC004708B600B701B801B901C0
:100158003908C5003808C4003708C3003608C2008B
:100168002F08A00033080A128A158C250A128A1152
:10017800831203132108C7002008C6004608B600EA
:10018800B701B801B9013608BC07370803110318CD
:10019800013E0319D028BD07380803110318013E92
:1001A8000319D728BE07390803110318013E03199C
:1001B800DE28BF074708B600B701B801B9013608FD
:1001C800C207370803110318013E0319EC28C307B7
:1001D800380803110318013E0319F328C407390826
:1001E80003110318013E0319FA28C5073008A000B7
:1001F80032080A128A158C250A128A1183120313EF
:100208002108C7002008C6004608B600B701B80193
:10021800B9013608BC07370803110318013E031952
:100228001629BD07380803110318013E03191D29B3
:10023800BE07390803110318013E03192429BF0713
:100248004708B600B701B801B9013608C207370830
:1002580003110318013E03193229C3073808031193
:100268000318013E03193929C40739080311031873
:10027800013E03194029C5070830B6000310BC0D1C
:10028800BD0DBE0DBF0DB60B42292F08A0003208C8
:100298000A128A158C250A128A118312031321085F
:1002A800C7002008C6004608B6004708B700B801CE
:1002B800B9013608BC07370803110318013E0319B2
:1002C8006629BD07380803110318013E03196D2973
:1002D800BE07390803110318013E03197429BF0723
:1002E8002E08A00033080A128A158C250A128A11D2
:1002F800831203132108C7002008C6004608B60069
:100308004708B700B801B9013608BC073708031118
:100318000318013E03199129BD0738080311031872
:10032800013E03199829BE07390803110318013E35
:1003380003199F29BF070830B6000310BC0DBD0D77
:10034800BE0DBF0DB60BA1292E08A00032080A1257
:100358008A158C250A128A11831203132108C700F3
:100368002008C6004608B6004708B700B801B9011A
:100378003608BC07370803110318013E0319C529BD
:10038800BD07380803110318013E0319CC29BE071D
:10039800390803110318013E0319D329BF072F0891
:1003A800A00034080A128A158C250A128A118312B1
:1003B80003132108C7002008C6004608B6004708EE
:1003C800B700B801B9013608C20737080311031886
:1003D800013E0319F029C307380803110318013E29
:1003E8000319F729C407390803110318013E031933
:1003F800FE29C5073008A00033080A128A158C2583
:100408000A128A11831203132108C7002008C600A4
:100418004608B6004708B700B801B9013608C20750
:10042800370803110318013E03191B2AC3073808AC
:1004380003110318013E0319222AC40739080311BE
:100448000318013E0319292AC5073008A0003408FB
:100458000A128A158C250A128A118312031321089D
:10046800C7002008C6004608B6004708B700B8010C
:10047800B90108300310B60DB70DB80DB90DFF3E20
:10048800031D3E2A3608C207370803110318013E28
:1004980003194F2AC307380803110318013E03192B
:1004A800562AC407390803110318013E03195D2AA7
:1004B800C5073C08B6003D08B7003E08B8003F082D
:1004C800B90018300310B90CB80CB70CB60CFF3EC5
:1004D800031D662A3608C207370803110318013EB0
:1004E8000319772AC307380803110318013E0319B3
:1004F8007E2AC407390803110318013E0319852A07
:10050800C5070830B6000310BC0DBD0DBE0DBF0DEC
:10051800B60B872A41084007B600B701B70D360861
:10052800823EC60037080318013EFF3EC700B92ABD
:100538000130B6000310C20DC30DC40DC50DB60BB6
:100548009E2ABF1FA82AA92AAA2A42140130B60047
:100558000310BC0DBD0DBE0DBF0DB60BAC2AFF3090
:10056800C6070318C70AFF30C707C41FBC2ABD2A1D
:100578009C2AC001BF1FC12AC22ADE2AFF303C05BF
:10058800B600FF303D05B700FF303E05B8007F30AC
:100598003F05B90039083804370436040319D52A49
:1005A800D62AD92AC001C00ADE2A421CDC2ADD2A42
:1005B800DE2AD62A40080319E22AE32A142B01303E
:1005C800C207003003180130C30700300318013098
:1005D800C407003003180130C507451CF42AF52A62
:1005E800142B4208B6004308B7004408B800450871
:1005F800B9000130BA00390DB90CB80CB70CB60CFB
:10060800BA0BFF2A3908C5003808C4003708C300E8
:100618003608C2000130C6070318C70A0030C707EA
:100628004708803AFF0080307F02031D1D2BFF30F2
:100638004602031C202B212B2C2B7F308312031303
:10064800C5008030C4000030C3000030C2005D2BFC
:10065800831203134708803AFF0080307F02031D8E
:10066800372B0130460203183A2B3B2B472B00301F
:1006780083120313C5000030C4000030C3000030EB
:10068800C200BB015D2B831203134608C100FF3073
:10069800C205FF30C3057F30C4050030C505411CC5
:1006A800562B572B582BC4174108B6000310360C8D
:1006B800C5003B08B6003608C5044508B100440823
:1006C800B0004308AF004208AE00080083120313CD
:1006D8004B088039D8004B08D0005007DA00CA1FF1
:1006E800762B772B782B5A145A0803197C2B7D2BE1
:1006F8008D2B5A0A031D812B822B8A2B0030CB00AD
:100708000030CA000030C9000030C800CA17CB0149
:10071800952B0030CB000030CA000030C9000030F3
:10072800C8004F088039D9005908580603199D2B6D
:100738009E2B9F2B58174F08D0005007D900CE1F6B
:10074800A62BA72BA82B591459080319AC2BAD2B92
:10075800BD2B590A031DB12BB22BBA2B0030CF0089
:100768000030CE000030CD000030CC00CE17CF01D5
:10077800C52B0030CF000030CE000030CD00003057
:10078800CC005A0859020318CA2BCB2BF12B581F3F
:10079800CE2BCF2BD32B8030D0005008D8065A0848
:1007A800DB005908DA005B08D9004808DB004C0870
:1007B800C8005B08CC004908DB004D08C9005B088D
:1007C800CD004A08DB004E08CA005B08CE004B0883
:1007D800DB004F08CB005B08CF00DB015908D000D5
:1007E800D1015108D3005A085002D200031CD30388
:1007F8005308803AFF0080307F02031D052C1A3011
:100808005202031C082C092C402C831203134B089A
:100818004A0449044804031D122C142C0130152CD9
:100828000030DB000030CB000030CA000030C900C7
:100838000030C8005908DA00482C5B1C242C252CF1
:100848002C2C5B08D0000310500C0138DB002E2C38
:100858000310DB0C481C312C322C332CDB170130F5
:10086800D0004B0DCB0CCA0CC90CC80CD00B352CC6
:100878000130D0005008DA078312031359085A02CE
:10088800031C472C482C212C581B4B2C4C2C952CEA
:100898005A08031D502C512C5A2C0030CB00003024
:1008A800CA000030C9000030C800C12D4C08C80774
:1008B8004D0803110318013E0319632CC9074E089C
:1008C80003110318013E03196A2CCA074F080311C4
:1008D8000318013E0319712CCB074B1C742C752C83
:1008E800492D5B1C782C792C802C5B08D0000310D8
:1008F800500C0138DB00822C0310DB0C481C852CC3
:10090800862C872CDB170130D0004B0DCB0CCA0C82
:10091800C90CC80CD00B892C0130D0005008DA075C
:10092800492D4B08803AFF004F08803A7F02031D8B
:10093800A72C4E084A02031DA72C4D084902031D87
:10094800A72C4C0848020318AA2CAB2C032DFF3007
:10095800D000FF30D100FF30D200FF30D3004C0868
:10096800D4004D08D5004E08D6004F08D7004808D7
:10097800D4024908031C490FC22CC32CD5024A08CB
:10098800031C4A0FC82CC92CD6024B08031C4B0F5A
:10099800CE2CCF2CD7025408D00755080318550F72
:1009A800D62CD72CD10756080318560FDC2CDD2C73
:1009B800D20757080318570AD3075308CB00520821
:1009C800CA005108C9005008C8008030D00050083B
:1009D800D806DB09DB0A5B08031DF32CF42C112D68
:1009E8000130C807003003180130C9070030031868
:1009F8000130CA07003003180130CB07112D4C080D
:100A0800C8024D08031C4D0FC9024E08031C4E0FA7
:100A1800CA024F08031C4F0FCB024B084A04490473
:100A28004804031D182D192D452D5B08031D1D2D88
:100A38001E2D452D0030CB000030CA000030C90003
:100A48000030C800C12D0130D0000310C80DC90DF9
:100A5800CA0DCB0DD00B292DDB1F332D342D352D91
:100A680048145B1C382D392D3C2D0314DB0D3E2D0D
:100A78000310DB0D5A080319422D432D452D013073
:100A8800DA02CA1F482D492D272DD901DB1F4D2D0C
:100A98004E2D5C2D5B087F390319532D542D572D8E
:100AA800D901D90A5C2D481C5A2D5B2D5C2D542D7B
:100AB80059080319602D612D952D0130C8070030A4
:100AC80003180130C907003003180130CA07003085
:100AD80003180130CB074B1C722D732D952D480838
:100AE800D0004908D1004A08D2004B08D300013091
:100AF800D400530DD30CD20CD10CD00CD40B7D2DBB
:100B08005308CB005208CA005108C9005008C80051
:100B18005A0A0319902D912D952D0130D0005008B7
:100B2800DA075A0A0319992D9A2D9F2D5A08031D81
:100B38009E2D9F2DAD2D0030CB000030CA00003017
:100B4800C9000030C8005A08031DAB2DAC2DAD2DCF
:100B5800D8015A1CB02DB12DB32DCA17B72D7F302F
:100B6800D0005008CA055A08D0000310500CCB001A
:100B7800D81FBF2DC02DC12DCB170800C33083123D
:100B880003139F05033083120313EB00EB0BCA2DED
:100B9800831203139F149F18D22DD32DCF2D0C131E
:100BA8000A128A1138270A128A11831603132A088F
:100BB80083120313EB00EB0E17086B06CF396B0695
:100BC800970083160313280883120313950028300F
:100BD80083120313EB00EB0BEF2DF22D831203139B
:100BE8001F08C33904389F00033083120313EB0036
:100BF800EB0BFC2D831203139F149F18042E052E54
:100C0800012E0C130A128A1138270A128A11831628
:100C180003132A08013983120313EB00EB0E1D0896
:100C28006B06EF396B069D00831603132B0883129E
:100C38000313EC00831603132A0883120313EB0033
:100C48000310EC0CEB0C6B080139ED00ED0EED0D0B
:100C58001D086D06DF396D069D00831603132808ED
:100C6800831203139B00283083120313EB00EB0B52
:100C78003B2E3E2E831203131F08C33908389F00EA
:100C8800033083120313EB00EB0B482E831203137C
:100C98009F149F18502E512E4D2E0C130A128A1590
:100CA80085270A128A11283083120313EB00EB0BF5
:100CB8005B2E5E2E831203131F08C3390C389F0066
:100CC800033083120313EB00EB0B682E831203131C
:100CD8009F149F18702E712E6D2E0A128A15962653
:100CE8000A128A11283083120313EB00EB0B7A2EB9
:100CF8007D2E080083120313A80028080319852EE7
:100D0800862E9A2EA31F892E8A2E9A2E2009AA0093
:100D18002109AB002209AC002309AD00AA0A031976
:100D2800AB0A0319AC0A0319AD0AA22E2308AD00B9
:100D38002208AC002108AB002008AA0023082204DE
:100D480021042004031DA92EAA2EB32E0030A300CF
:100D58000030A2000030A1000030A000372F9630EC
:100D6800A900C32E0130A4002408A90701300310EC
:100D7800AD0CAC0CAB0CAA0CFF3E031DBB2EFE3019
:100D88002D05031DC82EC92EB62EE52E0130A40050
:100D98002408A9070130AA07003003180130AB075F
:100DA800003003180130AC07003003180130AD07DC
:100DB80001300310AD0CAC0CAB0CAA0CFF3E031DAC
:100DC800DD2EFF302D05031DEA2EEB2ECA2EF72E41
:100DD8000130A9020130A4000310AA0DAB0DAC0D1F
:100DE800AD0DA40BF02EAC1BFA2EFB2E012F0230FA
:100DF80029020318002F012FEC2E2918042F052F84
:100E08000D2FFF30AA05FF30AB057F30AC05FF3052
:100E1800AD050310A90C2908A400A501A601A70186
:100E280018300310A40DA50DA60DA70DFF3E031D38
:100E3800152F2408AA042508AB042608AC042708A3
:100E4800AD0428080319292F2A2F2F2FA31F2D2F70
:100E58002E2F2F2FAD172D08A3002C08A2002B082A
:100E6800A1002A08A0000800831603131E08831295
:100E78000313E60006300310E60CFF3E031D3F2F68
:100E88001E08E700E8010310E70DE80D0310E70D61
:100E9800E80D66086707E9000030031801306807A5
:100EA800EA00690883160313AC00831203136A0867
:100EB80083160313AD002C0883120313A0008316B6
:100EC80003132D0883120313A100A201A30100300C
:100ED8000A128A117E260A128A1183120313230822
:100EE800B5002208B4002108B3002008B2003D3044
:100EF800B1000730B0002B30AF000230AE000A124C
:100F08008A1125200A128A11831203133108CF008F
:100F18003008CE002F08CD002E08CC004230CB0080
:100F28000030CA000030C9000030C8000A128A1117
:100F38006A230A128A11831203134B08DF004A0836
:100F4800DE004908DD004808DC000A128A150D2772
:100F58000A128A11831203135D08FC005C08FB0067
:100F680003307B0583160313AA0000307C05AB0011
:100F78007C0883120313E7007B08E6000310E70CE4
:100F8800E60C0310E70CE60CFF3066058316031326
:100F9800A800003083120313670583160313A90002
:100FA800080083120313A00007302006031DDD2F5D
:100FB800DE2FE22F7030831603138F04063083125E
:100FC8002006031DE82FE92FEF2F831603130F08C0
:100FD8008F3960388F00033083122006031DF52FE8
:100FE800F62FFC2F831603130F088F3930388F0024
:080FF800831603130F14080017
:101A2800831603178901831203138501870188012F
:101A3800831603138801870108008B178B160B1177
:101A480083160313811281110108F83903388100C4
:101A58008312031381010800CF308312031390050A
:101A6800901190101014F6308F003C308E000B1738
:101A7800831603130C14831203130C100800831627
:101A8800031387149B3092000F30831203139D04B5
:101A9800831603132A0C83120313031C9D120318C5
:101AA8009D161D16831603132808831203139B0023
:101AB8008C108C1C602D612D5D2D831603138710EF
:101AC80008008316031307159B3092000C3083120D
:101AD80003139700831603132A0883120313A00025
:101AE800A00E17082006CF39200697008316031387
:101AF80028088312031395008C10033092041215E2
:101B08008C1C872D882D842D83160313071108003C
:101B180083120313A800A401A5012008A200A301B1
:101B28002208A6002308A700281C9B2D9C2DA22D67
:101B38002608A4070318A50A2708A50701300310DB
:101B4800A60DA70DFF3E031DA32D0310A80C280802
:101B5800031DAF2DB02D982D2508A1002408A00045
:101B680008008316031789018316031305148316C7
:101B78000317081483160313851483160317881490
:101B88008316031305158316031708158316031305
:101B98008515831603178815831203139F131F17C0
:101BA800831603139F121F129F13831203131F140C
:101BB800033083120313A000A00BE02D08000A12C3
:101BC8008A1514250A128A1503300A128A11D52794
:101BD8000A128A150A128A15B5250A128A150A12D6
:101BE8008A1565250A128A150A128A1543250A12CA
:101BF8008A150A128A1521250A128A150A128A15C7
:101C080030250A128A1583160313A401A501F8309A
:101C1800A2000030A300F230A000FF30A1000A1299
:101C28008A11C2250A128A15033083120313EE00A3
:101C3800EE0B1C2E132E0A128A110C280B1D252EB2
:101C4800262E3D2E83120313871D2B2E2C2E352E68
:101C5800831603132208623C831203138100871141
:101C68003C2E831603132208831203138100871561
:101C78000B11831203130C1C422E432E8F2E071EAA
:101C8800462E472E812E831603132008F0002108C4
:101C9800F100F201F3013B30F400F630F5000130B9
:101CA800F6000030F7007008F4027108031C710F89
:101CB8005E2E5F2EF5027208031C720F642E652ECD
:101CC800F6027308031C730F6A2E6B2EF702083096
:101CD800F800770DF70CF60CF50CF40CF80B6D2EDC
:101CE8007408831203138F008316031320083B3CE8
:101CF800831203138E0007128E2E831603132108F6
:101D0800831203138F00831603132008831203130F
:101D18008E0007160C107A088A00790E8300FE0ED2
:101D28007E0E0900831603131E0883120313E600B0
:101D380006300310E60CFF3E031D9D2E1E08E7002B
:101D4800E8010310E70DE80D0310E70DE80D66083C
:101D58006707E9000030031801306807EA006908DE
:101D6800FB006A08FC007B08A0007C08A100A20117
:101D7800A30100300A128A117E260A128A158312DC
:101D880003132308B5002208B4002108B300200873
:101D9800B2004030B1001B30B0009630AF00D130F7
:101DA800AE000A128A1125200A128A15831203131B
:101DB8003108CF003008CE002F08CD002E08CC0007
:101DC8004730CB007630CA003C30C9000030C8002C
:101DD8000A128A116A230A128A15831203134B08FE
:101DE800DF004A08DE004908DD004808DC000A1266
:101DF8008A150D270A128A15831203135D088316A4
:101E08000313A100831203135C0883160313A000B5
:101E180008000310831203135E0D5F0DE5006508CB
:101E2800031D172F182F212F0030DF000030DE0090
:101E38000030DD000030DC00842F5C08E0005D0825
:101E4800E1005E08E2005F08E3001F300310E30CC6
:101E5800E20CE10CE00CFF3E031D2A2F6008E400B1
:101E6800DE17FF30DC05FF30DD05FF30DE05003012
:101E7800DF059630E502E51F422F432F5D2F6508E9
:101E8800803A973E0318492F4A2F4B2F182F0130BD
:101E98000310DF0CDE0CDD0CDC0CFF3E031D4C2FA9
:101EA8000130E0006008E507031D5B2F5C2F4B2F16
:101EB800742F20306502031C622F632F6F2F182F99
:101EC8000130E0000310DC0DDD0DDE0DDF0DE00B51
:101ED800662F0130E5026508031D732F742F642FE8
:101EE80064080319782F792F842FDC09DD09DE09AE
:101EF800DF09DC0A0319DD0A0319DE0A0319DF0A00
:101F08000800831603131E0883120313E600063025
:101F18000310E60CFF3E031D8C2F1E08E700E801A6
:101F28000310E70DE80D0310E70DE80D66086707D5
:101F3800E9000030031801306807EA006908FB006F
:101F48006A08FC007B08A0007C08A100A201A3018C
:101F580000300A128A117E260A128A158312031388
:101F68002308B5002208B4002108B3002008B200F5
:101F78003C30B1000030B0001F30AF007530AE000B
:101F88000A128A1125200A128A15831203133108AE
:101F9800CF003008CE002F08CD002E08CC004330EB
:101FA800CB007030CA000030C9000030C8000A12E7
:101FB8008A116A230A128A15831203134B08DF0059
:101FC8004A08DE004908DD004808DC000A128A15C4
:101FD8000D270A128A15831203135D08831603134B
:101FE800A300831203135C0883160313A2007B0863
:081FF8008312031388000800A6
:08400000FF3FFF3FFF3FFF3FC0
:04400E00D420FF3F7C
:00000001FF
