:060000000A128A110C280F
:10000800FE00030EF2000A08F3000A128A151D2FDB
:100018000A128A110F28F601F701F801F901831273
:100028000313EA01EB01EC01ED01EE01EF01831688
:100038000313A001A101A201A301A401A501A60126
:10004800A701A801A90183010A128A154B2E831260
:10005800031331088039BB003108B6003607C100E8
:10006800B01F3728382839284114410803193D287A
:100078003E284D28410A031D422843284B280030BA
:10008800B1000030B0000030AF000030AE00B01753
:1000980055280030B1000030B0000030AF0000300B
:1000A800AE0035088039B6003608BB063508B600FC
:1000B8003607BC00B41F6128622863283C143C083A
:1000C80003196728682877283C0A031D6C286D28BF
:1000D80075280030B5000030B4000030B30000309F
:1000E800B200B4177F280030B5000030B4000030EB
:1000F800B3000030B2003C080319832884288928FB
:100108004108031D8828892892280030B100003052
:10011800B0000030AF000030AE006F2B2E08F400A6
:1001280034080A128A15F5250A128A1175088312ED
:100138000313C7007408C6004608B600B701B80123
:10014800B9013908C0003808BF003708BE003608B2
:10015800BD004708B600B701B801B9013908C500A4
:100168003808C4003708C3003608C2002F08F40056
:1001780033080A128A15F5250A128A11750883129E
:100188000313C7007408C6004608B600B701B801D3
:10019800B9013608BD07370803110318013E0319D2
:1001A800D628BE07380803110318013E0319DD28B5
:1001B800BF07390803110318013E0319E428C007D3
:1001C8004708B600B701B801B9013608C2073708B1
:1001D80003110318013E0319F228C3073808031155
:1001E8000318013E0319F928C40739080311031835
:1001F800013E03190029C5073008F40032080A1225
:100208008A15F5250A128A11750883120313C70087
:100218007408C6004608B600B701B801B901360827
:10022800BD07370803110318013E03191C29BE072F
:10023800380803110318013E03192329BF07390899
:1002480003110318013E03192A29C0074708B600FD
:10025800B701B801B9013608C207370803110318F6
:10026800013E03193829C307380803110318013E52
:1002780003193F29C407390803110318013E03195C
:100288004629C5070830B6000310BD0DBE0DBF0DC9
:10029800C00DB60B48292F08F40032080A128A1537
:1002A800F5250A128A11750883120313C70074080A
:1002B800C6004608B6004708B700B801B9013608B5
:1002C800BD07370803110318013E03196C29BE073F
:1002D800380803110318013E03197329BF073908A9
:1002E80003110318013E03197A29C0072E08F400E8
:1002F80033080A128A15F5250A128A11750883121D
:100308000313C7007408C6004608B6004708B700BC
:10031800B801B9013608BD07370803110318013EB3
:1003280003199729BE07380803110318013E03195A
:100338009E29BF07390803110318013E0319A5298F
:10034800C0070830B6000310BD0DBE0DBF0DC00DAF
:10035800B60BA7292E08F40032080A128A15F525CB
:100368000A128A11750883120313C7007408C6009D
:100378004608B6004708B700B801B9013608BD07F6
:10038800370803110318013E0319CB29BE073808A3
:1003980003110318013E0319D229BF0739080311B5
:1003A8000318013E0319D929C0072F08F40034089F
:1003B8000A128A15F5250A128A1175088312031381
:1003C800C7007408C6004608B6004708B700B80159
:1003D800B9013608C207370803110318013E03198B
:1003E800F629C307380803110318013E0319FD292C
:1003F800C407390803110318013E0319042AC50765
:100408003008F40033080A128A15F5250A128A11F1
:10041800750883120313C7007408C6004608B6009F
:100428004708B700B801B9013608C20737080311F1
:100438000318013E0319212AC307380803110318BA
:10044800013E0319282AC407390803110318013E7D
:1004580003192F2AC5073008F40034080A128A1530
:10046800F5250A128A11750883120313C700740848
:10047800C6004608B6004708B700B801B9010830F9
:100488000310B60DB70DB80DB90DFF3E031D442A74
:100498003608C207370803110318013E0319552A05
:1004A800C307380803110318013E03195C2AC4075F
:1004B800390803110318013E0319632AC5073D08CB
:1004C800B6003E08B7003F08B8004008B900183029
:1004D8000310B90CB80CB70CB60CFF3E031D6C2A00
:1004E8003608C207370803110318013E03197D2A8D
:1004F800C307380803110318013E0319842AC407E7
:10050800390803110318013E03198B2AC50708305F
:10051800B6000310BD0DBE0DBF0DC00DB60B8D2A64
:1005280041083C07B600B701B70D3608823EC60041
:1005380037080318013EFF3EC700BF2A0130B60046
:100548000310C20DC30DC40DC50DB60BA42AC01FE0
:10055800AE2AAF2AB02A42140130B6000310BD0DEE
:10056800BE0DBF0DC00DB60BB22AFF30C60703186B
:10057800C70AFF30C707C41FC22AC32AA22ABC0160
:10058800C01FC72AC82AE42AFF303D05B600FF303D
:100598003E05B700FF303F05B8007F304005B90081
:1005A80039083804370436040319DB2ADC2ADF2A21
:1005B800BC01BC0AE42A421CE22AE32AE42ADC2A17
:1005C8003C080319E82AE92A1A2B0130C20700302F
:1005D80003180130C307003003180130C407003086
:1005E80003180130C507451CFA2AFB2A1A2B4208B2
:1005F800B6004308B7004408B8004508B900013000
:10060800BA00390DB90CB80CB70CB60CBA0B052BDF
:100618003908C5003808C4003708C3003608C200C6
:100628000130C6070318C70A0030C7074708803AD1
:10063800FF0080307F02031D232BFF304602031C7E
:10064800262B272B322B7F3083120313C5008030D3
:10065800C4000030C3000030C200632B83120313B0
:100668004708803AFF0080307F02031D3D2B013090
:1006780046020318402B412B4D2B003083120313E5
:10068800C5000030C4000030C3000030C200BB0108
:10069800632B831203134608C100FF30C205FF30E5
:1006A800C3057F30C4050030C505411C5C2B5D2B9C
:1006B8005E2BC4174108B6000310360CC5003B0872
:1006C800B6003608C5044508B1004408B000430820
:1006D800AF004208AE000800831203134B088039AC
:1006E800D8004B08D0005007DA00CA1F7C2B7D2B9E
:1006F8007E2B5A145A080319822B832B932B5A0AE0
:10070800031D872B882B902B0030CB000030CA00AC
:100718000030C9000030C800CA17CB019B2B00303D
:10072800CB000030CA000030C9000030C8004F08B4
:100738008039D900590858060319A32BA42BA52BD7
:1007480058174F08D0005007D900CE1FAC2BAD2B3F
:10075800AE2B591459080319B22BB32BC32B590AC2
:10076800031DB72BB82BC02B0030CF000030CE00B4
:100778000030CD000030CC00CE17CF01CB2B00309D
:10078800CF000030CE000030CD000030CC005A0839
:1007980059020318D02BD12BF72B581FD42BD52B4C
:1007A800D92B8030D0005008D8065A08DB005908E9
:1007B800DA005B08D9004808DB004C08C8005B0871
:1007C800CC004908DB004D08C9005B08CD004A0889
:1007D800DB004E08CA005B08CE004B08DB004F0860
:1007E800CB005B08CF00DB015908D000D1015108CC
:1007F800D3005A085002D200031CD3035308803A8E
:10080800FF0080307F02031D0B2C1A305202031C9C
:100818000E2C0F2C462C831203134B084A04490450
:100828004804031D182C1A2C01301B2C0030DB0047
:100838000030CB000030CA000030C9000030C800CA
:100848005908DA004E2C5B1C2A2C2B2C322C5B0806
:10085800D0000310500C0138DB00342C0310DB0CE3
:10086800481C372C382C392CDB170130D0004B0DA5
:10087800CB0CCA0CC90CC80CD00B3B2C0130D000D7
:100888005008DA078312031359085A02031C4D2C27
:100898004E2C272C581B512C522C9B2C5A08031DCC
:1008A800562C572C602C0030CB000030CA0000308A
:1008B800C9000030C800C72D4C08C8074D080311EF
:1008C8000318013E0319692CC9074E0803110318C0
:1008D800013E0319702CCA074F0803110318013E83
:1008E8000319772CCB074B1C7A2C7B2C4F2D5B1CC8
:1008F8007E2C7F2C862C5B08D0000310500C01380E
:10090800DB00882C0310DB0C481C8B2C8C2C8D2CCA
:10091800DB170130D0004B0DCB0CCA0CC90CC80C2E
:10092800D00B8F2C0130D0005008DA074F2D4B0820
:10093800803AFF004F08803A7F02031DAD2C4E0815
:100948004A02031DAD2C4D084902031DAD2C4C086D
:1009580048020318B02CB12C092DFF30D000FF300D
:10096800D100FF30D200FF30D3004C08D4004D082E
:10097800D5004E08D6004F08D7004808D4024908C9
:10098800031C490FC82CC92CD5024A08031C4A0F5E
:10099800CE2CCF2CD6024B08031C4B0FD42CD52CB5
:1009A800D7025408D00755080318550FDC2CDD2C46
:1009B800D10756080318560FE22CE32CD207570824
:1009C8000318570AD3075308CB005208CA00510826
:1009D800C9005008C8008030D0005008D806DB098C
:1009E800DB0A5B08031DF92CFA2C172D0130C80708
:1009F800003003180130C907003003180130CA0756
:100A0800003003180130CB07172D4C08C8024D08D9
:100A1800031C4D0FC9024E08031C4E0FCA024F0893
:100A2800031C4F0FCB024B084A0449044804031D1A
:100A38001E2D1F2D4B2D5B08031D232D242D4B2D03
:100A48000030CB000030CA000030C9000030C800B8
:100A5800C72D0130D0000310C80DC90DCA0DCB0D2C
:100A6800D00B2F2DDB1F392D3A2D3B2D48145B1C45
:100A78003E2D3F2D422D0314DB0D442D0310DB0DBD
:100A88005A080319482D492D4B2D0130DA02CA1F87
:100A98004E2D4F2D2D2DD901DB1F532D542D622D99
:100AA8005B087F390319592D5A2D5D2DD901D90AB3
:100AB800622D481C602D612D622D5A2D590803198D
:100AC800662D672D9B2D0130C807003003180130B3
:100AD800C907003003180130CA0700300318013075
:100AE800CB074B1C782D792D9B2D4808D000490841
:100AF800D1004A08D2004B08D3000130D400530D6E
:100B0800D30CD20CD10CD00CD40B832D5308CB00B2
:100B18005208CA005108C9005008C8005A0A0319E7
:100B2800962D972D9B2D0130D0005008DA075A0AD0
:100B380003199F2DA02DA52D5A08031DA42DA52D01
:100B4800B32D0030CB000030CA000030C90000309F
:100B5800C8005A08031DB12DB22DB32DD8015A1C57
:100B6800B62DB72DB92DCA17BD2D7F30D00050082E
:100B7800CA055A08D0000310500CCB00D81FC52D49
:100B8800C62DC72DCB170800C330831203139F054A
:100B9800033083120313E600E60BD02D83120313F0
:100BA8009F149F18D82DD92DD52D0C130A128A11F0
:100BB80063270A128A11780883120313E600E60EE7
:100BC80017086606CF39660697007608950028301C
:100BD80083120313E600E60BEF2DF22D83120313A5
:100BE8001F08C33904389F00033083120313E6003B
:100BF800E60BFC2D831203139F149F18042E052E59
:100C0800012E0C130A128A1163270A128A11780816
:100C1800013983120313E600E60E1D086606EF3954
:100C280066069D007908E7007808E6000310E70CDF
:100C3800E60C66080139E800E80EE80D1D086806AC
:100C4800DF3968069D0076089B002830831203135D
:100C5800E600E60B2D2E302E831203131F08C3392E
:100C680008389F00033083120313E600E60B3A2E80
:100C7800831203139F149F18422E432E3F2E0C13EA
:100C88000030AD00AE00FF30AF000030B0000130E2
:100C9800B1000030B2001130B3000030B4001E08BB
:100CA8000A128A157D260A128A11831203132E0846
:100CB80083160313A500831203132D088316031349
:100CC800A400283083120313E600E60B692E6C2E6D
:100CD800831203131F08C3390C389F000330831293
:100CE8000313E600E60B762E831203139F149F1856
:100CF8007E2E7F2E7B2E0C130030AD00AE00FF3011
:100D0800AF000030B0000130B1000030B200113047
:100D1800B3000030B4001E080A128A157D260A1294
:100D28008A11831203132E0883160313A300831258
:100D380003132D0883160313A2002830831203130C
:100D4800E600E60BA52EA82E080083120313A800C0
:100D580028080319B02EB12EC52EA31FB42EB52E08
:100D6800C52E2009AA002109AB002209AC002309DD
:100D7800AD00AA0A0319AB0A0319AC0A0319AD0A94
:100D8800CD2E2308AD002208AC002108AB002008B6
:100D9800AA002308220421042004031DD42ED52EE2
:100DA800DE2E0030A3000030A2000030A100003089
:100DB800A000622F9630A900EE2E0130A40024086E
:100DC800A90701300310AD0CAC0CAB0CAA0CFF3E0C
:100DD800031DE62EFE302D05031DF32EF42EE12E05
:100DE800102F0130A4002408A9070130AA070030F9
:100DF80003180130AB07003003180130AC0700308E
:100E080003180130AD0701300310AD0CAC0CAB0C6E
:100E1800AA0CFF3E031D082FFF302D05031D152FBB
:100E2800162FF52E222F0130A9020130A40003103D
:100E3800AA0DAB0DAC0DAD0DA40B1B2FAC1B252FB4
:100E4800262F2C2F0230290203182B2F2C2F172F77
:100E580029182F2F302F382FFF30AA05FF30AB0568
:100E68007F30AC05FF30AD050310A90C2908A4009C
:100E7800A501A601A70118300310A40DA50DA60D04
:100E8800A70DFF3E031D402F2408AA042508AB0424
:100E98002608AC042708AD0428080319542F552F39
:100EA8005A2FA31F582F592F5A2FAD172D08A300BB
:100EB8002C08A2002B08A1002A08A000080083160D
:100EC80003131E08AA0006300310AA0CFF3E031DD8
:100ED800682F831203131E0883160313AB00AC019B
:100EE8000310AB0DAC0D0310AB0DAC0D2A082B078E
:100EF800AD000030031801302C07AE002D08A80003
:100F08002E08A900280883120313A00083160313D0
:100F1800290883120313A100A201A30100300A12B9
:100F28008A11A9260A128A11831203132308B5000D
:100F38002208B4002108B3002008B2003D30B100F7
:100F48000730B0002B30AF000230AE000A128A1111
:100F58002B200A128A11831203133108CF0030089C
:100F6800CE002F08CD002E08CC004230CB00003038
:100F7800CA000030C9000030C8000A128A11702364
:100F88000A128A11831203134B08DF004A08DE0095
:100F98004908DD004808DC000A128A1588270A1269
:100FA8008A11831203135D08EB005C08EA00033022
:100FB8006A05F80000306B05F9006B088316031307
:100FC800AB00831203136A0883160313AA000310E5
:100FD800AB0CAA0C0310AB0CAA0CFF302A05F600C8
:080FE80000302B05F7000800A2
:101A66008B178B160B118316031381128111010834
:101A7600F83903388100F03083120313810008001F
:101A86004D2D452D462D472D0130F0020030031C0B
:101A9600F103F10270087104031D522D532D442DDC
:101AA6000800831603178901831203138501870132
:101AB600880183160313880187010C178312031309
:101AC6000C138B150B100730831603139600073083
:101AD6009500811308008316031387149B30920028
:101AE6000F30831203139D04780C031C9D120318F8
:101AF6009D161D1676089B008C108C1C832D842D3C
:101B0600802D831603138710080083160313071509
:101B16009B3092000C308312031397007808F40070
:101B2600F40E17087406CF397406970076089500E8
:101B36008C100330920412158C1CA22DA32D9F2D00
:101B46008316031307110800F401F501831203132A
:101B5600201CAE2DAF2DB52D2208F4070318F50A6B
:101B66002308F50701300310A20DA30DFF3E031D48
:101B7600B62D01300310A10CA00CFF3E031DBD2D98
:101B860020082104031DC82DC92DA92D7508A10003
:101B96007408A0000800F40007307406031DD42D55
:101BA600D52DD92D7030831603138F040630740695
:101BB600031DDE2DDF2DE52D831603130F088F3948
:101BC60060388F0003307406031DEA2DEB2DF12DCE
:101BD600831603130F088F3930388F0083160313CB
:101BE6000F14080083120313A600A201A3017408B0
:101BF600A000A1012008A4002108A500261C042E8F
:101C0600052E0B2E2408A2070318A30A2508A307EE
:101C160001300310A40DA50DFF3E031D0C2E03106D
:101C2600A60C2608031D182E192E012E2308F500D2
:101C36002208F4000800831603178901831603138C
:101C460005148316031708148316031385148316C5
:101C5600031788148316031305158316031708152F
:101C6600831603138515831603178815831203132A
:101C76009F131F17831603139F121F129F1383129E
:101C860003131F140330F400F40B472E4A2E0800EA
:101C96000A128A1554250A128A1503300A128A1561
:101CA600CE250A128A150A128A151E260A128A15C6
:101CB6000A128A1588250A128A150A128A156E25AD
:101CC6000A128A150A128A1533250A128A158316EC
:101CD6000313A601A7010A128A11C8250A128A153A
:101CE600033083120313E900E90B772E6E2E0A12D6
:101CF6008A110C2883120313B6002D082F02A400A4
:101D06002E08031C2E0A3002A5003608B5002D0841
:101D16003502A0002E090318013EA1003108330246
:101D2600A2003208031C320A3402A3000A128A15E2
:101D3600A7250A128A15831203132108A700200873
:101D4600A6000A128A15B4260A128A1583120313EC
:101D560031082407AD0032080318320A2507AE0001
:101D6600080083120313AA01A51FBA2EBB2EC22E8A
:101D7600A409A509A40A0319A50AAA01AA0AA71F64
:101D8600C52EC62ECF2EA609A709A60A0319A70A8D
:101D96000130A8002808AA06AB01AC0124082504D6
:101DA6000319D62ED72E0E2FA901A90AE52E01302A
:101DB6000310A40DA50DFF3E031DDB2E0130A80068
:101DC6002808A907A51FE82EE92EDA2E01300310F0
:101DD600AB0DAC0DFF3E031DEA2E25082702031DA1
:101DE600F62E24082602031CF92EFA2E012F2408AB
:101DF600A6022508031CA703A7022B140130031013
:101E0600A50CA40CFF3E031D022F0130A902031DE1
:101E16000D2F0E2FE92E2A080319122F132F182F14
:101E2600AB09AC09AB0A0319AC0A2C08A5002B08B0
:101E3600A40008000B1D202F212F452F0B11F63073
:101E46008312031381008715831603132508F100F7
:101E56002408F0000A128A1543250A128A158312ED
:101E6600031387110714831603132308F1002208AE
:101E7600F0000A128A1543250A128A1583120313E3
:101E860007100B110B1C482F492F812F83120313A8
:101E960006184E2F4F2F812F0B1D522F532F812F98
:101EA6000B11F63081008715831603132508F10000
:101EB6002408F0000A128A1543250A128A1583128D
:101EC600031387110714831603132308F10022084E
:101ED600F0000A128A1543250A128A158312031383
:101EE60007100B11013083160313A6070318A70A60
:101EF6000030A707013083120313880073088A0095
:101F0600720E8300FE0E7E0E090003108312031369
:101F16005E0D5F0DE5006508031D922F932F9C2F24
:101F26000030DF000030DE000030DD000030DC0075
:101F3600FF2F5C08E0005D08E1005E08E2005F0834
:101F4600E3001F300310E30CE20CE10CE00CFF3E53
:101F5600031DA52F6008E400DE17FF30DC05FF3007
:101F6600DD05FF30DE050030DF059630E502E51FB2
:101F7600BD2FBE2FD82F6508803A973E0318C42F71
:101F8600C52FC62F932F01300310DF0CDE0CDD0C9E
:101F9600DC0CFF3E031DC72F0130E0006008E5079B
:101FA600031DD62FD72FC62FEF2F20306502031C17
:101FB600DD2FDE2FEA2F932F0130E0000310DC0D1A
:101FC600DD0DDE0DDF0DE00BE12F0130E5026508CA
:101FD600031DEE2FEF2FDF2F64080319F32FF42FC5
:101FE600FF2FDC09DD09DE09DF09DC0A0319DD0A3A
:0A1FF6000319DE0A0319DF0A0800D0
:08400000FF3FFF3FFF3FFF3FC0
:04400E00D420FF3F7C
:00000001FF
