:060000000A128A110C280F
:10000800FE00030EFA000A08FB000A128A15BB2E2E
:100018000A128A110F28F001F101F201F301F4012B
:10002800F50183160313A001A101A201A301A401F4
:10003800A501A601A701A801A90183010A128A1531
:10004800592E8312031331088039BB003108B600DA
:100058003607C100B01F312832283328411441081F
:100068000319372838284728410A031D3C283D280A
:1000780045280030B1000030B0000030AF0000303B
:10008800AE00B0174F280030B1000030B00000308B
:10009800AF000030AE0035088039B6003608BB0620
:1000A8003508B6003607BC00B41F5B285C285D28FD
:1000B8003C143C0803196128622871283C0A031D76
:1000C800662867286F280030B5000030B40000307B
:1000D800B3000030B200B41779280030B500003002
:1000E800B4000030B3000030B2003C0803197D288A
:1000F8007E2883284108031D822883288C28003005
:10010800B1000030B0000030AF000030AE00692B05
:100118002E08A00034080A128A15A0250A128A118E
:10012800831203132108C7002008C6004608B6003A
:10013800B701B801B9013908C0003808BF0037084D
:10014800BE003608BD004708B600B701B801B901BE
:100158003908C5003808C4003708C3003608C2008B
:100168002F08A00033080A128A15A0250A128A113E
:10017800831203132108C7002008C6004608B600EA
:10018800B701B801B9013608BD07370803110318CC
:10019800013E0319D028BE07380803110318013E91
:1001A8000319D728BF07390803110318013E03199B
:1001B800DE28C0074708B600B701B801B9013608FC
:1001C800C207370803110318013E0319EC28C307B7
:1001D800380803110318013E0319F328C407390826
:1001E80003110318013E0319FA28C5073008A000B7
:1001F80032080A128A15A0250A128A1183120313DB
:100208002108C7002008C6004608B600B701B80193
:10021800B9013608BD07370803110318013E031951
:100228001629BE07380803110318013E03191D29B2
:10023800BF07390803110318013E03192429C00711
:100248004708B600B701B801B9013608C207370830
:1002580003110318013E03193229C3073808031193
:100268000318013E03193929C40739080311031873
:10027800013E03194029C5070830B6000310BD0D1B
:10028800BE0DBF0DC00DB60B42292F08A0003208C5
:100298000A128A15A0250A128A118312031321084B
:1002A800C7002008C6004608B6004708B700B801CE
:1002B800B9013608BD07370803110318013E0319B1
:1002C8006629BE07380803110318013E03196D2972
:1002D800BF07390803110318013E03197429C00721
:1002E8002E08A00033080A128A15A0250A128A11BE
:1002F800831203132108C7002008C6004608B60069
:100308004708B700B801B9013608BD073708031117
:100318000318013E03199129BE0738080311031871
:10032800013E03199829BF07390803110318013E34
:1003380003199F29C0070830B6000310BD0DBE0D74
:10034800BF0DC00DB60BA1292E08A00032080A1255
:100358008A15A0250A128A11831203132108C700DF
:100368002008C6004608B6004708B700B801B9011A
:100378003608BD07370803110318013E0319C529BC
:10038800BE07380803110318013E0319CC29BF071B
:10039800390803110318013E0319D329C0072F0890
:1003A800A00034080A128A15A0250A128A1183129D
:1003B80003132108C7002008C6004608B6004708EE
:1003C800B700B801B9013608C20737080311031886
:1003D800013E0319F029C307380803110318013E29
:1003E8000319F729C407390803110318013E031933
:1003F800FE29C5073008A00033080A128A15A0256F
:100408000A128A11831203132108C7002008C600A4
:100418004608B6004708B700B801B9013608C20750
:10042800370803110318013E03191B2AC3073808AC
:1004380003110318013E0319222AC40739080311BE
:100448000318013E0319292AC5073008A0003408FB
:100458000A128A15A0250A128A1183120313210889
:10046800C7002008C6004608B6004708B700B8010C
:10047800B90108300310B60DB70DB80DB90DFF3E20
:10048800031D3E2A3608C207370803110318013E28
:1004980003194F2AC307380803110318013E03192B
:1004A800562AC407390803110318013E03195D2AA7
:1004B800C5073D08B6003E08B7003F08B800400829
:1004C800B90018300310B90CB80CB70CB60CFF3EC5
:1004D800031D662A3608C207370803110318013EB0
:1004E8000319772AC307380803110318013E0319B3
:1004F8007E2AC407390803110318013E0319852A07
:10050800C5070830B6000310BD0DBE0DBF0DC00DE8
:10051800B60B872A41083C07B600B701B70D360865
:10052800823EC60037080318013EFF3EC700B92ABD
:100538000130B6000310C20DC30DC40DC50DB60BB6
:100548009E2AC01FA82AA92AAA2A42140130B60046
:100558000310BD0DBE0DBF0DC00DB60BAC2AFF308C
:10056800C6070318C70AFF30C707C41FBC2ABD2A1D
:100578009C2ABC01C01FC12AC22ADE2AFF303D05C1
:10058800B600FF303E05B700FF303F05B8007F30AA
:100598004005B90039083804370436040319D52A48
:1005A800D62AD92ABC01BC0ADE2A421CDC2ADD2A4A
:1005B800DE2AD62A3C080319E22AE32A142B013042
:1005C800C207003003180130C30700300318013098
:1005D800C407003003180130C507451CF42AF52A62
:1005E800142B4208B6004308B7004408B800450871
:1005F800B9000130BA00390DB90CB80CB70CB60CFB
:10060800BA0BFF2A3908C5003808C4003708C300E8
:100618003608C2000130C6070318C70A0030C707EA
:100628004708803AFF0080307F02031D1D2BFF30F2
:100638004602031C202B212B2C2B7F308312031303
:10064800C5008030C4000030C3000030C2005D2BFC
:10065800831203134708803AFF0080307F02031D8E
:10066800372B0130460203183A2B3B2B472B00301F
:1006780083120313C5000030C4000030C3000030EB
:10068800C200BB015D2B831203134608C100FF3073
:10069800C205FF30C3057F30C4050030C505411CC5
:1006A800562B572B582BC4174108B6000310360C8D
:1006B800C5003B08B6003608C5044508B100440823
:1006C800B0004308AF004208AE00080083120313CD
:1006D8004B088039D8004B08D0005007DA00CA1FF1
:1006E800762B772B782B5A145A0803197C2B7D2BE1
:1006F8008D2B5A0A031D812B822B8A2B0030CB00AD
:100708000030CA000030C9000030C800CA17CB0149
:10071800952B0030CB000030CA000030C9000030F3
:10072800C8004F088039D9005908580603199D2B6D
:100738009E2B9F2B58174F08D0005007D900CE1F6B
:10074800A62BA72BA82B591459080319AC2BAD2B92
:10075800BD2B590A031DB12BB22BBA2B0030CF0089
:100768000030CE000030CD000030CC00CE17CF01D5
:10077800C52B0030CF000030CE000030CD00003057
:10078800CC005A0859020318CA2BCB2BF12B581F3F
:10079800CE2BCF2BD32B8030D0005008D8065A0848
:1007A800DB005908DA005B08D9004808DB004C0870
:1007B800C8005B08CC004908DB004D08C9005B088D
:1007C800CD004A08DB004E08CA005B08CE004B0883
:1007D800DB004F08CB005B08CF00DB015908D000D5
:1007E800D1015108D3005A085002D200031CD30388
:1007F8005308803AFF0080307F02031D052C1A3011
:100808005202031C082C092C402C831203134B089A
:100818004A0449044804031D122C142C0130152CD9
:100828000030DB000030CB000030CA000030C900C7
:100838000030C8005908DA00482C5B1C242C252CF1
:100848002C2C5B08D0000310500C0138DB002E2C38
:100858000310DB0C481C312C322C332CDB170130F5
:10086800D0004B0DCB0CCA0CC90CC80CD00B352CC6
:100878000130D0005008DA078312031359085A02CE
:10088800031C472C482C212C581B4B2C4C2C952CEA
:100898005A08031D502C512C5A2C0030CB00003024
:1008A800CA000030C9000030C800C12D4C08C80774
:1008B8004D0803110318013E0319632CC9074E089C
:1008C80003110318013E03196A2CCA074F080311C4
:1008D8000318013E0319712CCB074B1C742C752C83
:1008E800492D5B1C782C792C802C5B08D0000310D8
:1008F800500C0138DB00822C0310DB0C481C852CC3
:10090800862C872CDB170130D0004B0DCB0CCA0C82
:10091800C90CC80CD00B892C0130D0005008DA075C
:10092800492D4B08803AFF004F08803A7F02031D8B
:10093800A72C4E084A02031DA72C4D084902031D87
:10094800A72C4C0848020318AA2CAB2C032DFF3007
:10095800D000FF30D100FF30D200FF30D3004C0868
:10096800D4004D08D5004E08D6004F08D7004808D7
:10097800D4024908031C490FC22CC32CD5024A08CB
:10098800031C4A0FC82CC92CD6024B08031C4B0F5A
:10099800CE2CCF2CD7025408D00755080318550F72
:1009A800D62CD72CD10756080318560FDC2CDD2C73
:1009B800D20757080318570AD3075308CB00520821
:1009C800CA005108C9005008C8008030D00050083B
:1009D800D806DB09DB0A5B08031DF32CF42C112D68
:1009E8000130C807003003180130C9070030031868
:1009F8000130CA07003003180130CB07112D4C080D
:100A0800C8024D08031C4D0FC9024E08031C4E0FA7
:100A1800CA024F08031C4F0FCB024B084A04490473
:100A28004804031D182D192D452D5B08031D1D2D88
:100A38001E2D452D0030CB000030CA000030C90003
:100A48000030C800C12D0130D0000310C80DC90DF9
:100A5800CA0DCB0DD00B292DDB1F332D342D352D91
:100A680048145B1C382D392D3C2D0314DB0D3E2D0D
:100A78000310DB0D5A080319422D432D452D013073
:100A8800DA02CA1F482D492D272DD901DB1F4D2D0C
:100A98004E2D5C2D5B087F390319532D542D572D8E
:100AA800D901D90A5C2D481C5A2D5B2D5C2D542D7B
:100AB80059080319602D612D952D0130C8070030A4
:100AC80003180130C907003003180130CA07003085
:100AD80003180130CB074B1C722D732D952D480838
:100AE800D0004908D1004A08D2004B08D300013091
:100AF800D400530DD30CD20CD10CD00CD40B7D2DBB
:100B08005308CB005208CA005108C9005008C80051
:100B18005A0A0319902D912D952D0130D0005008B7
:100B2800DA075A0A0319992D9A2D9F2D5A08031D81
:100B38009E2D9F2DAD2D0030CB000030CA00003017
:100B4800C9000030C8005A08031DAB2DAC2DAD2DCF
:100B5800D8015A1CB02DB12DB32DCA17B72D7F302F
:100B6800D0005008CA055A08D0000310500CCB001A
:100B7800D81FBF2DC02DC12DCB170800C33083123D
:100B880003139F05033083120313EB00EB0BCA2DED
:100B9800831203139F149F18D22DD32DCF2D0C131E
:100BA8000A128A115D270A128A1172088312031326
:100BB800EB00EB0E17086B06CF396B069700700831
:100BC8009500283083120313EB00EB0BE92DEC2D75
:100BD800831203131F08C33904389F00033083129C
:100BE8000313EB00EB0BF62D831203139F149F18CE
:100BF800FE2DFF2DFB2D0C130A128A115D270A12F8
:100C08008A117208013983120313EB00EB0E1D08D9
:100C18006B06EF396B069D007308EC007208EB0059
:100C28000310EC0CEB0C6B080139ED00ED0EED0D2B
:100C38001D086D06DF396D069D0070089B00283081
:100C480083120313EB00EB0B272E2A2E83120313B8
:100C58001F08C33908389F00033083120313EB00C1
:100C6800EB0B342E831203139F149F183C2E3D2E3A
:100C7800392E0C130030AF00B000FF30B100003047
:100C8800B2000130B3000030B4001130B5000030BC
:100C9800B6001E080A128A1522260A128A11831221
:100CA8000313300883160313A500831203132F08B8
:100CB80083160313A400283083120313EB00EB0BF5
:100CC800632E662E831203131F08C3390C389F0046
:100CD800033083120313EB00EB0B702E8312031304
:100CE8009F149F18782E792E752E0C130030AF00A4
:100CF800B000FF30B1000030B2000130B300003066
:100D0800B4001130B5000030B6001E080A128A156A
:100D180022260A128A11831203133008831603133A
:100D2800A300831203132F0883160313A20028308D
:100D380083120313EB00EB0B9F2EA22E08008312E5
:100D48000313A80028080319AA2EAB2EBF2EA31F31
:100D5800AE2EAF2EBF2E2009AA002109AB00220912
:100D6800AC002309AD00AA0A0319AB0A0319AC0A9F
:100D78000319AD0AC72E2308AD002208AC002108CC
:100D8800AB002008AA002308220421042004031D24
:100D9800CE2ECF2ED82E0030A3000030A200003077
:100DA800A1000030A0005C2F9630A900E82E013089
:100DB800A4002408A90701300310AD0CAC0CAB0C3F
:100DC800AA0CFF3E031DE02EFE302D05031DED2E5F
:100DD800EE2EDB2E0A2F0130A4002408A9070130CB
:100DE800AA07003003180130AB07003003180130A0
:100DF800AC07003003180130AD0701300310AD0C0B
:100E0800AC0CAB0CAA0CFF3E031D022FFF302D05C6
:100E1800031D0F2F102FEF2E1C2F0130A9020130B8
:100E2800A4000310AA0DAB0DAC0DAD0DA40B152F2E
:100E3800AC1B1F2F202F262F023029020318252F25
:100E4800262F112F2918292F2A2F322FFF30AA05D4
:100E5800FF30AB057F30AC05FF30AD050310A90CA2
:100E68002908A400A501A601A70118300310A40DA4
:100E7800A50DA60DA70DFF3E031D3A2F2408AA04B1
:100E88002508AB042608AC042708AD042808031974
:100E98004E2F4F2F542FA31F522F532F542FAD17C0
:100EA8002D08A3002C08A2002B08A1002A08A000E6
:100EB8000800831603131E0883120313E600063086
:100EC8000310E60CFF3E031D642F1E08E700E8012F
:100ED8000310E70DE80D0310E70DE80D6608670736
:100EE800E9000030031801306807EA006908831632
:100EF8000313A800831203136A0883160313A900B7
:100F0800280883120313A0008316031329088312E9
:100F18000313A100A201A30100300A128A11A3261B
:100F28000A128A11831203132308B5002208B40099
:100F38002108B3002008B2003D30B1000730B000EE
:100F48002B30AF000230AE000A128A1125200A1297
:100F58008A11831203133108CF003008CE002F08FE
:100F6800CD002E08CC004230CB000030CA00003043
:100F7800C9000030C8000A128A116A230A128A11AD
:100F8800831203134B08DF004A08DE004908DD001E
:100F98004808DC000A128A1588270A128A11831267
:100FA80003135D0883160313A700831203135C0859
:100FB80083160313A60003302605F2000030270528
:100FC800F300270883120313E70083160313260888
:100FD80083120313E6000310E70CE60C0310E70C7A
:100FE800E60CFF306605F00000306705F1000800E8
:101A0A008B178B160B118316031381128111010890
:101A1A00F83903388100F03083120313810008007B
:101A2A001F2D172D182D192D0130F6020030031C19
:101A3A00F703F70276087704031D242D252D162DAA
:101A4A00080083160317890183120313850187018E
:101A5A00880183160313880187010C178312031365
:101A6A000C138B150B1007308316031396000730DF
:101A7A009500811308008316031387149B30920084
:101A8A000F30831203139D04720C031C9D1203185A
:101A9A009D161D1670089B008C108C1C552D562DFA
:101AAA00522D831603138710080083160313071594
:101ABA009B3092000C308312031397007208A00027
:101ACA00A00E17082006CF39200697007008950047
:101ADA008C100330920412158C1C742D752D712DE7
:101AEA00831603130711080083120313A401A50127
:101AFA00201C802D812D872D2208A4070318A50AF2
:101B0A002308A50701300310A20DA30DFF3E031DF4
:101B1A00882D01300310A10CA00CFF3E031D8F2D50
:101B2A0020082104031D9A2D9B2D7D2D2508A10037
:101B3A002408A000080083120313A800A401A50129
:101B4A002008A200A3012208A6002308A700281C37
:101B5A00AF2DB02DB62D2608A4070318A50A27080D
:101B6A00A50701300310A60DA70DFF3E031DB72DD3
:101B7A000310A80C2808031DC32DC42DAC2D25085D
:101B8A00A1002408A000080083120313A000073054
:101B9A002006031DD12DD22DD62D703083160313A6
:101BAA008F04063083122006031DDC2DDD2DE32D64
:101BBA00831603130F088F3960388F00033083129E
:101BCA002006031DE92DEA2DF02D831603130F08B5
:101BDA008F3930388F00831603130F1408008316C9
:101BEA0003178901831603130514831603170814B0
:101BFA008316031385148316031788148316031395
:101C0A0005158316031708158316031385158316FE
:101C1A0003178815831203139F131F1783160313C1
:101C2A009F121F129F13831203131F140330831270
:101C3A000313A000A00B1F2E080083120313B80081
:101C4A002F083102A6003008031C300A3202A7000E
:101C5A003808B7002F083702A00030090318013EE0
:101C6A00A10033083502A2003408031C340A3602E4
:101C7A00A3000A128A1579250A128A1583120313F8
:101C8A002108A9002008A8000A128A151F270A128B
:101C9A008A158312031333082607AF003408031882
:101CAA00340A2707B00008000A128A1526250A12E4
:101CBA008A1503300A128A15C9250A128A150A12C8
:101CCA008A15F4250A128A150A128A155A250A1241
:101CDA008A150A128A1540250A128A150A128A15C5
:101CEA0005250A128A15F401F50174087504031D05
:101CFA007F2E802E902E01308312031388000A1241
:101D0A008A11C2250A128A15013083160313960016
:101D1A0001309500B12E74037504031D952E962E7D
:101D2A00A62E02308312031388000A128A11C225D2
:101D3A000A128A1507308316031396000730950096
:101D4A00B12E00307502023003197402031CAE2E44
:101D5A00AF2EB12EF401F501033083120313EE0006
:101D6A00EE0BB52E7A2E0A128A110C280B1DBE2EE6
:101D7A00BF2EE32E0B11F630831203138100871551
:101D8A00831603132508F7002408F6000A128A1599
:101D9A0015250A128A15831203138711071483164D
:101DAA0003132308F7002208F6000A128A151525DC
:101DBA000A128A158312031307100B110B1CE62E45
:101DCA00E72E182F831203130618EC2EED2E042F7C
:101DDA000330F9006E30F800F80BF12EF90BF12EF2
:101DEA0083120313061CFA2EFB2E042F7408013EDD
:101DFA00F40075080318013E003EF5000B10861822
:101E0A00072F082F182F0330F9006E30F800F80B4F
:101E1A000C2FF90B0C2F83120313861C152F162F68
:101E2A00182F88150B107B088A007A0E8300FE0E85
:101E3A007E0E090083120313AC01A71F252F262F3C
:101E4A002D2FA609A709A60A0319A70AAC01AC0AED
:101E5A00A91F302F312F3A2FA809A909A80A031957
:101E6A00A90A0130AA002A08AC06AD01AE0126086B
:101E7A0027040319412F422F792FAB01AB0A502FA8
:101E8A0001300310A60DA70DFF3E031D462F01309A
:101E9A00AA002A08AB07A71F532F542F452F01303A
:101EAA000310AD0DAE0DFF3E031D552F2708290265
:101EBA00031D612F26082802031C642F652F6C2F2F
:101ECA002608A8022708031CA903A9022D14013019
:101EDA000310A70CA60CFF3E031D6D2F0130AB02A9
:101EEA00031D782F792F542F2C0803197D2F7E2F4D
:101EFA00832FAD09AE09AD0A0319AE0A2E08A70051
:101F0A002D08A60008000310831203135E0D5F0D4F
:101F1A00E5006508031D922F932F9C2F0030DF00E8
:101F2A000030DE000030DD000030DC00FF2F5C08EE
:101F3A00E0005D08E1005E08E2005F08E3001F3090
:101F4A000310E30CE20CE10CE00CFF3E031DA52F8D
:101F5A006008E400DE17FF30DC05FF30DD05FF30E6
:101F6A00DE050030DF059630E502E51FBD2FBE2FE6
:101F7A00D82F6508803A973E0318C42FC52FC62F5D
:101F8A00932F01300310DF0CDE0CDD0CDC0CFF3E5E
:101F9A00031DC72F0130E0006008E507031DD62F97
:101FAA00D72FC62FEF2F20306502031CDD2FDE2F1F
:101FBA00EA2F932F0130E0000310DC0DDD0DDE0D5A
:101FCA00DF0DE00BE12F0130E5026508031DEE2F5E
:101FDA00EF2FDF2F64080319F32FF42FFF2FDC09EB
:101FEA00DD09DE09DF09DC0A0319DD0A0319DE0A45
:061FFA000319DF0A0800D4
:08400000FF3FFF3FFF3FFF3FC0
:04400E00D420FF3F7C
:00000001FF
