:060000000A128A110C280F
:10000800FE00030EF2000A08F3000A128A15FB2DFF
:100018000A128A110F28F601F701F801F901831273
:100028000313E901EA01EB01EC01ED01EE01831391
:10003800A0308400C3300A128A15E3220A128A11FA
:1000480083010A128A11C52D8312031331088039DE
:10005800BB003108B6003607C100B01F3428352868
:1000680036284114410803193A283B284A28410AEE
:10007800031D3F28402848280030B1000030B00058
:100088000030AF000030AE00B01752280030B10089
:100098000030B0000030AF000030AE0035088039C5
:1000A800B6003608BB063508B6003607BC00B41FD4
:1000B8005E285F2860283C143C08031964286528DA
:1000C80074283C0A031D69286A2872280030B50084
:1000D8000030B4000030B3000030B200B4177C2800
:1000E8000030B5000030B4000030B3000030B2007A
:1000F8003C0803198028812886284108031D852883
:1001080086288F280030B1000030B0000030AF00E2
:100118000030AE006C2B2E08F40034080A128A1541
:10012800C0230A128A11750883120313C7007408C2
:10013800C6004608B600B701B801B9013908C000C1
:100148003808BF003708BE003608BD004708B600AB
:10015800B701B801B9013908C5003808C400370823
:10016800C3003608C2002F08F40033080A128A15A3
:10017800C0230A128A11750883120313C700740872
:10018800C6004608B600B701B801B9013608BD0770
:10019800370803110318013E0319D328BE0738088E
:1001A80003110318013E0319DA28BF0739080311A0
:1001B8000318013E0319E128C0074708B600B70134
:1001C800B801B9013608C207370803110318013E00
:1001D8000319EF28C307380803110318013E031950
:1001E800F628C407390803110318013E0319FD282E
:1001F800C5073008F40032080A128A15C0230A120B
:100208008A11750883120313C7007408C6004608CC
:10021800B600B701B801B9013608BD0737080311A0
:100228000318013E03191929BE07380803110318DA
:10023800013E03192029BF07390803110318013E9D
:1002480003192729C0074708B600B701B801B90143
:100258003608C207370803110318013E0319352968
:10026800C307380803110318013E03193C29C407C2
:10027800390803110318013E03194329C50708303B
:10028800B6000310BD0DBE0DBF0DC00DB60B452940
:100298002F08F40032080A128A15C0230A128A119C
:1002A800750883120313C7007408C6004608B60011
:1002B8004708B700B801B9013608BD073708031168
:1002C8000318013E03196929BE07380803110318EA
:1002D800013E03197029BF07390803110318013EAD
:1002E80003197729C0072E08F40033080A128A1563
:1002F800C0230A128A11750883120313C7007408F1
:10030800C6004608B6004708B700B801B901360864
:10031800BD07370803110318013E03199429BE07C6
:10032800380803110318013E03199B29BF07390830
:1003380003110318013E0319A229C0070830B600AB
:100348000310BD0DBE0DBF0DC00DB60BA4292E08A0
:10035800F40032080A128A15C0230A128A11750895
:1003680083120313C7007408C6004608B60047087E
:10037800B700B801B9013608BD07370803110318DB
:10038800013E0319C829BE07380803110318013EA6
:100398000319CF29BF07390803110318013E0319B0
:1003A800D629C0072F08F40034080A128A15C0237A
:1003B8000A128A11750883120313C7007408C6004D
:1003C8004608B6004708B700B801B9013608C207A1
:1003D800370803110318013E0319F329C307380826
:1003E80003110318013E0319FA29C4073908031138
:1003F8000318013E0319012AC5073008F400330821
:100408000A128A15C0230A128A1175088312031367
:10041800C7007408C6004608B6004708B700B80108
:10042800B9013608C207370803110318013E03193A
:100438001E2AC307380803110318013E0319252A89
:10044800C407390803110318013E03192C2AC507EC
:100458003008F40034080A128A15C0230A128A11D7
:10046800750883120313C7007408C6004608B6004F
:100478004708B700B801B90108300310B60DB70D29
:10048800B80DB90DFF3E031D412A3608C2073708CB
:1004980003110318013E0319522AC3073808031130
:1004A8000318013E0319592AC40739080311031810
:1004B800013E0319602AC5073D08B6003E08B7008B
:1004C8003F08B8004008B90018300310B90CB80C40
:1004D800B70CB60CFF3E031D692A3608C207370859
:1004E80003110318013E03197A2AC30738080311B8
:1004F8000318013E0319812AC40739080311031898
:10050800013E0319882AC5070830B6000310BD0D3F
:10051800BE0DBF0DC00DB60B8A2A41083C07B600B8
:10052800B701B70D3608823EC60037080318013EEA
:10053800FF3EC700BC2A0130B6000310C20DC30D30
:10054800C40DC50DB60BA12AC01FAB2AAC2AAD2A13
:1005580042140130B6000310BD0DBE0DBF0DC00D15
:10056800B60BAF2AFF30C6070318C70AFF30C70704
:10057800C41FBF2AC02A9F2ABC01C01FC42AC52A7B
:10058800E12AFF303D05B600FF303E05B700FF30D9
:100598003F05B8007F304005B900390838043704F2
:1005A80036040319D82AD92ADC2ABC01BC0AE12A54
:1005B800421CDF2AE02AE12AD92A3C080319E52A45
:1005C800E62A172B0130C207003003180130C30791
:1005D800003003180130C407003003180130C50784
:1005E800451CF72AF82A172B4208B6004308B7001B
:1005F8004408B8004508B9000130BA00390DB90CF3
:10060800B80CB70CB60CBA0B022B3908C500380861
:10061800C4003708C3003608C2000130C6070318F3
:10062800C70A0030C7074708803AFF0080307F02BA
:10063800031D202BFF304602031C232B242B2F2BBA
:100648007F3083120313C5008030C4000030C3001C
:100658000030C200602B831203134708803AFF0062
:1006680080307F02031D3A2B0130460203183D2BD0
:100678003E2B4A2B003083120313C5000030C40000
:100688000030C3000030C200BB01602B831203138B
:100698004608C100FF30C205FF30C3057F30C405DE
:1006A8000030C505411C592B5A2B5B2BC417410838
:1006B800B6000310360CC5003B08B6003608C50462
:1006C8004508B1004408B0004308AF004208AE0036
:1006D8000800831203134B088039D8004B08D00058
:1006E8005007DA00CA1F792B7A2B7B2B5A145A0829
:1006F80003197F2B802B902B5A0A031D842B852BE3
:100708008D2B0030CB000030CA000030C90000300B
:10071800C800CA17CB01982B0030CB000030CA00A4
:100728000030C9000030C8004F088039D900590886
:1007380058060319A02BA12BA22B58174F08D0003D
:100748005007D900CE1FA92BAA2BAB2B5914590837
:100758000319AF2BB02BC02B590A031DB42BB52B93
:10076800BD2B0030CF000030CE000030CD0000306F
:10077800CC00CE17CF01C82B0030CF000030CE0000
:100788000030CD000030CC005A0859020318CD2B98
:10079800CE2BF42B581FD12BD22BD62B8030D00048
:1007A8005008D8065A08DB005908DA005B08D90057
:1007B8004808DB004C08C8005B08CC004908DB008F
:1007C8004D08C9005B08CD004A08DB004E08CA0086
:1007D8005B08CE004B08DB004F08CB005B08CF005E
:1007E800DB015908D000D1015108D3005A08500242
:1007F800D200031CD3035308803AFF0080307F02E5
:10080800031D082C1A305202031C0B2C0C2C432CF1
:10081800831203134B084A0449044804031D152C8A
:10082800172C0130182C0030DB000030CB000030D2
:10083800CA000030C9000030C8005908DA004B2C43
:100848005B1C272C282C2F2C5B08D0000310500C85
:100858000138DB00312C0310DB0C481C342C352C00
:10086800362CDB170130D0004B0DCB0CCA0CC90C51
:10087800C80CD00B382C0130D0005008DA0783128E
:10088800031359085A02031C4A2C4B2C242C581BBE
:100898004E2C4F2C982C5A08031D532C542C5D2C8D
:1008A8000030CB000030CA000030C9000030C8005A
:1008B800C42D4C08C8074D0803110318013E03193D
:1008C800662CC9074E0803110318013E03196D2C45
:1008D800CA074F0803110318013E0319742CCB07EC
:1008E8004B1C772C782C4C2D5B1C7B2C7C2C832C64
:1008F8005B08D0000310500C0138DB00852C031076
:10090800DB0C481C882C892C8A2CDB170130D00082
:100918004B0DCB0CCA0CC90CC80CD00B8C2C01305D
:10092800D0005008DA074C2D4B08803AFF004F08DA
:10093800803A7F02031DAA2C4E084A02031DAA2CE6
:100948004D084902031DAA2C4C0848020318AD2C77
:10095800AE2C062DFF30D000FF30D100FF30D20082
:10096800FF30D3004C08D4004D08D5004E08D600FF
:100978004F08D7004808D4024908031C490FC52C62
:10098800C62CD5024A08031C4A0FCB2CCC2CD60205
:100998004B08031C4B0FD12CD22CD7025408D0077C
:1009A80055080318550FD92CDA2CD1075608031807
:1009B800560FDF2CE02CD20757080318570AD30725
:1009C8005308CB005208CA005108C9005008C80093
:1009D8008030D0005008D806DB09DB0A5B08031D0D
:1009E800F62CF72C142D0130C807003003180130FD
:1009F800C907003003180130CA0700300318013056
:100A0800CB07142D4C08C8024D08031C4D0FC90212
:100A18004E08031C4E0FCA024F08031C4F0FCB028F
:100A28004B084A0449044804031D1B2D1C2D482D5E
:100A38005B08031D202D212D482D0030CB000030F0
:100A4800CA000030C9000030C800C42D0130D000F1
:100A58000310C80DC90DCA0DCB0DD00B2C2DDB1FF3
:100A6800362D372D382D48145B1C3B2D3C2D3F2D42
:100A78000314DB0D412D0310DB0D5A080319452D16
:100A8800462D482D0130DA02CA1F4B2D4C2D2A2D38
:100A9800D901DB1F502D512D5F2D5B087F390319BC
:100AA800562D572D5A2DD901D90A5F2D481C5D2D79
:100AB8005E2D5F2D572D59080319632D642D982D30
:100AC8000130C807003003180130C9070030031887
:100AD8000130CA07003003180130CB074B1C752DB5
:100AE800762D982D4808D0004908D1004A08D20030
:100AF8004B08D3000130D400530DD30CD20CD10CC9
:100B0800D00CD40B802D5308CB005208CA005108D2
:100B1800C9005008C8005A0A0319932D942D982D1E
:100B28000130D0005008DA075A0A03199C2D9D2D70
:100B3800A22D5A08031DA12DA22DB02D0030CB00E7
:100B48000030CA000030C9000030C8005A08031D30
:100B5800AE2DAF2DB02DD8015A1CB32DB42DB62D06
:100B6800CA17BA2D7F30D0005008CA055A08D000DD
:100B78000310500CCB00D81FC22DC32DC42DCB178A
:100B880008000A128A1539230A128A1103300A1238
:100B98008A1599230A128A110A128A150C230A1235
:100BA8008A110A128A1515240A128A110A128A153C
:100BB80053230A128A110A128A11E3270A128A1188
:100BC8000A128A15EB220A128A11F801F901F601B4
:100BD800F70178087904031DF22DF32D7A2E0A12F5
:100BE8008A151D270A128A110A128A15C7240A12A1
:100BF8008A110A128A1579240A128A118316031394
:100C080033033404031D092E0A2E732E7608770445
:100C1800031D0F2E102E152E83120313E901EA016E
:100C28003E2E76037704031D1A2E1B2E222E043027
:100C380083120313E9000030EA003E2E02307606E4
:100C48007704031D282E292E302E08308312031313
:100C5800E9000030EA003E2E033076067704031DD3
:100C6800362E372E3E2E0C3083120313E900003047
:100C7800EA003E2E83121508F40069080A128A1544
:100C8800E9230A128A11831203131B08F400690866
:100C9800013E0A128A15E9230A128A1183160313E0
:100CA8003908F400831203136908023E0A128A15F0
:100CB800E9230A128A11831603133708F4008312F2
:100CC80003136908033E0A128A15E9230A128A11D6
:100CD80083160313B301B40183120313871203307D
:100CE80083160313C800C80B772E1F2F78037904C7
:100CF800031D7F2E802E002F0A128A15C7240A1280
:100D08008A110A128A1579240A128A118316031382
:100D180033033404031D912E922E1F2F7608770477
:100D2800031D972E982E9D2E83120313E901EA01C5
:100D3800C62E76037704031DA22EA32EAA2E0430F6
:100D480083120313E9000030EA00C62E023076064B
:100D58007704031DB02EB12EB82E0830831203136A
:100D6800E9000030EA00C62E033076067704031D3A
:100D7800BE2EBF2EC62E0C3083120313E90000309E
:100D8800EA00C62E831269080A128A1522230A125B
:100D98008A118312031395006908013E0A128A1505
:100DA80022230A128A11831203139B006908023E48
:100DB8000A128A1522230A128A1183160313C800FD
:100DC800C9014808B9004908BA0083120313690821
:100DD800033E0A128A1522230A128A118316031364
:100DE800C800C9014808B7004908B800B301B401F0
:100DF8008312031387121F2F023078067904031D0C
:100E0800062F072F1F2F0A128A15C7240A128A11C4
:100E18000A128A1579240A128A11831603133303D6
:100E28003404031D182F192F1F2FB301B401831287
:100E3800031387121F2F033083160313C800C80B30
:100E4800232FED2D0A128A110C2883120313A800F0
:100E580028080319302F312F452FA31F342F352F82
:100E6800452F2009AA002109AB002209AC0023095B
:100E7800AD00AA0A0319AB0A0319AC0A0319AD0A93
:100E88004D2F2308AD002208AC002108AB00200834
:100E9800AA002308220421042004031D542F552FDF
:100EA8005E2F0030A3000030A2000030A100003007
:100EB800A000E22F9630A9006E2F0130A40024086C
:100EC800A90701300310AD0CAC0CAB0CAA0CFF3E0B
:100ED800031D662FFE302D05031D732F742F612F00
:100EE800902F0130A4002408A9070130AA07003078
:100EF80003180130AB07003003180130AC0700308D
:100F080003180130AD0701300310AD0CAC0CAB0C6D
:100F1800AA0CFF3E031D882FFF302D05031D952FBA
:100F2800962F752FA22F0130A9020130A4000310BB
:100F3800AA0DAB0DAC0DAD0DA40B9B2FAC1BA52FB3
:100F4800A62FAC2F023029020318AB2FAC2F972FF6
:100F58002918AF2FB02FB82FFF30AA05FF30AB05E7
:100F68007F30AC05FF30AD050310A90C2908A4009B
:100F7800A501A601A70118300310A40DA50DA60D03
:100F8800A70DFF3E031DC02F2408AA042508AB04A3
:100F98002608AC042708AD0428080319D42FD52F38
:100FA800DA2FA31FD82FD92FDA2FAD172D08A300BA
:100FB8002C08A2002B08A1002A08A000080083160C
:100FC800031387149B3092000F30831203139D0480
:100FD8006D0C031C9D1203189D161D166B089B00B3
:100FE8008C108C1CF82FF92FF52F831603138710FC
:020FF8000800EF
:1015C60064008001840A0406031900340406E42A30
:1015D6008B178B160B1183160313811281110108C9
:1015E600F839033881006330831203138100080041
:1015F600052BFD2AFE2A00000130F0020030031CF4
:10160600F103F10270087104031D0A2B0B2BFC2A4F
:1016160008000C3083160313990018128312031363
:101626009817831603131815831603178715831641
:1016360003139816831203130C1218160800F400ED
:10164600831603178C18282B292B232B0C182C2BCD
:101656002D2B232B7408831203178D008316031773
:101666008C130C14831203170C0808008316031737
:1016760089018312031385018701880183160313E9
:10168600880187010C17831203130C138B150B109B
:101696000730831603139600073095008113080060
:1016A6008316031307159B3092000C308312031325
:1016B60097006D08F400F40E17087406CF39740607
:1016C60097006B0895008C100330920412158C1C41
:1016D6006D2B6E2B6A2B8316031307110800F4017A
:1016E600F50183120313201C792B7A2B802B2208F9
:1016F600F4070318F50A2308F50701300310A20DB5
:10170600A30DFF3E031D812B01300310A10CA00C7D
:10171600FF3E031D882B20082104031D932B942BC9
:10172600742B7508A1007408A0000800F4000730A7
:101736007406031D9F2BA02BA42B70308316031356
:101746008F0406307406031DA92BAA2BB02B831613
:1017560003130F088F3960388F0003307406031D9A
:10176600B52BB62BBC2B831603130F088F393038D5
:101776008F00831603130F14080083120313A600A9
:10178600A201A3017408A000A1012008A400210859
:10179600A500261CCF2BD02BD62B2408A207031876
:1017A600A30A2508A30701300310A40DA50DFF3ECB
:1017B600031DD72B0310A60C2608031DE32BE42BD1
:1017C600CC2B2308F5002208F4000800831203132B
:1017D600A000831603178C18F12BF22BEC2B831227
:1017E60003132008831203178D0074088C008316D8
:1017F60003178C130C1500308B1B01308312031357
:10180600A1008B135530831603178D00AA308D0067
:101816008C140C1183120313210C031C8B13031855
:101826008B17080083160317890183160313851681
:101836008316031788168316031385148316031756
:1018460088148316031305158316031708158316C4
:1018560003138515831603178815831203139F1325
:101866001F17831603139F121F129F13831203134E
:101876001F140330F400F40B3E2C412C0800831295
:101886000313B6002D082F02A4002E08031C2E0AEF
:101896003002A5003608B5002D083502A0002E0935
:1018A6000318013EA10031083302A2003208031CCE
:1018B600320A3402A3000A128A1572230A128A1502
:1018C600831203132108A7002008A6000A128A150E
:1018D6001A250A128A158312031331082407AD004C
:1018E60032080318320A2507AE00080083120313D4
:1018F6008C1E7E2C7F2CC62C31301A06031D842CA0
:10190600852C9C2C003079020230031978020318CA
:101916008D2C8E2C9A2CF601F7017808013EF800E2
:1019260079080318013E003EF9008C129C2CF80140
:10193600F90132301A06031DA12CA22CB72C003057
:1019460077020330031976020318AA2CAB2CB52CA8
:101956007608013EF60077080318013E003EF700C0
:101966008C12B72CF601F70133301A06031DBC2C76
:10197600BD2CC62C013083160313B3000030B4000F
:10198600831203138C12080076087704031DCC2CEF
:10199600CD2CD22C8312031308118811F52C760353
:1019A6007704031DD72CD82CDD2C831203130815BE
:1019B6008811F52C023076067704031DE32CE42CFF
:1019C600E92C8312031308118815F52C03307606CB
:1019D6007704031DEF2CF02CF52C83120313081546
:1019E6008815F52C78087904031DFA2CFB2C012D9B
:1019F60083120313081488100712192D780379042B
:101A0600031D062D072D0D2D8312031308108814B0
:101A16000712192D023078067904031D132D142D93
:101A2600192D831203130810881007160800831255
:101A36000313AA01A51F202D212D282DA409A509D0
:101A4600A40A0319A50AAA01AA0AA71F2B2D2C2D41
:101A5600352DA609A709A60A0319A70A0130A80069
:101A66002808AA06AB01AC012408250403193C2D5D
:101A76003D2D742DA901A90A4B2D01300310A40D8B
:101A8600A50DFF3E031D412D0130A8002808A9071A
:101A9600A51F4E2D4F2D402D01300310AB0DAC0D63
:101AA600FF3E031D502D25082702031D5C2D24082B
:101AB6002602031C5F2D602D672D2408A60225082B
:101AC600031CA703A7022B1401300310A50CA40CBA
:101AD600FF3E031D682D0130A902031D732D742DD1
:101AE6004F2D2A080319782D792D7E2DAB09AC09C7
:101AF600AB0A0319AC0A2C08A5002B08A4000800A1
:101B06000310831203135E0D5F0DE5006508031DC8
:101B16008D2D8E2D972D0030DF000030DE00003039
:101B2600DD000030DC00FA2D5C08E0005D08E10015
:101B36005E08E2005F08E3001F300310E30CE20CCE
:101B4600E10CE00CFF3E031DA02D6008E400DE174B
:101B5600FF30DC05FF30DD05FF30DE050030DF0538
:101B66009630E502E51FB82DB92DD32D6508803ACC
:101B7600973E0318BF2DC02DC12D8E2D01300310A9
:101B8600DF0CDE0CDD0CDC0CFF3E031DC22D01302C
:101B9600E0006008E507031DD12DD22DC12DEA2DE9
:101BA60020306502031CD82DD92DE52D8E2D013050
:101BB600E0000310DC0DDD0DDE0DDF0DE00BDC2D8E
:101BC6000130E5026508031DE92DEA2DDA2D6408CA
:101BD6000319EE2DEF2DFA2DDC09DD09DE09DF09EB
:101BE600DC0A0319DD0A0319DE0A0319DF0A0800F5
:101BF6000B1DFE2DFF2D232E0B11633083120313B5
:101C060081008715831603133A08F1003908F0009E
:101C16000A128A15FB220A128A15831203138711E8
:101C26000714831603133808F1003708F0000A1268
:101C36008A15FB220A128A158312031307100B1149
:101C46000B1C262E272E732E8312031306182C2EFA
:101C56002D2E472E061C302E312E2D2E00307902C9
:101C66000230031978020318392E3A2E452EF60152
:101C7600F7017808013EF80079080318013E003E96
:101C8600F900472EF801F90186184A2E4B2E632ECD
:101C9600861C4E2E4F2E4B2E003077020330031932
:101CA60076020318572E582E612E7608013EF6004E
:101CB60077080318013E003EF700632EF601F70190
:101CC6000619662E672E722E061D6A2E6B2E672E3D
:101CD6008716013083160313B3000030B4000B10CF
:101CE60073088A00720E8300FE0E7E0E09008316AC
:101CF60003131E08C30006300310C30CFF3E031D6A
:101D06007F2E831203131E0883160313C400C50116
:101D16000310C40DC50D0310C40DC50D43084407BB
:101D2600C6000030031801304507C7004608C10049
:101D36004708C200410883120313A0008316031349
:101D4600420883120313A100A201A30100300A1264
:101D56008A1129270A128A15831203132308B5004C
:101D66002208B4002108B3002008B2003D30B100BB
:101D76000730B0002B30AF000230AE000A128A11D5
:101D860028200A128A15831203133108CF0030085F
:101D9600CE002F08CD002E08CC004230CB000030FC
:101DA600CA000030C9000030C8000A128A116D232B
:101DB6000A128A15831203134B08DF004A08DE0055
:101DC6004908DD004808DC000A128A1583250A1234
:101DD6008A15831203135D0883160313BC0083124E
:101DE60003135C0883160313BB0003303B05831201
:101DF6000313ED000030831603133C05831203130F
:101E0600EE00831603133C08C4003B08C30003100E
:101E1600C40CC30C0310C40CC30CFF30430583125F
:101E26000313EB00003083160313440583120313D8
:101E3600EC000800831203131F08C33904389F00FF
:101E4600033083120313E600E60B272F83120313D6
:101E56009F149F182F2F302F2C2F0C130A128A1520
:101E66007A260A128A15831203136D08E600E60E17
:101E760017086606CF39660697006B089500283066
:101E860083120313E600E60B462F492F8312031332
:101E96001F08C33908389F00033083120313E60076
:101EA600E60B532F831203139F149F185B2F5C2F8F
:101EB600582F0C130A128A157A260A128A158312CB
:101EC60003136D080139E600E60E1D086606EF39B4
:101ED60066069D006E08E7006D08E6000310E70C35
:101EE600E60C66080139E800E80EE80D1D086806EC
:101EF600DF3968069D006B089B00283083120313A8
:101F0600E600E60B842F872F831203131F08C339BD
:101F16000C389F00033083120313E600E60B912F63
:101F2600831203139F149F18992F9A2F962F0C1321
:101F36000030AD00AE00FF30AF000030B000013021
:101F4600B1000030B2001130B3000030B4001E08FA
:101F56000A128A1542240A128A15831203132E08BE
:101F660083160313BA00831203132D088316031373
:101F7600B900283083120313E600E60BC02FC32FE7
:101F8600831203131F08C33910389F0003308312CE
:101F96000313E600E60BCD2F831203139F149F183D
:101FA600D52FD62FD22F0C130030AD00AE00FF3048
:101FB600AF000030B0000130B1000030B200113087
:101FC600B3000030B4001E080A128A1542240A1211
:101FD6008A15831203132E0883160313B80083127F
:101FE60003132D0883160313B70028308312031337
:0A1FF600E600E60BFC2FFF2F0800A9
:08400000FF3FFF3FFF3FFF3FC0
:04400E00D420FF3F7C
:00000001FF
