:060000000A128A110C280F
:10000800FE00030EFA000A08FB000A128A15F02EF9
:100018000A128A110F28F001F101F201F301F4012B
:10002800F50183120313EF0183160313A001A10145
:10003800A201A301A401A501A601A701A801A90184
:10004800AA01AB01AC0183010A128A15362E83126C
:10005800031331088039BB003108B6003607C100E8
:10006800B01F3728382839284114410803193D287A
:100078003E284D28410A031D422843284B280030BA
:10008800B1000030B0000030AF000030AE00B01753
:1000980055280030B1000030B0000030AF0000300B
:1000A800AE0035088039B6003608BB063508B600FC
:1000B8003607BC00B41F6128622863283C143C083A
:1000C80003196728682877283C0A031D6C286D28BF
:1000D80075280030B5000030B4000030B30000309F
:1000E800B200B4177F280030B5000030B4000030EB
:1000F800B3000030B2003C080319832884288928FB
:100108004108031D8828892892280030B100003052
:10011800B0000030AF000030AE006F2B2E08A000FA
:1001280034080A128A157D250A128A1183120313CC
:100138002108C7002008C6004608B600B701B80164
:10014800B9013908C0003808BF003708BE003608B2
:10015800BD004708B600B701B801B9013908C500A4
:100168003808C4003708C3003608C2002F08A000AA
:1001780033080A128A157D250A128A11831203137D
:100188002108C7002008C6004608B600B701B80114
:10019800B9013608BD07370803110318013E0319D2
:1001A800D628BE07380803110318013E0319DD28B5
:1001B800BF07390803110318013E0319E428C007D3
:1001C8004708B600B701B801B9013608C2073708B1
:1001D80003110318013E0319F228C3073808031155
:1001E8000318013E0319F928C40739080311031835
:1001F800013E03190029C5073008A00032080A1279
:100208008A157D250A128A11831203132108C70053
:100218002008C6004608B600B701B801B90136087B
:10022800BD07370803110318013E03191C29BE072F
:10023800380803110318013E03192329BF07390899
:1002480003110318013E03192A29C0074708B600FD
:10025800B701B801B9013608C207370803110318F6
:10026800013E03193829C307380803110318013E52
:1002780003193F29C407390803110318013E03195C
:100288004629C5070830B6000310BD0DBE0DBF0DC9
:10029800C00DB60B48292F08A00032080A128A158B
:1002A8007D250A128A11831203132108C70020082A
:1002B800C6004608B6004708B700B801B9013608B5
:1002C800BD07370803110318013E03196C29BE073F
:1002D800380803110318013E03197329BF073908A9
:1002E80003110318013E03197A29C0072E08A0003C
:1002F80033080A128A157D250A128A1183120313FC
:100308002108C7002008C6004608B6004708B700FD
:10031800B801B9013608BD07370803110318013EB3
:1003280003199729BE07380803110318013E03195A
:100338009E29BF07390803110318013E0319A5298F
:10034800C0070830B6000310BD0DBE0DBF0DC00DAF
:10035800B60BA7292E08A00032080A128A157D2597
:100368000A128A11831203132108C7002008C60045
:100378004608B6004708B700B801B9013608BD07F6
:10038800370803110318013E0319CB29BE073808A3
:1003980003110318013E0319D229BF0739080311B5
:1003A8000318013E0319D929C0072F08A0003408F3
:1003B8000A128A157D250A128A118312031321084D
:1003C800C7002008C6004608B6004708B700B801AD
:1003D800B9013608C207370803110318013E03198B
:1003E800F629C307380803110318013E0319FD292C
:1003F800C407390803110318013E0319042AC50765
:100408003008A00033080A128A157D250A128A11BD
:10041800831203132108C7002008C6004608B60047
:100428004708B700B801B9013608C20737080311F1
:100438000318013E0319212AC307380803110318BA
:10044800013E0319282AC407390803110318013E7D
:1004580003192F2AC5073008A00034080A128A1584
:100468007D250A128A11831203132108C700200868
:10047800C6004608B6004708B700B801B9010830F9
:100488000310B60DB70DB80DB90DFF3E031D442A74
:100498003608C207370803110318013E0319552A05
:1004A800C307380803110318013E03195C2AC4075F
:1004B800390803110318013E0319632AC5073D08CB
:1004C800B6003E08B7003F08B8004008B900183029
:1004D8000310B90CB80CB70CB60CFF3E031D6C2A00
:1004E8003608C207370803110318013E03197D2A8D
:1004F800C307380803110318013E0319842AC407E7
:10050800390803110318013E03198B2AC50708305F
:10051800B6000310BD0DBE0DBF0DC00DB60B8D2A64
:1005280041083C07B600B701B70D3608823EC60041
:1005380037080318013EFF3EC700BF2A0130B60046
:100548000310C20DC30DC40DC50DB60BA42AC01FE0
:10055800AE2AAF2AB02A42140130B6000310BD0DEE
:10056800BE0DBF0DC00DB60BB22AFF30C60703186B
:10057800C70AFF30C707C41FC22AC32AA22ABC0160
:10058800C01FC72AC82AE42AFF303D05B600FF303D
:100598003E05B700FF303F05B8007F304005B90081
:1005A80039083804370436040319DB2ADC2ADF2A21
:1005B800BC01BC0AE42A421CE22AE32AE42ADC2A17
:1005C8003C080319E82AE92A1A2B0130C20700302F
:1005D80003180130C307003003180130C407003086
:1005E80003180130C507451CFA2AFB2A1A2B4208B2
:1005F800B6004308B7004408B8004508B900013000
:10060800BA00390DB90CB80CB70CB60CBA0B052BDF
:100618003908C5003808C4003708C3003608C200C6
:100628000130C6070318C70A0030C7074708803AD1
:10063800FF0080307F02031D232BFF304602031C7E
:10064800262B272B322B7F3083120313C5008030D3
:10065800C4000030C3000030C200632B83120313B0
:100668004708803AFF0080307F02031D3D2B013090
:1006780046020318402B412B4D2B003083120313E5
:10068800C5000030C4000030C3000030C200BB0108
:10069800632B831203134608C100FF30C205FF30E5
:1006A800C3057F30C4050030C505411C5C2B5D2B9C
:1006B8005E2BC4174108B6000310360CC5003B0872
:1006C800B6003608C5044508B1004408B000430820
:1006D800AF004208AE000800831203134B088039AC
:1006E800D8004B08D0005007DA00CA1F7C2B7D2B9E
:1006F8007E2B5A145A080319822B832B932B5A0AE0
:10070800031D872B882B902B0030CB000030CA00AC
:100718000030C9000030C800CA17CB019B2B00303D
:10072800CB000030CA000030C9000030C8004F08B4
:100738008039D900590858060319A32BA42BA52BD7
:1007480058174F08D0005007D900CE1FAC2BAD2B3F
:10075800AE2B591459080319B22BB32BC32B590AC2
:10076800031DB72BB82BC02B0030CF000030CE00B4
:100778000030CD000030CC00CE17CF01CB2B00309D
:10078800CF000030CE000030CD000030CC005A0839
:1007980059020318D02BD12BF72B581FD42BD52B4C
:1007A800D92B8030D0005008D8065A08DB005908E9
:1007B800DA005B08D9004808DB004C08C8005B0871
:1007C800CC004908DB004D08C9005B08CD004A0889
:1007D800DB004E08CA005B08CE004B08DB004F0860
:1007E800CB005B08CF00DB015908D000D1015108CC
:1007F800D3005A085002D200031CD3035308803A8E
:10080800FF0080307F02031D0B2C1A305202031C9C
:100818000E2C0F2C462C831203134B084A04490450
:100828004804031D182C1A2C01301B2C0030DB0047
:100838000030CB000030CA000030C9000030C800CA
:100848005908DA004E2C5B1C2A2C2B2C322C5B0806
:10085800D0000310500C0138DB00342C0310DB0CE3
:10086800481C372C382C392CDB170130D0004B0DA5
:10087800CB0CCA0CC90CC80CD00B3B2C0130D000D7
:100888005008DA078312031359085A02031C4D2C27
:100898004E2C272C581B512C522C9B2C5A08031DCC
:1008A800562C572C602C0030CB000030CA0000308A
:1008B800C9000030C800C72D4C08C8074D080311EF
:1008C8000318013E0319692CC9074E0803110318C0
:1008D800013E0319702CCA074F0803110318013E83
:1008E8000319772CCB074B1C7A2C7B2C4F2D5B1CC8
:1008F8007E2C7F2C862C5B08D0000310500C01380E
:10090800DB00882C0310DB0C481C8B2C8C2C8D2CCA
:10091800DB170130D0004B0DCB0CCA0CC90CC80C2E
:10092800D00B8F2C0130D0005008DA074F2D4B0820
:10093800803AFF004F08803A7F02031DAD2C4E0815
:100948004A02031DAD2C4D084902031DAD2C4C086D
:1009580048020318B02CB12C092DFF30D000FF300D
:10096800D100FF30D200FF30D3004C08D4004D082E
:10097800D5004E08D6004F08D7004808D4024908C9
:10098800031C490FC82CC92CD5024A08031C4A0F5E
:10099800CE2CCF2CD6024B08031C4B0FD42CD52CB5
:1009A800D7025408D00755080318550FDC2CDD2C46
:1009B800D10756080318560FE22CE32CD207570824
:1009C8000318570AD3075308CB005208CA00510826
:1009D800C9005008C8008030D0005008D806DB098C
:1009E800DB0A5B08031DF92CFA2C172D0130C80708
:1009F800003003180130C907003003180130CA0756
:100A0800003003180130CB07172D4C08C8024D08D9
:100A1800031C4D0FC9024E08031C4E0FCA024F0893
:100A2800031C4F0FCB024B084A0449044804031D1A
:100A38001E2D1F2D4B2D5B08031D232D242D4B2D03
:100A48000030CB000030CA000030C9000030C800B8
:100A5800C72D0130D0000310C80DC90DCA0DCB0D2C
:100A6800D00B2F2DDB1F392D3A2D3B2D48145B1C45
:100A78003E2D3F2D422D0314DB0D442D0310DB0DBD
:100A88005A080319482D492D4B2D0130DA02CA1F87
:100A98004E2D4F2D2D2DD901DB1F532D542D622D99
:100AA8005B087F390319592D5A2D5D2DD901D90AB3
:100AB800622D481C602D612D622D5A2D590803198D
:100AC800662D672D9B2D0130C807003003180130B3
:100AD800C907003003180130CA0700300318013075
:100AE800CB074B1C782D792D9B2D4808D000490841
:100AF800D1004A08D2004B08D3000130D400530D6E
:100B0800D30CD20CD10CD00CD40B832D5308CB00B2
:100B18005208CA005108C9005008C8005A0A0319E7
:100B2800962D972D9B2D0130D0005008DA075A0AD0
:100B380003199F2DA02DA52D5A08031DA42DA52D01
:100B4800B32D0030CB000030CA000030C90000309F
:100B5800C8005A08031DB12DB22DB32DD8015A1C57
:100B6800B62DB72DB92DCA17BD2D7F30D00050082E
:100B7800CA055A08D0000310500CCB00D81FC52D49
:100B8800C62DC72DCB170800C330831203139F054A
:100B9800033083120313EB00EB0BD02D83120313E6
:100BA8009F149F18D82DD92DD52D0C130A128A15EC
:100BB80061270A128A11720883120313EB00EB0EE5
:100BC80017086B06CF396B06970070089500283018
:100BD80083120313EB00EB0BEF2DF22D831203139B
:100BE8001F08C33904389F00033083120313EB0036
:100BF800EB0BFC2D831203139F149F18042E052E54
:100C0800012E0C130A128A1561270A128A1172081A
:100C1800013983120313EB00EB0E1D086B06EF3945
:100C28006B069D007308EC007208EB000310EC0CD7
:100C3800EB0C6B080139ED00ED0EED0D1D086D068E
:100C4800DF396D069D0070089B002830831203135E
:100C5800EB00EB0B2D2E302E831203131F08C33924
:100C680008389F00033083120313EB00EB0B3A2E76
:100C7800831203139F149F18422E432E3F2E0C13EA
:100C88000030AF00B000FF30B1000030B2000130DA
:100C9800B3000030B4001130B5000030B6001E08B3
:100CA8000A128A15FF250A128A11831203133008C3
:100CB80083160313A500831203132F088316031347
:100CC800A400283083120313EB00EB0B692E6C2E63
:100CD800831203131F08C3390C389F000330831293
:100CE8000313EB00EB0B762E831203139F149F184C
:100CF8007E2E7F2E7B2E0C130030AF00B000FF300D
:100D0800B1000030B2000130B3000030B40011303F
:100D1800B5000030B6001E080A128A15FF250A120F
:100D28008A1183120313300883160313A300831256
:100D380003132F0883160313A2002830831203130A
:100D4800EB00EB0BA52EA82E080083120313A800B6
:100D580028080319B02EB12EC52EA31FB42EB52E08
:100D6800C52E2009AA002109AB002209AC002309DD
:100D7800AD00AA0A0319AB0A0319AC0A0319AD0A94
:100D8800CD2E2308AD002208AC002108AB002008B6
:100D9800AA002308220421042004031DD42ED52EE2
:100DA800DE2E0030A3000030A2000030A100003089
:100DB800A000622F9630A900EE2E0130A40024086E
:100DC800A90701300310AD0CAC0CAB0CAA0CFF3E0C
:100DD800031DE62EFE302D05031DF32EF42EE12E05
:100DE800102F0130A4002408A9070130AA070030F9
:100DF80003180130AB07003003180130AC0700308E
:100E080003180130AD0701300310AD0CAC0CAB0C6E
:100E1800AA0CFF3E031D082FFF302D05031D152FBB
:100E2800162FF52E222F0130A9020130A40003103D
:100E3800AA0DAB0DAC0DAD0DA40B1B2FAC1B252FB4
:100E4800262F2C2F0230290203182B2F2C2F172F77
:100E580029182F2F302F382FFF30AA05FF30AB0568
:100E68007F30AC05FF30AD050310A90C2908A4009C
:100E7800A501A601A70118300310A40DA50DA60D04
:100E8800A70DFF3E031D402F2408AA042508AB0424
:100E98002608AC042708AD0428080319542F552F39
:100EA8005A2FA31F582F592F5A2FAD172D08A300BB
:100EB8002C08A2002B08A1002A08A0000800031093
:100EC800831203135E0D5F0DE5006508031D6D2F8A
:100ED8006E2F772F0030DF000030DE000030DD009D
:100EE8000030DC00DA2F5C08E0005D08E1005E08F5
:100EF800E2005F08E3001F300310E30CE20CE10C92
:100F0800E00CFF3E031D802F6008E400DE17FF3071
:100F1800DC05FF30DD05FF30DE050030DF059630EB
:100F2800E502E51F982F992FB32F6508803A973E61
:100F380003189F2FA02FA12F6E2F01300310DF0C55
:100F4800DE0CDD0CDC0CFF3E031DA22F0130E0009F
:100F58006008E507031DB12FB22FA12FCA2F20303B
:100F68006502031CB82FB92FC52F6E2F0130E00082
:100F78000310DC0DDD0DDE0DDF0DE00BBC2F0130A5
:100F8800E5026508031DC92FCA2FBA2F6408031983
:100F9800CE2FCF2FDA2FDC09DD09DE09DF09DC0AC5
:100FA8000319DD0A0319DE0A0319DF0A080083168C
:100FB800031307159B3092000C308312031397001C
:100FC8007208A000A00E17082006CF392006970047
:100FD800700895008C100330920412158C1CF52FA4
:0C0FE800F62FF22F8316031307110800E8
:101A02008B178B160B118316031381128111010898
:101A1200F839033881006330831203138100080010
:101A22001B2D132D142D00000130F6020030031C73
:101A3200F703F70276087704031D202D212D122DBE
:101A42000800831603178901831203138501870196
:101A5200880183160313880187010C17831203136D
:101A62000C138B150B1007308316031396000730E7
:101A72009500811308008316031387149B3092008C
:101A82000F30831203139D04720C031C9D12031862
:101A92009D161D1670089B008C108C1C512D522D0A
:101AA2004E2D831603138710080083120313A4011B
:101AB200A501201C5D2D5E2D642D2208A4070318AC
:101AC200A50A2308A50701300310A20DA30DFF3EAE
:101AD200031D652D01300310A10CA00CFF3E031D58
:101AE2006C2D20082104031D772D782D5A2D2508F1
:101AF200A1002408A000080083120313A800A40177
:101B0200A5012008A200A3012208A6002308A7001D
:101B1200281C8C2D8D2D932D2608A4070318A50AA9
:101B22002708A50701300310A60DA70DFF3E031DD0
:101B3200942D0310A80C2808031DA02DA12D892D7A
:101B42002508A1002408A000080083120313A000A6
:101B520007302006031DAE2DAF2DB32D7030831636
:101B620003138F04063083122006031DB92DBA2DEC
:101B7200C02D831603130F088F3960388F0003308E
:101B820083122006031DC62DC72DCD2D83160313E8
:101B92000F088F3930388F00831603130F14080093
:101BA200831603178901831603130514831603177B
:101BB20008148316031385148316031788148316D7
:101BC20003130515831603170815831603138515CA
:101BD200831603178815831203139F131F17831687
:101BE20003139F121F129F13831203131F14033038
:101BF20083120313A000A00BFC2D08008312031311
:101C0200B8002F083102A6003008031C300A320245
:101C1200A7003808B7002F083702A00030090318C0
:101C2200013EA10033083502A2003408031C340A25
:101C32003602A3000A128A1556250A128A15831241
:101C420003132108A9002008A8000A128A15872672
:101C52000A128A158312031333082607AF003408C9
:101C62000318340A2707B00008000A128A15222531
:101C72000A128A1503300A128A15A6250A128A1533
:101C82000A128A15D1250A128A150A128A11DB272D
:101C92000A128A150A128A153C250A128A150A1294
:101CA2008A1501250A128A15F401F50174087504D2
:101CB200031D5C2E5D2E672E0130831203138800F4
:101CC2000A128A11C8250A128A157D2E7403750418
:101CD200031D6C2E6D2E722E0230831203138800A8
:101CE200612E00307502023003197402031C7A2E31
:101CF2007B2E7D2EF401F501033083120313EE00D7
:101D0200EE0B812E572E0A128A110C28831203130E
:101D1200AC01A71F8D2E8E2E952EA609A709A60A05
:101D22000319A70AAC01AC0AA91F982E992EA22E5C
:101D3200A809A909A80A0319A90A0130AA002A08B0
:101D4200AC06AD01AE01260827040319A92EAA2E5E
:101D5200E12EAB01AB0AB82E01300310A60DA70D80
:101D6200FF3E031DAE2E0130AA002A08AB07A71FB3
:101D7200BB2EBC2EAD2E01300310AD0DAE0DFF3EBD
:101D8200031DBD2E27082902031DC92E260828027D
:101D9200031CCC2ECD2ED42E2608A8022708031C05
:101DA200A903A9022D1401300310A70CA60CFF3EB3
:101DB200031DD52E0130AB02031DE02EE12EBC2EF9
:101DC2002C080319E52EE62EEB2EAD09AE09AD0A5D
:101DD2000319AE0A2E08A7002D08A60008000B1D45
:101DE200F32EF42E182F0B1163308312031381008C
:101DF2008715831603132508F7002408F6000A1234
:101E02008A1511250A128A158312031387110714E2
:101E1200831603132308F7002208F6000A128A1514
:101E220011250A128A158312031307100B110B1CBA
:101E32001B2F1C2F392F831203130618212F222F39
:101E4200392F0330F9006E30F800F80B262FF90B0A
:101E5200262F83120313061C2F2F302F392F7408BD
:101E6200013EF40075080318013E003EF5000B1018
:101E720074037504031D3E2F3F2F5A2F0B1C422F54
:101E8200432F5A2F831203138618482F492F5A2F94
:101E92000330F9006E30F800F80B4D2FF90B4D2F7F
:101EA20083120313861C562F572F5A2F88150B1097
:101EB2005A2F7B088A007A0E8300FE0E7E0E0900DE
:101EC200831603131E0883120313E6000630031061
:101ED200E60CFF3E031D682F1E08E700E801031011
:101EE200E70DE80D0310E70DE80D66086707E90046
:101EF2000030031801306807EA00690883160313EB
:101F0200AB00831203136A0883160313AC002B0879
:101F120083120313A000831603132C0883120313E6
:101F2200A100A201A30100300A128A11A9260A12F5
:101F32008A15831203132308B5002208B40021086E
:101F4200B3002008B2003D30B1000730B0002B30A2
:101F5200AF000230AE000A128A112B200A128A1533
:101F6200831203133108CF003008CE002F08CD00B2
:101F72002E08CC004230CB000030CA000030C9002D
:101F82000030C8000A128A1170230A128A158312BD
:101F920003134B08DF004A08DE004908DD00480849
:101FA200DC000A128A1163270A128A1583120313AC
:101FB2005D0883160313A700831203135C088316BC
:101FC2000313A60003302605F20000302705F300B4
:101FD200270883120313E7008316031326088312CC
:101FE2000313E6000310E70CE60C0310E70CE60C03
:0E1FF200FF306605F00000306705F1000800C2
:08400000FF3FFF3FFF3FFF3FC0
:04400E00D420FF3F7C
:00000001FF
