:060000000A128A110C280F
:10000800FE00030EF2000A08F3000A128A15332DC7
:100018000A128A110F28F601F701F801F901831273
:100028000313E901EA01EB01EC01ED01EE01831391
:10003800A0308400C4300A128A154F220A128A118D
:1000480083010A128A11C52D8312031331088039DE
:10005800BB003108B6003607C100B01F3428352868
:1000680036284114410803193A283B284A28410AEE
:10007800031D3F28402848280030B1000030B00058
:100088000030AF000030AE00B01752280030B10089
:100098000030B0000030AF000030AE0035088039C5
:1000A800B6003608BB063508B6003607BC00B41FD4
:1000B8005E285F2860283C143C08031964286528DA
:1000C80074283C0A031D69286A2872280030B50084
:1000D8000030B4000030B3000030B200B4177C2800
:1000E8000030B5000030B4000030B3000030B2007A
:1000F8003C0803198028812886284108031D852883
:1001080086288F280030B1000030B0000030AF00E2
:100118000030AE006C2B2E08F40034080A128A1541
:1001280046230A128A11750883120313C70074083C
:10013800C6004608B600B701B801B9013908C000C1
:100148003808BF003708BE003608BD004708B600AB
:10015800B701B801B9013908C5003808C400370823
:10016800C3003608C2002F08F40033080A128A15A3
:1001780046230A128A11750883120313C7007408EC
:10018800C6004608B600B701B801B9013608BD0770
:10019800370803110318013E0319D328BE0738088E
:1001A80003110318013E0319DA28BF0739080311A0
:1001B8000318013E0319E128C0074708B600B70134
:1001C800B801B9013608C207370803110318013E00
:1001D8000319EF28C307380803110318013E031950
:1001E800F628C407390803110318013E0319FD282E
:1001F800C5073008F40032080A128A1546230A1285
:100208008A11750883120313C7007408C6004608CC
:10021800B600B701B801B9013608BD0737080311A0
:100228000318013E03191929BE07380803110318DA
:10023800013E03192029BF07390803110318013E9D
:1002480003192729C0074708B600B701B801B90143
:100258003608C207370803110318013E0319352968
:10026800C307380803110318013E03193C29C407C2
:10027800390803110318013E03194329C50708303B
:10028800B6000310BD0DBE0DBF0DC00DB60B452940
:100298002F08F40032080A128A1546230A128A1116
:1002A800750883120313C7007408C6004608B60011
:1002B8004708B700B801B9013608BD073708031168
:1002C8000318013E03196929BE07380803110318EA
:1002D800013E03197029BF07390803110318013EAD
:1002E80003197729C0072E08F40033080A128A1563
:1002F80046230A128A11750883120313C70074086B
:10030800C6004608B6004708B700B801B901360864
:10031800BD07370803110318013E03199429BE07C6
:10032800380803110318013E03199B29BF07390830
:1003380003110318013E0319A229C0070830B600AB
:100348000310BD0DBE0DBF0DC00DB60BA4292E08A0
:10035800F40032080A128A1546230A128A1175080F
:1003680083120313C7007408C6004608B60047087E
:10037800B700B801B9013608BD07370803110318DB
:10038800013E0319C829BE07380803110318013EA6
:100398000319CF29BF07390803110318013E0319B0
:1003A800D629C0072F08F40034080A128A154623F4
:1003B8000A128A11750883120313C7007408C6004D
:1003C8004608B6004708B700B801B9013608C207A1
:1003D800370803110318013E0319F329C307380826
:1003E80003110318013E0319FA29C4073908031138
:1003F8000318013E0319012AC5073008F400330821
:100408000A128A1546230A128A11750883120313E1
:10041800C7007408C6004608B6004708B700B80108
:10042800B9013608C207370803110318013E03193A
:100438001E2AC307380803110318013E0319252A89
:10044800C407390803110318013E03192C2AC507EC
:100458003008F40034080A128A1546230A128A1151
:10046800750883120313C7007408C6004608B6004F
:100478004708B700B801B90108300310B60DB70D29
:10048800B80DB90DFF3E031D412A3608C2073708CB
:1004980003110318013E0319522AC3073808031130
:1004A8000318013E0319592AC40739080311031810
:1004B800013E0319602AC5073D08B6003E08B7008B
:1004C8003F08B8004008B90018300310B90CB80C40
:1004D800B70CB60CFF3E031D692A3608C207370859
:1004E80003110318013E03197A2AC30738080311B8
:1004F8000318013E0319812AC40739080311031898
:10050800013E0319882AC5070830B6000310BD0D3F
:10051800BE0DBF0DC00DB60B8A2A41083C07B600B8
:10052800B701B70D3608823EC60037080318013EEA
:10053800FF3EC700BC2A0130B6000310C20DC30D30
:10054800C40DC50DB60BA12AC01FAB2AAC2AAD2A13
:1005580042140130B6000310BD0DBE0DBF0DC00D15
:10056800B60BAF2AFF30C6070318C70AFF30C70704
:10057800C41FBF2AC02A9F2ABC01C01FC42AC52A7B
:10058800E12AFF303D05B600FF303E05B700FF30D9
:100598003F05B8007F304005B900390838043704F2
:1005A80036040319D82AD92ADC2ABC01BC0AE12A54
:1005B800421CDF2AE02AE12AD92A3C080319E52A45
:1005C800E62A172B0130C207003003180130C30791
:1005D800003003180130C407003003180130C50784
:1005E800451CF72AF82A172B4208B6004308B7001B
:1005F8004408B8004508B9000130BA00390DB90CF3
:10060800B80CB70CB60CBA0B022B3908C500380861
:10061800C4003708C3003608C2000130C6070318F3
:10062800C70A0030C7074708803AFF0080307F02BA
:10063800031D202BFF304602031C232B242B2F2BBA
:100648007F3083120313C5008030C4000030C3001C
:100658000030C200602B831203134708803AFF0062
:1006680080307F02031D3A2B0130460203183D2BD0
:100678003E2B4A2B003083120313C5000030C40000
:100688000030C3000030C200BB01602B831203138B
:100698004608C100FF30C205FF30C3057F30C405DE
:1006A8000030C505411C592B5A2B5B2BC417410838
:1006B800B6000310360CC5003B08B6003608C50462
:1006C8004508B1004408B0004308AF004208AE0036
:1006D8000800831203134B088039D8004B08D00058
:1006E8005007DA00CA1F792B7A2B7B2B5A145A0829
:1006F80003197F2B802B902B5A0A031D842B852BE3
:100708008D2B0030CB000030CA000030C90000300B
:10071800C800CA17CB01982B0030CB000030CA00A4
:100728000030C9000030C8004F088039D900590886
:1007380058060319A02BA12BA22B58174F08D0003D
:100748005007D900CE1FA92BAA2BAB2B5914590837
:100758000319AF2BB02BC02B590A031DB42BB52B93
:10076800BD2B0030CF000030CE000030CD0000306F
:10077800CC00CE17CF01C82B0030CF000030CE0000
:100788000030CD000030CC005A0859020318CD2B98
:10079800CE2BF42B581FD12BD22BD62B8030D00048
:1007A8005008D8065A08DB005908DA005B08D90057
:1007B8004808DB004C08C8005B08CC004908DB008F
:1007C8004D08C9005B08CD004A08DB004E08CA0086
:1007D8005B08CE004B08DB004F08CB005B08CF005E
:1007E800DB015908D000D1015108D3005A08500242
:1007F800D200031CD3035308803AFF0080307F02E5
:10080800031D082C1A305202031C0B2C0C2C432CF1
:10081800831203134B084A0449044804031D152C8A
:10082800172C0130182C0030DB000030CB000030D2
:10083800CA000030C9000030C8005908DA004B2C43
:100848005B1C272C282C2F2C5B08D0000310500C85
:100858000138DB00312C0310DB0C481C342C352C00
:10086800362CDB170130D0004B0DCB0CCA0CC90C51
:10087800C80CD00B382C0130D0005008DA0783128E
:10088800031359085A02031C4A2C4B2C242C581BBE
:100898004E2C4F2C982C5A08031D532C542C5D2C8D
:1008A8000030CB000030CA000030C9000030C8005A
:1008B800C42D4C08C8074D0803110318013E03193D
:1008C800662CC9074E0803110318013E03196D2C45
:1008D800CA074F0803110318013E0319742CCB07EC
:1008E8004B1C772C782C4C2D5B1C7B2C7C2C832C64
:1008F8005B08D0000310500C0138DB00852C031076
:10090800DB0C481C882C892C8A2CDB170130D00082
:100918004B0DCB0CCA0CC90CC80CD00B8C2C01305D
:10092800D0005008DA074C2D4B08803AFF004F08DA
:10093800803A7F02031DAA2C4E084A02031DAA2CE6
:100948004D084902031DAA2C4C0848020318AD2C77
:10095800AE2C062DFF30D000FF30D100FF30D20082
:10096800FF30D3004C08D4004D08D5004E08D600FF
:100978004F08D7004808D4024908031C490FC52C62
:10098800C62CD5024A08031C4A0FCB2CCC2CD60205
:100998004B08031C4B0FD12CD22CD7025408D0077C
:1009A80055080318550FD92CDA2CD1075608031807
:1009B800560FDF2CE02CD20757080318570AD30725
:1009C8005308CB005208CA005108C9005008C80093
:1009D8008030D0005008D806DB09DB0A5B08031D0D
:1009E800F62CF72C142D0130C807003003180130FD
:1009F800C907003003180130CA0700300318013056
:100A0800CB07142D4C08C8024D08031C4D0FC90212
:100A18004E08031C4E0FCA024F08031C4F0FCB028F
:100A28004B084A0449044804031D1B2D1C2D482D5E
:100A38005B08031D202D212D482D0030CB000030F0
:100A4800CA000030C9000030C800C42D0130D000F1
:100A58000310C80DC90DCA0DCB0DD00B2C2DDB1FF3
:100A6800362D372D382D48145B1C3B2D3C2D3F2D42
:100A78000314DB0D412D0310DB0D5A080319452D16
:100A8800462D482D0130DA02CA1F4B2D4C2D2A2D38
:100A9800D901DB1F502D512D5F2D5B087F390319BC
:100AA800562D572D5A2DD901D90A5F2D481C5D2D79
:100AB8005E2D5F2D572D59080319632D642D982D30
:100AC8000130C807003003180130C9070030031887
:100AD8000130CA07003003180130CB074B1C752DB5
:100AE800762D982D4808D0004908D1004A08D20030
:100AF8004B08D3000130D400530DD30CD20CD10CC9
:100B0800D00CD40B802D5308CB005208CA005108D2
:100B1800C9005008C8005A0A0319932D942D982D1E
:100B28000130D0005008DA075A0A03199C2D9D2D70
:100B3800A22D5A08031DA12DA22DB02D0030CB00E7
:100B48000030CA000030C9000030C8005A08031D30
:100B5800AE2DAF2DB02DD8015A1CB32DB42DB62D06
:100B6800CA17BA2D7F30D0005008CA055A08D000DD
:100B78000310500CCB00D81FC22DC32DC42DCB178A
:100B880008000A128A1594220A128A1103300A12DE
:100B98008A15F8220A128A110A128A1567220A127D
:100BA8008A110A128A159B230A128A110A128A15B7
:100BB8001F230A128A110A128A15AF220A128A11F1
:100BC8000A128A1557220A128A11F801F901F60148
:100BD800F70183160313C10178087904031DF52D65
:100BE800F62D792E0A128A1515270A128A110A1269
:100BF8008A15FF230A128A110A128A1543260A1235
:100C08008A118316031333033404031D0C2E0D2E8F
:100C1800722E76087704031D122E132E182E8312B7
:100C28000313E901EA01412E76037704031D1D2E03
:100C38001E2E252E043083120313E9000030EA002B
:100C4800412E023076067704031D2B2E2C2E332ED0
:100C5800083083120313E9000030EA00412E033004
:100C680076067704031D392E3A2E412E0C30831256
:100C78000313E9000030EA00412E83121508F4003E
:100C880069080A128A156F230A128A11831203133C
:100C98001B08F4006908013E0A128A156F230A121C
:100CA8008A11831203136D08F4006908023E0A12C0
:100CB8008A156F230A128A11831203136B08F40032
:100CC8006908033E0A128A156F230A128A118316CD
:100CD8000313B301B401831203138712033083167D
:100CE8000313C900C90B762E2A2F78037904031D34
:100CF8007E2E7F2E0B2F0A128A15FF230A128A11C5
:100D08000A128A1543260A128A118316031333031B
:100D18003404031D902E912E2A2F76087704031D84
:100D2800962E972E9C2E83120313E901EA01C52EF5
:100D380076037704031DA12EA22EA92E0430831258
:100D48000313E9000030EA00C52E02307606770466
:100D5800031DAF2EB02EB72E083083120313E900FF
:100D68000030EA00C52E033076067704031DBD2E39
:100D7800BE2EC52E0C3083120313E9000030EA00A2
:100D8800C52E831269080A128A157D220A128A1151
:100D98008312031395006908013E0A128A157D2201
:100DA8000A128A11831203139B006908023E0A1271
:100DB8008A157D220A128A1183160313C900CA01F3
:100DC800490883120313ED00831603134A0883129C
:100DD8000313EE006908033E0A128A157D220A12DF
:100DE8008A1183160313C900CA0149088312031321
:100DF800EB00831603134A0883120313EC008316CF
:100E08000313B301B4018312031387122A2F02308C
:100E180078067904031D112F122F2A2F0A128A151A
:100E2800FF230A128A110A128A1543260A128A1106
:100E38008316031333033404031D232F242F2A2F6F
:100E4800B301B4018312031387122A2F03308316C8
:100E58000313C900C90B2E2FF02D0A128A110C2872
:100E680083120313A800280803193B2F3C2F502F87
:100E7800A31F3F2F402F502F2009AA002109AB00A4
:100E88002209AC002309AD00AA0A0319AB0A031909
:100E9800AC0A0319AD0A582F2308AD002208AC008C
:100EA8002108AB002008AA002308220421042004FA
:100EB800031D5F2F602F692F0030A3000030A200B0
:100EC8000030A1000030A000ED2F9630A900792F46
:100ED8000130A4002408A90701300310AD0CAC0CA4
:100EE800AB0CAA0CFF3E031D712FFE302D05031D10
:100EF8007E2F7F2F6C2F9B2F0130A4002408A90779
:100F08000130AA07003003180130AB07003003187E
:100F18000130AC07003003180130AD070130031071
:100F2800AD0CAC0CAB0CAA0CFF3E031D932FFF308D
:100F38002D05031DA02FA12F802FAD2F0130A90251
:100F48000130A4000310AA0DAB0DAC0DAD0DA40B20
:100F5800A62FAC1BB02FB12FB72F023029020318D0
:100F6800B62FB72FA22F2918BA2FBB2FC32FFF30A8
:100F7800AA05FF30AB057F30AC05FF30AD05031087
:100F8800A90C2908A400A501A601A701183003107F
:100F9800A40DA50DA60DA70DFF3E031DCB2F2408FC
:100FA800AA042508AB042608AC042708AD042808C1
:100FB8000319DF2FE02FE52FA31FE32FE42FE52FE1
:100FC800AD172D08A3002C08A2002B08A1002A08A1
:100FD800A0000800F82FF02FF12F00000130F002D8
:100FE8000030031CF103F10270087104031DFD2F8A
:060FF800FE2FEF2F0800A0
:10149E0064008001840A0406031900340406502AED
:1014AE008B178B160B1183160313811281110108F2
:1014BE00F83903388100633083120313810008006A
:1014CE000C30831603139900181283120313981706
:1014DE008316031318158316031787158316031324
:1014EE009816831203130C1218160800F4008316B4
:1014FE0003178C18832A842A7E2A0C18872A882A96
:10150E007E2A7408831203178D00831603178C131B
:10151E000C14831203170C08080083160317890195
:10152E008312031385018701880183160313880133
:10153E00803087000C17831203130C138B150B10BE
:10154E0007308316031396000730950081130800A9
:10155E008316031387149B3092000F3083120313EC
:10156E009D0483160313390C83120313031C9D125F
:10157E0003189D161D1683160313370883120313C3
:10158E009B008C108C1CCC2ACD2AC92A83160313DF
:10159E0087100800F401F50183120313201CD82ACA
:1015AE00D92ADF2A2208F4070318F50A2308F507BB
:1015BE0001300310A20DA30DFF3E031DE02A0130E2
:1015CE000310A10CA00CFF3E031DE72A20082104E6
:1015DE00031DF22AF32AD32A7508A1007408A0006D
:1015EE000800F40007307406031DFE2AFF2A032BA1
:1015FE007030831603138F0406307406031D082BF8
:10160E00092B0F2B831603130F088F3960388F00A9
:10161E0003307406031D142B152B1B2B831603137B
:10162E000F088F3930388F00831603130F140800FC
:10163E008316031307159B3092000C30831203138D
:10164E009700831603133908F400F40E8312031364
:10165E0017087406CF3974069700831603133708DC
:10166E008312031395008C100330920412158C1CF8
:10167E00412B422B3E2B83160313071108008312B6
:10168E000313A600A201A3017408A000A101200863
:10169E00A4002108A500261C552B562B5C2B2408D4
:1016AE00A2070318A30A2508A30701300310A40DEF
:1016BE00A50DFF3E031D5D2B0310A60C2608031D72
:1016CE00692B6A2B522B2308F5002208F400080020
:1016DE0083120313A000831603178C18772B782B15
:1016EE00722B831203132008831203178D007408C4
:1016FE008C00831603178C130C1500308B1B0130D6
:10170E0083120313A1008B135530831603178D001C
:10171E00AA308D008C140C1183120313210C031CA0
:10172E008B1303188B170800831603178901831672
:10173E000313851683160317881683160313851451
:10174E0083160317881483160313051583160317C0
:10175E000815831603138515831603178815831230
:10176E0003139F131F17831603139F121F129F132A
:10177E00831203131F140330F400F40BC42BC72B76
:10178E00080083120313B6002D082F02A4002E08A2
:10179E00031C2E0A3002A5003608B5002D083502AE
:1017AE00A0002E090318013EA10031083302A20049
:1017BE003208031C320A3402A3000A128A15D122FF
:1017CE000A128A15831203132108A7002008A60007
:1017DE000A128A1552240A128A158312031331082B
:1017EE002407AD0032080318320A2507AE000800A0
:1017FE0076087704031D042C052C0A2C8312031380
:10180E00081188112D2C76037704031D0F2C102C34
:10181E00152C83120313081588112D2C0230760611
:10182E007704031D1B2C1C2C212C8312031308116F
:10183E0088152D2C033076067704031D272C282CB3
:10184E002D2C83120313081588152D2C7808790476
:10185E00031D322C332C392C8312031308148810D9
:10186E000712512C78037904031D3E2C3F2C452C76
:10187E0083120313081088140712512C02307806B5
:10188E007904031D4B2C4C2C512C8312031308107E
:10189E0088100716080083120313AA01A51F582CDF
:1018AE00592C602CA409A509A40A0319A50AAA019A
:1018BE00AA0AA71F632C642C6D2CA609A709A60AD9
:1018CE000319A70A0130A8002808AA06AB01AC012B
:1018DE00240825040319742C752CAC2CA901A90A13
:1018EE00832C01300310A40DA50DFF3E031D792C92
:1018FE000130A8002808A907A51F862C872C782C54
:10190E0001300310AB0DAC0DFF3E031D882C2508D6
:10191E002702031D942C24082602031C972C982CB6
:10192E009F2C2408A6022508031CA703A7022B142C
:10193E0001300310A50CA40CFF3E031DA02C01309A
:10194E00A902031DAB2CAC2C872C2A080319B02C32
:10195E00B12CB62CAB09AC09AB0A0319AC0A2C0896
:10196E00A5002B08A40008000310831203135E0DBC
:10197E005F0DE5006508031DC52CC62CCF2C00306D
:10198E00DF000030DE000030DD000030DC00322DE4
:10199E005C08E0005D08E1005E08E2005F08E3001D
:1019AE001F300310E30CE20CE10CE00CFF3E031DB4
:1019BE00D82C6008E400DE17FF30DC05FF30DD05B3
:1019CE00FF30DE050030DF059630E502E51FF02C16
:1019DE00F12C0B2D6508803A973E0318F72CF82C46
:1019EE00F92CC62C01300310DF0CDE0CDD0CDC0CE8
:1019FE00FF3E031DFA2C0130E0006008E507031DD1
:101A0E00092D0A2DF92C222D20306502031C102DD4
:101A1E00112D1D2DC62C0130E0000310DC0DDD0D47
:101A2E00DE0DDF0DE00B142D0130E5026508031D00
:101A3E00212D222D122D64080319262D272D322D2E
:101A4E00DC09DD09DE09DF09DC0A0319DD0A0319E9
:101A5E00DE0A0319DF0A08000B1D362D372D572D10
:101A6E000B11633083120313810087156E08F1008A
:101A7E006D08F0000A128A11EE270A128A158312D7
:101A8E000313871107146C08F1006B08F0000A129B
:101A9E008A11EE270A128A158312031307100B11EF
:101AAE000B1C5A2D5B2DA72D831203130618602DC8
:101ABE00612D7B2D061C642D652D612D0030790264
:101ACE0002300319780203186D2D6E2D792DF60153
:101ADE00F7017808013EF80079080318013E003E30
:101AEE00F9007B2DF801F90186187E2D7F2D972D9B
:101AFE00861C822D832D7F2D003077020330031933
:101B0E00760203188B2D8C2D952D7608013EF6004E
:101B1E0077080318013E003EF700972DF601F701F6
:101B2E0006199A2D9B2DA62D061D9E2D9F2D9B2DA4
:101B3E008716013083160313B3000030B4000B1068
:101B4E0073088A00720E8300FE0E7E0E0900831645
:101B5E0003131E08C40006300310C40CFF3E031D01
:101B6E00B32D831203131E0883160313C500C6017B
:101B7E000310C50DC60D0310C50DC60D440845074F
:101B8E00C7000030031801304607C8004708C200DE
:101B9E004808C300420883120313A00083160313E0
:101BAE00430883120313A100A201A30100300A12FD
:101BBE008A1134270A128A15831203132308B500DB
:101BCE002208B4002108B3002008B2003D30B10055
:101BDE000730B0002B30AF000230AE000A128A116F
:101BEE0028200A128A15831203133108CF003008F9
:101BFE00CE002F08CD002E08CC004230CB00003096
:101C0E00CA000030C9000030C8000A128A116D23C4
:101C1E000A128A15831203134B08DF004A08DE00EE
:101C2E004908DD004808DC000A128A15BB240A1296
:101C3E008A15831203135D0883160313BC008312E7
:101C4E0003135C0883160313BB0003303B05B90076
:101C5E0000303C05BA003C08C5003B08C400031028
:101C6E00C50CC40C0310C50CC40CFF304405B700E2
:101C7E0000304505B8000800831203138C1E482E51
:101C8E00492E142F31301A06031D4E2E4F2E662E5E
:101C9E00003079020230031978020318572E582E9D
:101CAE00642EF601F7017808013EF8007908031852
:101CBE00013E003EF9008C12662EF801F901323019
:101CCE001A06031D6B2E6C2E812E00307702033008
:101CDE00031976020318742E752E7F2E7608013E98
:101CEE00F60077080318013E003EF7008C12812E95
:101CFE00F601F70133301A06031D862E872E902E1D
:101D0E00013083160313B3000030B40083120313A3
:101D1E008C1234301A06031D952E962EA82E0030E6
:101D2E006C02113003196B0203189E2E9F2EA82EE3
:101D3E006B08013EEB006C080318013E003EEC0000
:101D4E008C1235301A06031DAD2EAE2EC02E00306D
:101D5E006C02023003196B02031CB62EB72EC02E76
:101D6E006B08FF3EEB006C080318013EFF3EEC00D3
:101D7E008C1236301A06031DC52EC62ED82E0030F4
:101D8E006E02113003196D020318CE2ECF2ED82EEF
:101D9E006D08013EED006E080318013E003EEE0098
:101DAE008C1237301A06031DDD2EDE2EF02E00307B
:101DBE006E02023003196D02031CE62EE72EF02E82
:101DCE006D08FF3EED006E080318013EFF3EEE006B
:101DDE008C1238301A06031DF52EF62EFA2E150823
:101DEE00013E95008C1239301A06031DFF2E002F6E
:101DFE000A2F02301502031C052F062F0A2F150875
:101E0E00FF3E95008C1230301A06031D0F2F102F37
:101E1E00142F1B08013E9B008C1208008312031323
:101E2E001F08C33904389F00033083120313E600E2
:101E3E00E60B1F2F831203139F149F18272F282F93
:101E4E00242F0C130A128A15AE250A128A15831630
:101E5E000313390883120313E600E60E170866060D
:101E6E00CF396606970083160313370883120313C0
:101E7E009500283083120313E600E60B442F472FFC
:101E8E00831203131F08C33908389F0003308312CF
:101E9E000313E600E60B512F831203139F149F18B2
:101EAE00592F5A2F562F0C130A128A15AE250A12C5
:101EBE008A15831603133908013983120313E600BA
:101ECE00E60E1D086606EF3966069D00831603139F
:101EDE003A0883120313E70083160313390883129B
:101EEE000313E6000310E70CE60C66080139E80060
:101EFE00E80EE80D1D086806DF3968069D0083169A
:101F0E0003133708831203139B0028308312031325
:101F1E00E600E60B902F932F831203131F08C3398D
:101F2E000C389F00033083120313E600E60B9D2F3F
:101F3E00831203139F149F18A52FA62FA22F0C13E5
:101F4E000030AD00AE00FF30AF000030B000013009
:101F5E00B1000030B2001130B3000030B4001E08E2
:101F6E000A128A15C8230A128A15831203132E0821
:101F7E00EE002D08ED00283083120313E600E60B69
:101F8E00C62FC92F831203131F08C33910389F00A1
:101F9E00033083120313E600E60BD32F83120313D1
:101FAE009F149F18DB2FDC2FD82F0C130030AD00A1
:101FBE00AE00FF30AF000030B0000130B100003095
:101FCE00B2001130B3000030B4001E080A128A1598
:101FDE00C8230A128A15831203132E08EC002D084B
:101FEE00EB00283083120313E600E60BFC2FFF2FC5
:021FFE000800D9
:08400000FF3FFF3FFF3FFF3FC0
:04400E00D420FF3F7C
:00000001FF
